{
  "_format": "hh-sol-artifact-1",
  "contractName": "BasicLibrary",
  "sourceName": "contracts/BasicLibrary.sol",
  "abi": [
    {
      "inputs": [
        {
          "internalType": "uint256",
          "name": "self",
          "type": "uint256"
        }
      ],
      "name": "addTwo",
      "outputs": [
        {
          "internalType": "uint256",
          "name": "",
          "type": "uint256"
        }
      ],
      "stateMutability": "pure",
      "type": "function"
    }
  ],
  "bytecode": "0x6101ab610053600b82828239805160001a607314610046577f4e487b7100000000000000000000000000000000000000000000000000000000600052600060045260246000fd5b30600052607381538281f3fe73000000000000000000000000000000000000000030146080604052600436106100355760003560e01c8063cae579131461003a575b600080fd5b610054600480360381019061004f91906100bb565b61006a565b60405161006191906100f7565b60405180910390f35b60006002826100799190610141565b9050919050565b600080fd5b6000819050919050565b61009881610085565b81146100a357600080fd5b50565b6000813590506100b58161008f565b92915050565b6000602082840312156100d1576100d0610080565b5b60006100df848285016100a6565b91505092915050565b6100f181610085565b82525050565b600060208201905061010c60008301846100e8565b92915050565b7f4e487b7100000000000000000000000000000000000000000000000000000000600052601160045260246000fd5b600061014c82610085565b915061015783610085565b925082820190508082111561016f5761016e610112565b5b9291505056fea26469706673582212206a544cfc8f986be3fb0a207e85759e54cc759f3023d890241105de48c3f5db1d64736f6c63430008110033",
  "linkReferences": {},
  "deployedLinkReferences": {}
}