{
  "_format": "hh-sol-artifact-1",
  "contractName": "ContractWithLibrary",
  "sourceName": "contracts/ContractWithLibrary.sol",
  "abi": [
    {
      "inputs": [
        {
          "internalType": "uint256",
          "name": "num",
          "type": "uint256"
        }
      ],
      "name": "readonlyFunction",
      "outputs": [
        {
          "internalType": "uint256",
          "name": "",
          "type": "uint256"
        }
      ],
      "stateMutability": "pure",
      "type": "function"
    }
  ],
  "bytecode": "0x608060405234801561001057600080fd5b50610217806100206000396000f3fe608060405234801561001057600080fd5b506004361061002b5760003560e01c80630689b57e14610030575b600080fd5b61004a6004803603810190610045919061011e565b610060565b604051610057919061015a565b60405180910390f35b60008173__$e24d6032859d6fb940f423f951556f4c34$__63cae5791390916040518263ffffffff1660e01b815260040161009b9190610184565b602060405180830381865af41580156100b8573d6000803e3d6000fd5b505050506040513d601f19601f820116820180604052508101906100dc91906101b4565b9050919050565b600080fd5b6000819050919050565b6100fb816100e8565b811461010657600080fd5b50565b600081359050610118816100f2565b92915050565b600060208284031215610134576101336100e3565b5b600061014284828501610109565b91505092915050565b610154816100e8565b82525050565b600060208201905061016f600083018461014b565b92915050565b61017e816100e8565b82525050565b60006020820190506101996000830184610175565b92915050565b6000815190506101ae816100f2565b92915050565b6000602082840312156101ca576101c96100e3565b5b60006101d88482850161019f565b9150509291505056fea2646970667358221220c633fa737297b0a691bd22eff28934afa87e280f9bf9fd4a81f88e8748974b5564736f6c63430008110033",
  "linkReferences": {
    "contracts/BasicLibrary.sol": {
      "BasicLibrary": [
        {
          "length": 20,
          "start": 133
        }
      ]
    }
  },
  "deployedLinkReferences": {
    "contracts/BasicLibrary.sol": {
      "BasicLibrary": [
        {
          "length": 20,
          "start": 101
        }
      ]
    }
  }
}