{"contracts/Matchers.sol":{"AnotherMatchersContract":{"abi":[{"inputs":[],"name":"YetAnotherCustomError","type":"error"},{"inputs":[],"name":"revertWithYetAnotherCustomError","outputs":[],"stateMutability":"nonpayable","type":"function"},{"inputs":[],"name":"revertWithYetAnotherCustomErrorView","outputs":[],"stateMutability":"pure","type":"function"}],"evm":{"bytecode":{"linkReferences":{},"object":"608060405234801561001057600080fd5b50610182806100206000396000f3fe608060405234801561001057600080fd5b50600436106100365760003560e01c806340d83b241461003b5780634b2bd7e914610045575b600080fd5b61004361004f565b005b61004d610081565b005b6040517fff05e87500000000000000000000000000000000000000000000000000000000815260040160405180910390fd5b600080815480929190610093906100d4565b91905055506040517fff05e87500000000000000000000000000000000000000000000000000000000815260040160405180910390fd5b6000819050919050565b60006100df826100ca565b91507fffffffffffffffffffffffffffffffffffffffffffffffffffffffffffffffff8214156101125761011161011d565b5b600182019050919050565b7f4e487b7100000000000000000000000000000000000000000000000000000000600052601160045260246000fdfea2646970667358221220188b4117d3c1f35f2fcbff7fbf51ee28f08c8abd18e3796ccd1d2fbc8c862e3f64736f6c63430008040033","opcodes":"PUSH1 0x80 PUSH1 0x40 MSTORE CALLVALUE DUP1 ISZERO PUSH2 0x10 JUMPI PUSH1 0x0 DUP1 REVERT JUMPDEST POP PUSH2 0x182 DUP1 PUSH2 0x20 PUSH1 0x0 CODECOPY PUSH1 0x0 RETURN INVALID PUSH1 0x80 PUSH1 0x40 MSTORE CALLVALUE DUP1 ISZERO PUSH2 0x10 JUMPI PUSH1 0x0 DUP1 REVERT JUMPDEST POP PUSH1 0x4 CALLDATASIZE LT PUSH2 0x36 JUMPI PUSH1 0x0 CALLDATALOAD PUSH1 0xE0 SHR DUP1 PUSH4 0x40D83B24 EQ PUSH2 0x3B JUMPI DUP1 PUSH4 0x4B2BD7E9 EQ PUSH2 0x45 JUMPI JUMPDEST PUSH1 0x0 DUP1 REVERT JUMPDEST PUSH2 0x43 PUSH2 0x4F JUMP JUMPDEST STOP JUMPDEST PUSH2 0x4D PUSH2 0x81 JUMP JUMPDEST STOP JUMPDEST PUSH1 0x40 MLOAD PUSH32 0xFF05E87500000000000000000000000000000000000000000000000000000000 DUP2 MSTORE PUSH1 0x4 ADD PUSH1 0x40 MLOAD DUP1 SWAP2 SUB SWAP1 REVERT JUMPDEST PUSH1 0x0 DUP1 DUP2 SLOAD DUP1 SWAP3 SWAP2 SWAP1 PUSH2 0x93 SWAP1 PUSH2 0xD4 JUMP JUMPDEST SWAP2 SWAP1 POP SSTORE POP PUSH1 0x40 MLOAD PUSH32 0xFF05E87500000000000000000000000000000000000000000000000000000000 DUP2 MSTORE PUSH1 0x4 ADD PUSH1 0x40 MLOAD DUP1 SWAP2 SUB SWAP1 REVERT JUMPDEST PUSH1 0x0 DUP2 SWAP1 POP SWAP2 SWAP1 POP JUMP JUMPDEST PUSH1 0x0 PUSH2 0xDF DUP3 PUSH2 0xCA JUMP JUMPDEST SWAP2 POP PUSH32 0xFFFFFFFFFFFFFFFFFFFFFFFFFFFFFFFFFFFFFFFFFFFFFFFFFFFFFFFFFFFFFFFF DUP3 EQ ISZERO PUSH2 0x112 JUMPI PUSH2 0x111 PUSH2 0x11D JUMP JUMPDEST JUMPDEST PUSH1 0x1 DUP3 ADD SWAP1 POP SWAP2 SWAP1 POP JUMP JUMPDEST PUSH32 0x4E487B7100000000000000000000000000000000000000000000000000000000 PUSH1 0x0 MSTORE PUSH1 0x11 PUSH1 0x4 MSTORE PUSH1 0x24 PUSH1 0x0 REVERT INVALID LOG2 PUSH5 0x6970667358 0x22 SLT KECCAK256 XOR DUP12 COINBASE OR 0xD3 0xC1 RETURN 0x5F 0x2F 0xCB SELFDESTRUCT PUSH32 0xBF51EE28F08C8ABD18E3796CCD1D2FBC8C862E3F64736F6C6343000804003300 "},"methodIdentifiers":{"revertWithYetAnotherCustomError()":"4b2bd7e9","revertWithYetAnotherCustomErrorView()":"40d83b24"}}}}}