{"contracts/Matchers.sol":{"Matchers":{"abi":[{"inputs":[],"stateMutability":"nonpayable","type":"constructor"},{"inputs":[],"name":"AnotherCustomError","type":"error"},{"inputs":[{"internalType":"int256","name":"","type":"int256"}],"name":"CustomErrorWithInt","type":"error"},{"inputs":[{"components":[{"internalType":"uint256","name":"a","type":"uint256"},{"internalType":"uint256","name":"b","type":"uint256"}],"internalType":"struct Matchers.Pair","name":"","type":"tuple"}],"name":"CustomErrorWithPair","type":"error"},{"inputs":[{"internalType":"uint256","name":"nameToForceEthersToUseAnArrayLikeWithNamedProperties","type":"uint256"}],"name":"CustomErrorWithUint","type":"error"},{"inputs":[{"internalType":"uint256","name":"","type":"uint256"},{"internalType":"string","name":"","type":"string"}],"name":"CustomErrorWithUintAndString","type":"error"},{"inputs":[],"name":"SomeCustomError","type":"error"},{"anonymous":false,"inputs":[],"name":"SomeEvent","type":"event"},{"inputs":[],"name":"panicAssert","outputs":[],"stateMutability":"nonpayable","type":"function"},{"inputs":[],"name":"panicAssertView","outputs":[],"stateMutability":"pure","type":"function"},{"inputs":[],"name":"revertWithAnotherContractCustomError","outputs":[],"stateMutability":"nonpayable","type":"function"},{"inputs":[],"name":"revertWithAnotherContractCustomErrorView","outputs":[],"stateMutability":"view","type":"function"},{"inputs":[],"name":"revertWithAnotherCustomError","outputs":[],"stateMutability":"nonpayable","type":"function"},{"inputs":[],"name":"revertWithAnotherCustomErrorView","outputs":[],"stateMutability":"pure","type":"function"},{"inputs":[{"internalType":"int256","name":"i","type":"int256"}],"name":"revertWithCustomErrorWithInt","outputs":[],"stateMutability":"nonpayable","type":"function"},{"inputs":[{"internalType":"int256","name":"i","type":"int256"}],"name":"revertWithCustomErrorWithIntView","outputs":[],"stateMutability":"pure","type":"function"},{"inputs":[{"internalType":"uint256","name":"a","type":"uint256"},{"internalType":"uint256","name":"b","type":"uint256"}],"name":"revertWithCustomErrorWithPair","outputs":[],"stateMutability":"nonpayable","type":"function"},{"inputs":[{"internalType":"uint256","name":"a","type":"uint256"},{"internalType":"uint256","name":"b","type":"uint256"}],"name":"revertWithCustomErrorWithPairView","outputs":[],"stateMutability":"pure","type":"function"},{"inputs":[{"internalType":"uint256","name":"n","type":"uint256"}],"name":"revertWithCustomErrorWithUint","outputs":[],"stateMutability":"nonpayable","type":"function"},{"inputs":[{"internalType":"uint256","name":"n","type":"uint256"},{"internalType":"string","name":"s","type":"string"}],"name":"revertWithCustomErrorWithUintAndString","outputs":[],"stateMutability":"nonpayable","type":"function"},{"inputs":[{"internalType":"uint256","name":"n","type":"uint256"},{"internalType":"string","name":"s","type":"string"}],"name":"revertWithCustomErrorWithUintAndStringView","outputs":[],"stateMutability":"pure","type":"function"},{"inputs":[{"internalType":"uint256","name":"n","type":"uint256"}],"name":"revertWithCustomErrorWithUintView","outputs":[],"stateMutability":"pure","type":"function"},{"inputs":[],"name":"revertWithSomeCustomError","outputs":[],"stateMutability":"nonpayable","type":"function"},{"inputs":[],"name":"revertWithSomeCustomErrorView","outputs":[],"stateMutability":"pure","type":"function"},{"inputs":[{"internalType":"string","name":"reason","type":"string"}],"name":"revertsWith","outputs":[],"stateMutability":"nonpayable","type":"function"},{"inputs":[{"internalType":"string","name":"reason","type":"string"}],"name":"revertsWithView","outputs":[],"stateMutability":"pure","type":"function"},{"inputs":[],"name":"revertsWithoutReason","outputs":[],"stateMutability":"nonpayable","type":"function"},{"inputs":[],"name":"revertsWithoutReasonView","outputs":[],"stateMutability":"pure","type":"function"},{"inputs":[],"name":"succeeds","outputs":[],"stateMutability":"nonpayable","type":"function"},{"inputs":[],"name":"succeedsView","outputs":[{"internalType":"uint256","name":"","type":"uint256"}],"stateMutability":"view","type":"function"}],"evm":{"bytecode":{"linkReferences":{},"object":"608060405234801561001057600080fd5b5060405161001d9061007f565b604051809103906000f080158015610039573d6000803e3d6000fd5b50600160006101000a81548173ffffffffffffffffffffffffffffffffffffffff021916908373ffffffffffffffffffffffffffffffffffffffff16021790555061008c565b6101a280610e8a83390190565b610def8061009b6000396000f3fe608060405234801561001057600080fd5b50600436106101425760003560e01c806373d2ea85116100b8578063aac014e01161007c578063aac014e01461028b578063b6bbe06114610295578063bad92aa91461029f578063e0a03812146102a9578063fe276a34146102c5578063ffb4746b146102e157610142565b806373d2ea851461022357806374afd4521461023f578063772f243a146102495780637c3cb0af146102535780638f9330301461026f57610142565b80634b5bbf6a1161010a5780634b5bbf6a146101c157806358a1d1ed146101cb5780635b94e31e146101d5578063622051f1146101df5780636f1fdc31146101e95780636fc588d21461020557610142565b80631b4f3f3d146101475780631f542cf3146101515780633ba4178b1461016d578063467e3d371461018957806347c56769146101a5575b600080fd5b61014f6102eb565b005b61016b60048036038101906101669190610a66565b61030f565b005b61018760048036038101906101829190610a12565b610360565b005b6101a3600480360381019061019e91906109a8565b61039f565b005b6101bf60048036038101906101ba919061097f565b6103e7565b005b6101c9610424565b005b6101d361046d565b005b6101dd61047a565b005b6101e76104b1565b005b61020360048036038101906101fe91906109a8565b610533565b005b61020d610592565b60405161021a9190610b8f565b60405180910390f35b61023d600480360381019061023891906109e9565b61059b565b005b6102476105ef565b005b610251610608565b005b61026d600480360381019061026891906109e9565b6106a3565b005b6102896004803603810190610284919061097f565b6106e0565b005b610293610734565b005b61029d610766565b005b6102a76107b4565b005b6102c360048036038101906102be9190610a66565b6107fd565b005b6102df60048036038101906102da9190610a12565b610865565b005b6102e96108bb565b005b6000808154809291906102fd90610cd3565b9190505550600061030d57600080fd5b565b6040518060400160405280838152602001828152506040517fdecab0e70000000000000000000000000000000000000000000000000000000081526004016103579190610b74565b60405180910390fd5b81816040517fa92ee8e3000000000000000000000000000000000000000000000000000000008152600401610396929190610baa565b60405180910390fd5b600081906103e3576040517f08c379a00000000000000000000000000000000000000000000000000000000081526004016103da9190610b52565b60405180910390fd5b5050565b806040517fcdd7a0cc00000000000000000000000000000000000000000000000000000000815260040161041b9190610b37565b60405180910390fd5b60008081548092919061043690610cd3565b91905055506040517fd2c097a600000000000000000000000000000000000000000000000000000000815260040160405180910390fd5b600061047857600080fd5b565b60006104af577f4e487b7100000000000000000000000000000000000000000000000000000000600052600160045260246000fd5b565b600160009054906101000a900473ffffffffffffffffffffffffffffffffffffffff1673ffffffffffffffffffffffffffffffffffffffff166340d83b246040518163ffffffff1660e01b815260040160006040518083038186803b15801561051957600080fd5b505afa15801561052d573d6000803e3d6000fd5b50505050565b60008081548092919061054590610cd3565b91905055506000819061058e576040517f08c379a00000000000000000000000000000000000000000000000000000000081526004016105859190610b52565b60405180910390fd5b5050565b60008054905090565b6000808154809291906105ad90610cd3565b9190505550806040517f01f4d5d20000000000000000000000000000000000000000000000000000000081526004016105e69190610b8f565b60405180910390fd5b60008081548092919061060190610cd3565b9190505550565b60008081548092919061061a90610cd3565b9190505550600160009054906101000a900473ffffffffffffffffffffffffffffffffffffffff1673ffffffffffffffffffffffffffffffffffffffff16634b2bd7e96040518163ffffffff1660e01b8152600401600060405180830381600087803b15801561068957600080fd5b505af115801561069d573d6000803e3d6000fd5b50505050565b806040517f01f4d5d20000000000000000000000000000000000000000000000000000000081526004016106d79190610b8f565b60405180910390fd5b6000808154809291906106f290610cd3565b9190505550806040517fcdd7a0cc00000000000000000000000000000000000000000000000000000000815260040161072b9190610b37565b60405180910390fd5b6040517fd2c097a600000000000000000000000000000000000000000000000000000000815260040160405180910390fd5b60008081548092919061077890610cd3565b919050555060006107b2577f4e487b7100000000000000000000000000000000000000000000000000000000600052600160045260246000fd5b565b6000808154809291906107c690610cd3565b91905055506040517f0bd3d39c00000000000000000000000000000000000000000000000000000000815260040160405180910390fd5b60008081548092919061080f90610cd3565b91905055506040518060400160405280838152602001828152506040517fdecab0e700000000000000000000000000000000000000000000000000000000815260040161085c9190610b74565b60405180910390fd5b60008081548092919061087790610cd3565b919050555081816040517fa92ee8e30000000000000000000000000000000000000000000000000000000081526004016108b2929190610baa565b60405180910390fd5b6040517f0bd3d39c00000000000000000000000000000000000000000000000000000000815260040160405180910390fd5b60006109006108fb84610bff565b610bda565b90508281526020810184848401111561091857600080fd5b610923848285610c60565b509392505050565b60008135905061093a81610d8b565b92915050565b600082601f83011261095157600080fd5b81356109618482602086016108ed565b91505092915050565b60008135905061097981610da2565b92915050565b60006020828403121561099157600080fd5b600061099f8482850161092b565b91505092915050565b6000602082840312156109ba57600080fd5b600082013567ffffffffffffffff8111156109d457600080fd5b6109e084828501610940565b91505092915050565b6000602082840312156109fb57600080fd5b6000610a098482850161096a565b91505092915050565b60008060408385031215610a2557600080fd5b6000610a338582860161096a565b925050602083013567ffffffffffffffff811115610a5057600080fd5b610a5c85828601610940565b9150509250929050565b60008060408385031215610a7957600080fd5b6000610a878582860161096a565b9250506020610a988582860161096a565b9150509250929050565b610aab81610c4c565b82525050565b6000610abc82610c30565b610ac68185610c3b565b9350610ad6818560208601610c6f565b610adf81610d7a565b840191505092915050565b604082016000820151610b006000850182610b19565b506020820151610b136020850182610b19565b50505050565b610b2281610c56565b82525050565b610b3181610c56565b82525050565b6000602082019050610b4c6000830184610aa2565b92915050565b60006020820190508181036000830152610b6c8184610ab1565b905092915050565b6000604082019050610b896000830184610aea565b92915050565b6000602082019050610ba46000830184610b28565b92915050565b6000604082019050610bbf6000830185610b28565b8181036020830152610bd18184610ab1565b90509392505050565b6000610be4610bf5565b9050610bf08282610ca2565b919050565b6000604051905090565b600067ffffffffffffffff821115610c1a57610c19610d4b565b5b610c2382610d7a565b9050602081019050919050565b600081519050919050565b600082825260208201905092915050565b6000819050919050565b6000819050919050565b82818337600083830152505050565b60005b83811015610c8d578082015181840152602081019050610c72565b83811115610c9c576000848401525b50505050565b610cab82610d7a565b810181811067ffffffffffffffff82111715610cca57610cc9610d4b565b5b80604052505050565b6000610cde82610c56565b91507fffffffffffffffffffffffffffffffffffffffffffffffffffffffffffffffff821415610d1157610d10610d1c565b5b600182019050919050565b7f4e487b7100000000000000000000000000000000000000000000000000000000600052601160045260246000fd5b7f4e487b7100000000000000000000000000000000000000000000000000000000600052604160045260246000fd5b6000601f19601f8301169050919050565b610d9481610c4c565b8114610d9f57600080fd5b50565b610dab81610c56565b8114610db657600080fd5b5056fea264697066735822122025e4c9eca28af81eeb16cfbb3832355e24c64c7eae221a5034159a671d61281464736f6c63430008040033608060405234801561001057600080fd5b50610182806100206000396000f3fe608060405234801561001057600080fd5b50600436106100365760003560e01c806340d83b241461003b5780634b2bd7e914610045575b600080fd5b61004361004f565b005b61004d610081565b005b6040517fff05e87500000000000000000000000000000000000000000000000000000000815260040160405180910390fd5b600080815480929190610093906100d4565b91905055506040517fff05e87500000000000000000000000000000000000000000000000000000000815260040160405180910390fd5b6000819050919050565b60006100df826100ca565b91507fffffffffffffffffffffffffffffffffffffffffffffffffffffffffffffffff8214156101125761011161011d565b5b600182019050919050565b7f4e487b7100000000000000000000000000000000000000000000000000000000600052601160045260246000fdfea2646970667358221220188b4117d3c1f35f2fcbff7fbf51ee28f08c8abd18e3796ccd1d2fbc8c862e3f64736f6c63430008040033","opcodes":"PUSH1 0x80 PUSH1 0x40 MSTORE CALLVALUE DUP1 ISZERO PUSH2 0x10 JUMPI PUSH1 0x0 DUP1 REVERT JUMPDEST POP PUSH1 0x40 MLOAD PUSH2 0x1D SWAP1 PUSH2 0x7F JUMP JUMPDEST PUSH1 0x40 MLOAD DUP1 SWAP2 SUB SWAP1 PUSH1 0x0 CREATE DUP1 ISZERO DUP1 ISZERO PUSH2 0x39 JUMPI RETURNDATASIZE PUSH1 0x0 DUP1 RETURNDATACOPY RETURNDATASIZE PUSH1 0x0 REVERT JUMPDEST POP PUSH1 0x1 PUSH1 0x0 PUSH2 0x100 EXP DUP2 SLOAD DUP2 PUSH20 0xFFFFFFFFFFFFFFFFFFFFFFFFFFFFFFFFFFFFFFFF MUL NOT AND SWAP1 DUP4 PUSH20 0xFFFFFFFFFFFFFFFFFFFFFFFFFFFFFFFFFFFFFFFF AND MUL OR SWAP1 SSTORE POP PUSH2 0x8C JUMP JUMPDEST PUSH2 0x1A2 DUP1 PUSH2 0xE8A DUP4 CODECOPY ADD SWAP1 JUMP JUMPDEST PUSH2 0xDEF DUP1 PUSH2 0x9B PUSH1 0x0 CODECOPY PUSH1 0x0 RETURN INVALID PUSH1 0x80 PUSH1 0x40 MSTORE CALLVALUE DUP1 ISZERO PUSH2 0x10 JUMPI PUSH1 0x0 DUP1 REVERT JUMPDEST POP PUSH1 0x4 CALLDATASIZE LT PUSH2 0x142 JUMPI PUSH1 0x0 CALLDATALOAD PUSH1 0xE0 SHR DUP1 PUSH4 0x73D2EA85 GT PUSH2 0xB8 JUMPI DUP1 PUSH4 0xAAC014E0 GT PUSH2 0x7C JUMPI DUP1 PUSH4 0xAAC014E0 EQ PUSH2 0x28B JUMPI DUP1 PUSH4 0xB6BBE061 EQ PUSH2 0x295 JUMPI DUP1 PUSH4 0xBAD92AA9 EQ PUSH2 0x29F JUMPI DUP1 PUSH4 0xE0A03812 EQ PUSH2 0x2A9 JUMPI DUP1 PUSH4 0xFE276A34 EQ PUSH2 0x2C5 JUMPI DUP1 PUSH4 0xFFB4746B EQ PUSH2 0x2E1 JUMPI PUSH2 0x142 JUMP JUMPDEST DUP1 PUSH4 0x73D2EA85 EQ PUSH2 0x223 JUMPI DUP1 PUSH4 0x74AFD452 EQ PUSH2 0x23F JUMPI DUP1 PUSH4 0x772F243A EQ PUSH2 0x249 JUMPI DUP1 PUSH4 0x7C3CB0AF EQ PUSH2 0x253 JUMPI DUP1 PUSH4 0x8F933030 EQ PUSH2 0x26F JUMPI PUSH2 0x142 JUMP JUMPDEST DUP1 PUSH4 0x4B5BBF6A GT PUSH2 0x10A JUMPI DUP1 PUSH4 0x4B5BBF6A EQ PUSH2 0x1C1 JUMPI DUP1 PUSH4 0x58A1D1ED EQ PUSH2 0x1CB JUMPI DUP1 PUSH4 0x5B94E31E EQ PUSH2 0x1D5 JUMPI DUP1 PUSH4 0x622051F1 EQ PUSH2 0x1DF JUMPI DUP1 PUSH4 0x6F1FDC31 EQ PUSH2 0x1E9 JUMPI DUP1 PUSH4 0x6FC588D2 EQ PUSH2 0x205 JUMPI PUSH2 0x142 JUMP JUMPDEST DUP1 PUSH4 0x1B4F3F3D EQ PUSH2 0x147 JUMPI DUP1 PUSH4 0x1F542CF3 EQ PUSH2 0x151 JUMPI DUP1 PUSH4 0x3BA4178B EQ PUSH2 0x16D JUMPI DUP1 PUSH4 0x467E3D37 EQ PUSH2 0x189 JUMPI DUP1 PUSH4 0x47C56769 EQ PUSH2 0x1A5 JUMPI JUMPDEST PUSH1 0x0 DUP1 REVERT JUMPDEST PUSH2 0x14F PUSH2 0x2EB JUMP JUMPDEST STOP JUMPDEST PUSH2 0x16B PUSH1 0x4 DUP1 CALLDATASIZE SUB DUP2 ADD SWAP1 PUSH2 0x166 SWAP2 SWAP1 PUSH2 0xA66 JUMP JUMPDEST PUSH2 0x30F JUMP JUMPDEST STOP JUMPDEST PUSH2 0x187 PUSH1 0x4 DUP1 CALLDATASIZE SUB DUP2 ADD SWAP1 PUSH2 0x182 SWAP2 SWAP1 PUSH2 0xA12 JUMP JUMPDEST PUSH2 0x360 JUMP JUMPDEST STOP JUMPDEST PUSH2 0x1A3 PUSH1 0x4 DUP1 CALLDATASIZE SUB DUP2 ADD SWAP1 PUSH2 0x19E SWAP2 SWAP1 PUSH2 0x9A8 JUMP JUMPDEST PUSH2 0x39F JUMP JUMPDEST STOP JUMPDEST PUSH2 0x1BF PUSH1 0x4 DUP1 CALLDATASIZE SUB DUP2 ADD SWAP1 PUSH2 0x1BA SWAP2 SWAP1 PUSH2 0x97F JUMP JUMPDEST PUSH2 0x3E7 JUMP JUMPDEST STOP JUMPDEST PUSH2 0x1C9 PUSH2 0x424 JUMP JUMPDEST STOP JUMPDEST PUSH2 0x1D3 PUSH2 0x46D JUMP JUMPDEST STOP JUMPDEST PUSH2 0x1DD PUSH2 0x47A JUMP JUMPDEST STOP JUMPDEST PUSH2 0x1E7 PUSH2 0x4B1 JUMP JUMPDEST STOP JUMPDEST PUSH2 0x203 PUSH1 0x4 DUP1 CALLDATASIZE SUB DUP2 ADD SWAP1 PUSH2 0x1FE SWAP2 SWAP1 PUSH2 0x9A8 JUMP JUMPDEST PUSH2 0x533 JUMP JUMPDEST STOP JUMPDEST PUSH2 0x20D PUSH2 0x592 JUMP JUMPDEST PUSH1 0x40 MLOAD PUSH2 0x21A SWAP2 SWAP1 PUSH2 0xB8F JUMP JUMPDEST PUSH1 0x40 MLOAD DUP1 SWAP2 SUB SWAP1 RETURN JUMPDEST PUSH2 0x23D PUSH1 0x4 DUP1 CALLDATASIZE SUB DUP2 ADD SWAP1 PUSH2 0x238 SWAP2 SWAP1 PUSH2 0x9E9 JUMP JUMPDEST PUSH2 0x59B JUMP JUMPDEST STOP JUMPDEST PUSH2 0x247 PUSH2 0x5EF JUMP JUMPDEST STOP JUMPDEST PUSH2 0x251 PUSH2 0x608 JUMP JUMPDEST STOP JUMPDEST PUSH2 0x26D PUSH1 0x4 DUP1 CALLDATASIZE SUB DUP2 ADD SWAP1 PUSH2 0x268 SWAP2 SWAP1 PUSH2 0x9E9 JUMP JUMPDEST PUSH2 0x6A3 JUMP JUMPDEST STOP JUMPDEST PUSH2 0x289 PUSH1 0x4 DUP1 CALLDATASIZE SUB DUP2 ADD SWAP1 PUSH2 0x284 SWAP2 SWAP1 PUSH2 0x97F JUMP JUMPDEST PUSH2 0x6E0 JUMP JUMPDEST STOP JUMPDEST PUSH2 0x293 PUSH2 0x734 JUMP JUMPDEST STOP JUMPDEST PUSH2 0x29D PUSH2 0x766 JUMP JUMPDEST STOP JUMPDEST PUSH2 0x2A7 PUSH2 0x7B4 JUMP JUMPDEST STOP JUMPDEST PUSH2 0x2C3 PUSH1 0x4 DUP1 CALLDATASIZE SUB DUP2 ADD SWAP1 PUSH2 0x2BE SWAP2 SWAP1 PUSH2 0xA66 JUMP JUMPDEST PUSH2 0x7FD JUMP JUMPDEST STOP JUMPDEST PUSH2 0x2DF PUSH1 0x4 DUP1 CALLDATASIZE SUB DUP2 ADD SWAP1 PUSH2 0x2DA SWAP2 SWAP1 PUSH2 0xA12 JUMP JUMPDEST PUSH2 0x865 JUMP JUMPDEST STOP JUMPDEST PUSH2 0x2E9 PUSH2 0x8BB JUMP JUMPDEST STOP JUMPDEST PUSH1 0x0 DUP1 DUP2 SLOAD DUP1 SWAP3 SWAP2 SWAP1 PUSH2 0x2FD SWAP1 PUSH2 0xCD3 JUMP JUMPDEST SWAP2 SWAP1 POP SSTORE POP PUSH1 0x0 PUSH2 0x30D JUMPI PUSH1 0x0 DUP1 REVERT JUMPDEST JUMP JUMPDEST PUSH1 0x40 MLOAD DUP1 PUSH1 0x40 ADD PUSH1 0x40 MSTORE DUP1 DUP4 DUP2 MSTORE PUSH1 0x20 ADD DUP3 DUP2 MSTORE POP PUSH1 0x40 MLOAD PUSH32 0xDECAB0E700000000000000000000000000000000000000000000000000000000 DUP2 MSTORE PUSH1 0x4 ADD PUSH2 0x357 SWAP2 SWAP1 PUSH2 0xB74 JUMP JUMPDEST PUSH1 0x40 MLOAD DUP1 SWAP2 SUB SWAP1 REVERT JUMPDEST DUP2 DUP2 PUSH1 0x40 MLOAD PUSH32 0xA92EE8E300000000000000000000000000000000000000000000000000000000 DUP2 MSTORE PUSH1 0x4 ADD PUSH2 0x396 SWAP3 SWAP2 SWAP1 PUSH2 0xBAA JUMP JUMPDEST PUSH1 0x40 MLOAD DUP1 SWAP2 SUB SWAP1 REVERT JUMPDEST PUSH1 0x0 DUP2 SWAP1 PUSH2 0x3E3 JUMPI PUSH1 0x40 MLOAD PUSH32 0x8C379A000000000000000000000000000000000000000000000000000000000 DUP2 MSTORE PUSH1 0x4 ADD PUSH2 0x3DA SWAP2 SWAP1 PUSH2 0xB52 JUMP JUMPDEST PUSH1 0x40 MLOAD DUP1 SWAP2 SUB SWAP1 REVERT JUMPDEST POP POP JUMP JUMPDEST DUP1 PUSH1 0x40 MLOAD PUSH32 0xCDD7A0CC00000000000000000000000000000000000000000000000000000000 DUP2 MSTORE PUSH1 0x4 ADD PUSH2 0x41B SWAP2 SWAP1 PUSH2 0xB37 JUMP JUMPDEST PUSH1 0x40 MLOAD DUP1 SWAP2 SUB SWAP1 REVERT JUMPDEST PUSH1 0x0 DUP1 DUP2 SLOAD DUP1 SWAP3 SWAP2 SWAP1 PUSH2 0x436 SWAP1 PUSH2 0xCD3 JUMP JUMPDEST SWAP2 SWAP1 POP SSTORE POP PUSH1 0x40 MLOAD PUSH32 0xD2C097A600000000000000000000000000000000000000000000000000000000 DUP2 MSTORE PUSH1 0x4 ADD PUSH1 0x40 MLOAD DUP1 SWAP2 SUB SWAP1 REVERT JUMPDEST PUSH1 0x0 PUSH2 0x478 JUMPI PUSH1 0x0 DUP1 REVERT JUMPDEST JUMP JUMPDEST PUSH1 0x0 PUSH2 0x4AF JUMPI PUSH32 0x4E487B7100000000000000000000000000000000000000000000000000000000 PUSH1 0x0 MSTORE PUSH1 0x1 PUSH1 0x4 MSTORE PUSH1 0x24 PUSH1 0x0 REVERT JUMPDEST JUMP JUMPDEST PUSH1 0x1 PUSH1 0x0 SWAP1 SLOAD SWAP1 PUSH2 0x100 EXP SWAP1 DIV PUSH20 0xFFFFFFFFFFFFFFFFFFFFFFFFFFFFFFFFFFFFFFFF AND PUSH20 0xFFFFFFFFFFFFFFFFFFFFFFFFFFFFFFFFFFFFFFFF AND PUSH4 0x40D83B24 PUSH1 0x40 MLOAD DUP2 PUSH4 0xFFFFFFFF AND PUSH1 0xE0 SHL DUP2 MSTORE PUSH1 0x4 ADD PUSH1 0x0 PUSH1 0x40 MLOAD DUP1 DUP4 SUB DUP2 DUP7 DUP1 EXTCODESIZE ISZERO DUP1 ISZERO PUSH2 0x519 JUMPI PUSH1 0x0 DUP1 REVERT JUMPDEST POP GAS STATICCALL ISZERO DUP1 ISZERO PUSH2 0x52D JUMPI RETURNDATASIZE PUSH1 0x0 DUP1 RETURNDATACOPY RETURNDATASIZE PUSH1 0x0 REVERT JUMPDEST POP POP POP POP JUMP JUMPDEST PUSH1 0x0 DUP1 DUP2 SLOAD DUP1 SWAP3 SWAP2 SWAP1 PUSH2 0x545 SWAP1 PUSH2 0xCD3 JUMP JUMPDEST SWAP2 SWAP1 POP SSTORE POP PUSH1 0x0 DUP2 SWAP1 PUSH2 0x58E JUMPI PUSH1 0x40 MLOAD PUSH32 0x8C379A000000000000000000000000000000000000000000000000000000000 DUP2 MSTORE PUSH1 0x4 ADD PUSH2 0x585 SWAP2 SWAP1 PUSH2 0xB52 JUMP JUMPDEST PUSH1 0x40 MLOAD DUP1 SWAP2 SUB SWAP1 REVERT JUMPDEST POP POP JUMP JUMPDEST PUSH1 0x0 DUP1 SLOAD SWAP1 POP SWAP1 JUMP JUMPDEST PUSH1 0x0 DUP1 DUP2 SLOAD DUP1 SWAP3 SWAP2 SWAP1 PUSH2 0x5AD SWAP1 PUSH2 0xCD3 JUMP JUMPDEST SWAP2 SWAP1 POP SSTORE POP DUP1 PUSH1 0x40 MLOAD PUSH32 0x1F4D5D200000000000000000000000000000000000000000000000000000000 DUP2 MSTORE PUSH1 0x4 ADD PUSH2 0x5E6 SWAP2 SWAP1 PUSH2 0xB8F JUMP JUMPDEST PUSH1 0x40 MLOAD DUP1 SWAP2 SUB SWAP1 REVERT JUMPDEST PUSH1 0x0 DUP1 DUP2 SLOAD DUP1 SWAP3 SWAP2 SWAP1 PUSH2 0x601 SWAP1 PUSH2 0xCD3 JUMP JUMPDEST SWAP2 SWAP1 POP SSTORE POP JUMP JUMPDEST PUSH1 0x0 DUP1 DUP2 SLOAD DUP1 SWAP3 SWAP2 SWAP1 PUSH2 0x61A SWAP1 PUSH2 0xCD3 JUMP JUMPDEST SWAP2 SWAP1 POP SSTORE POP PUSH1 0x1 PUSH1 0x0 SWAP1 SLOAD SWAP1 PUSH2 0x100 EXP SWAP1 DIV PUSH20 0xFFFFFFFFFFFFFFFFFFFFFFFFFFFFFFFFFFFFFFFF AND PUSH20 0xFFFFFFFFFFFFFFFFFFFFFFFFFFFFFFFFFFFFFFFF AND PUSH4 0x4B2BD7E9 PUSH1 0x40 MLOAD DUP2 PUSH4 0xFFFFFFFF AND PUSH1 0xE0 SHL DUP2 MSTORE PUSH1 0x4 ADD PUSH1 0x0 PUSH1 0x40 MLOAD DUP1 DUP4 SUB DUP2 PUSH1 0x0 DUP8 DUP1 EXTCODESIZE ISZERO DUP1 ISZERO PUSH2 0x689 JUMPI PUSH1 0x0 DUP1 REVERT JUMPDEST POP GAS CALL ISZERO DUP1 ISZERO PUSH2 0x69D JUMPI RETURNDATASIZE PUSH1 0x0 DUP1 RETURNDATACOPY RETURNDATASIZE PUSH1 0x0 REVERT JUMPDEST POP POP POP POP JUMP JUMPDEST DUP1 PUSH1 0x40 MLOAD PUSH32 0x1F4D5D200000000000000000000000000000000000000000000000000000000 DUP2 MSTORE PUSH1 0x4 ADD PUSH2 0x6D7 SWAP2 SWAP1 PUSH2 0xB8F JUMP JUMPDEST PUSH1 0x40 MLOAD DUP1 SWAP2 SUB SWAP1 REVERT JUMPDEST PUSH1 0x0 DUP1 DUP2 SLOAD DUP1 SWAP3 SWAP2 SWAP1 PUSH2 0x6F2 SWAP1 PUSH2 0xCD3 JUMP JUMPDEST SWAP2 SWAP1 POP SSTORE POP DUP1 PUSH1 0x40 MLOAD PUSH32 0xCDD7A0CC00000000000000000000000000000000000000000000000000000000 DUP2 MSTORE PUSH1 0x4 ADD PUSH2 0x72B SWAP2 SWAP1 PUSH2 0xB37 JUMP JUMPDEST PUSH1 0x40 MLOAD DUP1 SWAP2 SUB SWAP1 REVERT JUMPDEST PUSH1 0x40 MLOAD PUSH32 0xD2C097A600000000000000000000000000000000000000000000000000000000 DUP2 MSTORE PUSH1 0x4 ADD PUSH1 0x40 MLOAD DUP1 SWAP2 SUB SWAP1 REVERT JUMPDEST PUSH1 0x0 DUP1 DUP2 SLOAD DUP1 SWAP3 SWAP2 SWAP1 PUSH2 0x778 SWAP1 PUSH2 0xCD3 JUMP JUMPDEST SWAP2 SWAP1 POP SSTORE POP PUSH1 0x0 PUSH2 0x7B2 JUMPI PUSH32 0x4E487B7100000000000000000000000000000000000000000000000000000000 PUSH1 0x0 MSTORE PUSH1 0x1 PUSH1 0x4 MSTORE PUSH1 0x24 PUSH1 0x0 REVERT JUMPDEST JUMP JUMPDEST PUSH1 0x0 DUP1 DUP2 SLOAD DUP1 SWAP3 SWAP2 SWAP1 PUSH2 0x7C6 SWAP1 PUSH2 0xCD3 JUMP JUMPDEST SWAP2 SWAP1 POP SSTORE POP PUSH1 0x40 MLOAD PUSH32 0xBD3D39C00000000000000000000000000000000000000000000000000000000 DUP2 MSTORE PUSH1 0x4 ADD PUSH1 0x40 MLOAD DUP1 SWAP2 SUB SWAP1 REVERT JUMPDEST PUSH1 0x0 DUP1 DUP2 SLOAD DUP1 SWAP3 SWAP2 SWAP1 PUSH2 0x80F SWAP1 PUSH2 0xCD3 JUMP JUMPDEST SWAP2 SWAP1 POP SSTORE POP PUSH1 0x40 MLOAD DUP1 PUSH1 0x40 ADD PUSH1 0x40 MSTORE DUP1 DUP4 DUP2 MSTORE PUSH1 0x20 ADD DUP3 DUP2 MSTORE POP PUSH1 0x40 MLOAD PUSH32 0xDECAB0E700000000000000000000000000000000000000000000000000000000 DUP2 MSTORE PUSH1 0x4 ADD PUSH2 0x85C SWAP2 SWAP1 PUSH2 0xB74 JUMP JUMPDEST PUSH1 0x40 MLOAD DUP1 SWAP2 SUB SWAP1 REVERT JUMPDEST PUSH1 0x0 DUP1 DUP2 SLOAD DUP1 SWAP3 SWAP2 SWAP1 PUSH2 0x877 SWAP1 PUSH2 0xCD3 JUMP JUMPDEST SWAP2 SWAP1 POP SSTORE POP DUP2 DUP2 PUSH1 0x40 MLOAD PUSH32 0xA92EE8E300000000000000000000000000000000000000000000000000000000 DUP2 MSTORE PUSH1 0x4 ADD PUSH2 0x8B2 SWAP3 SWAP2 SWAP1 PUSH2 0xBAA JUMP JUMPDEST PUSH1 0x40 MLOAD DUP1 SWAP2 SUB SWAP1 REVERT JUMPDEST PUSH1 0x40 MLOAD PUSH32 0xBD3D39C00000000000000000000000000000000000000000000000000000000 DUP2 MSTORE PUSH1 0x4 ADD PUSH1 0x40 MLOAD DUP1 SWAP2 SUB SWAP1 REVERT JUMPDEST PUSH1 0x0 PUSH2 0x900 PUSH2 0x8FB DUP5 PUSH2 0xBFF JUMP JUMPDEST PUSH2 0xBDA JUMP JUMPDEST SWAP1 POP DUP3 DUP2 MSTORE PUSH1 0x20 DUP2 ADD DUP5 DUP5 DUP5 ADD GT ISZERO PUSH2 0x918 JUMPI PUSH1 0x0 DUP1 REVERT JUMPDEST PUSH2 0x923 DUP5 DUP3 DUP6 PUSH2 0xC60 JUMP JUMPDEST POP SWAP4 SWAP3 POP POP POP JUMP JUMPDEST PUSH1 0x0 DUP2 CALLDATALOAD SWAP1 POP PUSH2 0x93A DUP2 PUSH2 0xD8B JUMP JUMPDEST SWAP3 SWAP2 POP POP JUMP JUMPDEST PUSH1 0x0 DUP3 PUSH1 0x1F DUP4 ADD SLT PUSH2 0x951 JUMPI PUSH1 0x0 DUP1 REVERT JUMPDEST DUP2 CALLDATALOAD PUSH2 0x961 DUP5 DUP3 PUSH1 0x20 DUP7 ADD PUSH2 0x8ED JUMP JUMPDEST SWAP2 POP POP SWAP3 SWAP2 POP POP JUMP JUMPDEST PUSH1 0x0 DUP2 CALLDATALOAD SWAP1 POP PUSH2 0x979 DUP2 PUSH2 0xDA2 JUMP JUMPDEST SWAP3 SWAP2 POP POP JUMP JUMPDEST PUSH1 0x0 PUSH1 0x20 DUP3 DUP5 SUB SLT ISZERO PUSH2 0x991 JUMPI PUSH1 0x0 DUP1 REVERT JUMPDEST PUSH1 0x0 PUSH2 0x99F DUP5 DUP3 DUP6 ADD PUSH2 0x92B JUMP JUMPDEST SWAP2 POP POP SWAP3 SWAP2 POP POP JUMP JUMPDEST PUSH1 0x0 PUSH1 0x20 DUP3 DUP5 SUB SLT ISZERO PUSH2 0x9BA JUMPI PUSH1 0x0 DUP1 REVERT JUMPDEST PUSH1 0x0 DUP3 ADD CALLDATALOAD PUSH8 0xFFFFFFFFFFFFFFFF DUP2 GT ISZERO PUSH2 0x9D4 JUMPI PUSH1 0x0 DUP1 REVERT JUMPDEST PUSH2 0x9E0 DUP5 DUP3 DUP6 ADD PUSH2 0x940 JUMP JUMPDEST SWAP2 POP POP SWAP3 SWAP2 POP POP JUMP JUMPDEST PUSH1 0x0 PUSH1 0x20 DUP3 DUP5 SUB SLT ISZERO PUSH2 0x9FB JUMPI PUSH1 0x0 DUP1 REVERT JUMPDEST PUSH1 0x0 PUSH2 0xA09 DUP5 DUP3 DUP6 ADD PUSH2 0x96A JUMP JUMPDEST SWAP2 POP POP SWAP3 SWAP2 POP POP JUMP JUMPDEST PUSH1 0x0 DUP1 PUSH1 0x40 DUP4 DUP6 SUB SLT ISZERO PUSH2 0xA25 JUMPI PUSH1 0x0 DUP1 REVERT JUMPDEST PUSH1 0x0 PUSH2 0xA33 DUP6 DUP3 DUP7 ADD PUSH2 0x96A JUMP JUMPDEST SWAP3 POP POP PUSH1 0x20 DUP4 ADD CALLDATALOAD PUSH8 0xFFFFFFFFFFFFFFFF DUP2 GT ISZERO PUSH2 0xA50 JUMPI PUSH1 0x0 DUP1 REVERT JUMPDEST PUSH2 0xA5C DUP6 DUP3 DUP7 ADD PUSH2 0x940 JUMP JUMPDEST SWAP2 POP POP SWAP3 POP SWAP3 SWAP1 POP JUMP JUMPDEST PUSH1 0x0 DUP1 PUSH1 0x40 DUP4 DUP6 SUB SLT ISZERO PUSH2 0xA79 JUMPI PUSH1 0x0 DUP1 REVERT JUMPDEST PUSH1 0x0 PUSH2 0xA87 DUP6 DUP3 DUP7 ADD PUSH2 0x96A JUMP JUMPDEST SWAP3 POP POP PUSH1 0x20 PUSH2 0xA98 DUP6 DUP3 DUP7 ADD PUSH2 0x96A JUMP JUMPDEST SWAP2 POP POP SWAP3 POP SWAP3 SWAP1 POP JUMP JUMPDEST PUSH2 0xAAB DUP2 PUSH2 0xC4C JUMP JUMPDEST DUP3 MSTORE POP POP JUMP JUMPDEST PUSH1 0x0 PUSH2 0xABC DUP3 PUSH2 0xC30 JUMP JUMPDEST PUSH2 0xAC6 DUP2 DUP6 PUSH2 0xC3B JUMP JUMPDEST SWAP4 POP PUSH2 0xAD6 DUP2 DUP6 PUSH1 0x20 DUP7 ADD PUSH2 0xC6F JUMP JUMPDEST PUSH2 0xADF DUP2 PUSH2 0xD7A JUMP JUMPDEST DUP5 ADD SWAP2 POP POP SWAP3 SWAP2 POP POP JUMP JUMPDEST PUSH1 0x40 DUP3 ADD PUSH1 0x0 DUP3 ADD MLOAD PUSH2 0xB00 PUSH1 0x0 DUP6 ADD DUP3 PUSH2 0xB19 JUMP JUMPDEST POP PUSH1 0x20 DUP3 ADD MLOAD PUSH2 0xB13 PUSH1 0x20 DUP6 ADD DUP3 PUSH2 0xB19 JUMP JUMPDEST POP POP POP POP JUMP JUMPDEST PUSH2 0xB22 DUP2 PUSH2 0xC56 JUMP JUMPDEST DUP3 MSTORE POP POP JUMP JUMPDEST PUSH2 0xB31 DUP2 PUSH2 0xC56 JUMP JUMPDEST DUP3 MSTORE POP POP JUMP JUMPDEST PUSH1 0x0 PUSH1 0x20 DUP3 ADD SWAP1 POP PUSH2 0xB4C PUSH1 0x0 DUP4 ADD DUP5 PUSH2 0xAA2 JUMP JUMPDEST SWAP3 SWAP2 POP POP JUMP JUMPDEST PUSH1 0x0 PUSH1 0x20 DUP3 ADD SWAP1 POP DUP2 DUP2 SUB PUSH1 0x0 DUP4 ADD MSTORE PUSH2 0xB6C DUP2 DUP5 PUSH2 0xAB1 JUMP JUMPDEST SWAP1 POP SWAP3 SWAP2 POP POP JUMP JUMPDEST PUSH1 0x0 PUSH1 0x40 DUP3 ADD SWAP1 POP PUSH2 0xB89 PUSH1 0x0 DUP4 ADD DUP5 PUSH2 0xAEA JUMP JUMPDEST SWAP3 SWAP2 POP POP JUMP JUMPDEST PUSH1 0x0 PUSH1 0x20 DUP3 ADD SWAP1 POP PUSH2 0xBA4 PUSH1 0x0 DUP4 ADD DUP5 PUSH2 0xB28 JUMP JUMPDEST SWAP3 SWAP2 POP POP JUMP JUMPDEST PUSH1 0x0 PUSH1 0x40 DUP3 ADD SWAP1 POP PUSH2 0xBBF PUSH1 0x0 DUP4 ADD DUP6 PUSH2 0xB28 JUMP JUMPDEST DUP2 DUP2 SUB PUSH1 0x20 DUP4 ADD MSTORE PUSH2 0xBD1 DUP2 DUP5 PUSH2 0xAB1 JUMP JUMPDEST SWAP1 POP SWAP4 SWAP3 POP POP POP JUMP JUMPDEST PUSH1 0x0 PUSH2 0xBE4 PUSH2 0xBF5 JUMP JUMPDEST SWAP1 POP PUSH2 0xBF0 DUP3 DUP3 PUSH2 0xCA2 JUMP JUMPDEST SWAP2 SWAP1 POP JUMP JUMPDEST PUSH1 0x0 PUSH1 0x40 MLOAD SWAP1 POP SWAP1 JUMP JUMPDEST PUSH1 0x0 PUSH8 0xFFFFFFFFFFFFFFFF DUP3 GT ISZERO PUSH2 0xC1A JUMPI PUSH2 0xC19 PUSH2 0xD4B JUMP JUMPDEST JUMPDEST PUSH2 0xC23 DUP3 PUSH2 0xD7A JUMP JUMPDEST SWAP1 POP PUSH1 0x20 DUP2 ADD SWAP1 POP SWAP2 SWAP1 POP JUMP JUMPDEST PUSH1 0x0 DUP2 MLOAD SWAP1 POP SWAP2 SWAP1 POP JUMP JUMPDEST PUSH1 0x0 DUP3 DUP3 MSTORE PUSH1 0x20 DUP3 ADD SWAP1 POP SWAP3 SWAP2 POP POP JUMP JUMPDEST PUSH1 0x0 DUP2 SWAP1 POP SWAP2 SWAP1 POP JUMP JUMPDEST PUSH1 0x0 DUP2 SWAP1 POP SWAP2 SWAP1 POP JUMP JUMPDEST DUP3 DUP2 DUP4 CALLDATACOPY PUSH1 0x0 DUP4 DUP4 ADD MSTORE POP POP POP JUMP JUMPDEST PUSH1 0x0 JUMPDEST DUP4 DUP2 LT ISZERO PUSH2 0xC8D JUMPI DUP1 DUP3 ADD MLOAD DUP2 DUP5 ADD MSTORE PUSH1 0x20 DUP2 ADD SWAP1 POP PUSH2 0xC72 JUMP JUMPDEST DUP4 DUP2 GT ISZERO PUSH2 0xC9C JUMPI PUSH1 0x0 DUP5 DUP5 ADD MSTORE JUMPDEST POP POP POP POP JUMP JUMPDEST PUSH2 0xCAB DUP3 PUSH2 0xD7A JUMP JUMPDEST DUP2 ADD DUP2 DUP2 LT PUSH8 0xFFFFFFFFFFFFFFFF DUP3 GT OR ISZERO PUSH2 0xCCA JUMPI PUSH2 0xCC9 PUSH2 0xD4B JUMP JUMPDEST JUMPDEST DUP1 PUSH1 0x40 MSTORE POP POP POP JUMP JUMPDEST PUSH1 0x0 PUSH2 0xCDE DUP3 PUSH2 0xC56 JUMP JUMPDEST SWAP2 POP PUSH32 0xFFFFFFFFFFFFFFFFFFFFFFFFFFFFFFFFFFFFFFFFFFFFFFFFFFFFFFFFFFFFFFFF DUP3 EQ ISZERO PUSH2 0xD11 JUMPI PUSH2 0xD10 PUSH2 0xD1C JUMP JUMPDEST JUMPDEST PUSH1 0x1 DUP3 ADD SWAP1 POP SWAP2 SWAP1 POP JUMP JUMPDEST PUSH32 0x4E487B7100000000000000000000000000000000000000000000000000000000 PUSH1 0x0 MSTORE PUSH1 0x11 PUSH1 0x4 MSTORE PUSH1 0x24 PUSH1 0x0 REVERT JUMPDEST PUSH32 0x4E487B7100000000000000000000000000000000000000000000000000000000 PUSH1 0x0 MSTORE PUSH1 0x41 PUSH1 0x4 MSTORE PUSH1 0x24 PUSH1 0x0 REVERT JUMPDEST PUSH1 0x0 PUSH1 0x1F NOT PUSH1 0x1F DUP4 ADD AND SWAP1 POP SWAP2 SWAP1 POP JUMP JUMPDEST PUSH2 0xD94 DUP2 PUSH2 0xC4C JUMP JUMPDEST DUP2 EQ PUSH2 0xD9F JUMPI PUSH1 0x0 DUP1 REVERT JUMPDEST POP JUMP JUMPDEST PUSH2 0xDAB DUP2 PUSH2 0xC56 JUMP JUMPDEST DUP2 EQ PUSH2 0xDB6 JUMPI PUSH1 0x0 DUP1 REVERT JUMPDEST POP JUMP INVALID LOG2 PUSH5 0x6970667358 0x22 SLT KECCAK256 0x25 0xE4 0xC9 0xEC LOG2 DUP11 0xF8 0x1E 0xEB AND 0xCF 0xBB CODESIZE ORIGIN CALLDATALOAD 0x5E 0x24 0xC6 0x4C PUSH31 0xAE221A5034159A671D61281464736F6C634300080400336080604052348015 PUSH2 0x10 JUMPI PUSH1 0x0 DUP1 REVERT JUMPDEST POP PUSH2 0x182 DUP1 PUSH2 0x20 PUSH1 0x0 CODECOPY PUSH1 0x0 RETURN INVALID PUSH1 0x80 PUSH1 0x40 MSTORE CALLVALUE DUP1 ISZERO PUSH2 0x10 JUMPI PUSH1 0x0 DUP1 REVERT JUMPDEST POP PUSH1 0x4 CALLDATASIZE LT PUSH2 0x36 JUMPI PUSH1 0x0 CALLDATALOAD PUSH1 0xE0 SHR DUP1 PUSH4 0x40D83B24 EQ PUSH2 0x3B JUMPI DUP1 PUSH4 0x4B2BD7E9 EQ PUSH2 0x45 JUMPI JUMPDEST PUSH1 0x0 DUP1 REVERT JUMPDEST PUSH2 0x43 PUSH2 0x4F JUMP JUMPDEST STOP JUMPDEST PUSH2 0x4D PUSH2 0x81 JUMP JUMPDEST STOP JUMPDEST PUSH1 0x40 MLOAD PUSH32 0xFF05E87500000000000000000000000000000000000000000000000000000000 DUP2 MSTORE PUSH1 0x4 ADD PUSH1 0x40 MLOAD DUP1 SWAP2 SUB SWAP1 REVERT JUMPDEST PUSH1 0x0 DUP1 DUP2 SLOAD DUP1 SWAP3 SWAP2 SWAP1 PUSH2 0x93 SWAP1 PUSH2 0xD4 JUMP JUMPDEST SWAP2 SWAP1 POP SSTORE POP PUSH1 0x40 MLOAD PUSH32 0xFF05E87500000000000000000000000000000000000000000000000000000000 DUP2 MSTORE PUSH1 0x4 ADD PUSH1 0x40 MLOAD DUP1 SWAP2 SUB SWAP1 REVERT JUMPDEST PUSH1 0x0 DUP2 SWAP1 POP SWAP2 SWAP1 POP JUMP JUMPDEST PUSH1 0x0 PUSH2 0xDF DUP3 PUSH2 0xCA JUMP JUMPDEST SWAP2 POP PUSH32 0xFFFFFFFFFFFFFFFFFFFFFFFFFFFFFFFFFFFFFFFFFFFFFFFFFFFFFFFFFFFFFFFF DUP3 EQ ISZERO PUSH2 0x112 JUMPI PUSH2 0x111 PUSH2 0x11D JUMP JUMPDEST JUMPDEST PUSH1 0x1 DUP3 ADD SWAP1 POP SWAP2 SWAP1 POP JUMP JUMPDEST PUSH32 0x4E487B7100000000000000000000000000000000000000000000000000000000 PUSH1 0x0 MSTORE PUSH1 0x11 PUSH1 0x4 MSTORE PUSH1 0x24 PUSH1 0x0 REVERT INVALID LOG2 PUSH5 0x6970667358 0x22 SLT KECCAK256 XOR DUP12 COINBASE OR 0xD3 0xC1 RETURN 0x5F 0x2F 0xCB SELFDESTRUCT PUSH32 0xBF51EE28F08C8ABD18E3796CCD1D2FBC8C862E3F64736F6C6343000804003300 "},"methodIdentifiers":{"panicAssert()":"b6bbe061","panicAssertView()":"5b94e31e","revertWithAnotherContractCustomError()":"772f243a","revertWithAnotherContractCustomErrorView()":"622051f1","revertWithAnotherCustomError()":"4b5bbf6a","revertWithAnotherCustomErrorView()":"aac014e0","revertWithCustomErrorWithInt(int256)":"8f933030","revertWithCustomErrorWithIntView(int256)":"47c56769","revertWithCustomErrorWithPair(uint256,uint256)":"e0a03812","revertWithCustomErrorWithPairView(uint256,uint256)":"1f542cf3","revertWithCustomErrorWithUint(uint256)":"73d2ea85","revertWithCustomErrorWithUintAndString(uint256,string)":"fe276a34","revertWithCustomErrorWithUintAndStringView(uint256,string)":"3ba4178b","revertWithCustomErrorWithUintView(uint256)":"7c3cb0af","revertWithSomeCustomError()":"bad92aa9","revertWithSomeCustomErrorView()":"ffb4746b","revertsWith(string)":"6f1fdc31","revertsWithView(string)":"467e3d37","revertsWithoutReason()":"1b4f3f3d","revertsWithoutReasonView()":"58a1d1ed","succeeds()":"74afd452","succeedsView()":"6fc588d2"}}}}}