{"contracts/Events.sol":{"Events":{"abi":[{"inputs":[{"internalType":"contract AnotherContract","name":"c","type":"address"}],"stateMutability":"nonpayable","type":"constructor"},{"anonymous":false,"inputs":[{"indexed":false,"internalType":"address","name":"a","type":"address"}],"name":"WithAddressArg","type":"event"},{"anonymous":false,"inputs":[{"indexed":false,"internalType":"bytes32","name":"b","type":"bytes32"}],"name":"WithBytes32Arg","type":"event"},{"anonymous":false,"inputs":[{"indexed":false,"internalType":"bytes32[2]","name":"a","type":"bytes32[2]"}],"name":"WithBytes32Array","type":"event"},{"anonymous":false,"inputs":[{"indexed":false,"internalType":"bytes","name":"b","type":"bytes"}],"name":"WithBytesArg","type":"event"},{"anonymous":false,"inputs":[{"indexed":true,"internalType":"bytes32","name":"b","type":"bytes32"}],"name":"WithIndexedBytes32Arg","type":"event"},{"anonymous":false,"inputs":[{"indexed":true,"internalType":"bytes","name":"b","type":"bytes"}],"name":"WithIndexedBytesArg","type":"event"},{"anonymous":false,"inputs":[{"indexed":true,"internalType":"string","name":"s","type":"string"}],"name":"WithIndexedStringArg","type":"event"},{"anonymous":false,"inputs":[{"indexed":false,"internalType":"int256","name":"i","type":"int256"}],"name":"WithIntArg","type":"event"},{"anonymous":false,"inputs":[{"indexed":false,"internalType":"string","name":"s","type":"string"}],"name":"WithStringArg","type":"event"},{"anonymous":false,"inputs":[{"components":[{"internalType":"uint256","name":"u","type":"uint256"},{"internalType":"uint256","name":"v","type":"uint256"}],"indexed":false,"internalType":"struct Events.Struct","name":"s","type":"tuple"}],"name":"WithStructArg","type":"event"},{"anonymous":false,"inputs":[{"indexed":false,"internalType":"string","name":"s","type":"string"},{"indexed":false,"internalType":"string","name":"t","type":"string"}],"name":"WithTwoStringArgs","type":"event"},{"anonymous":false,"inputs":[{"indexed":false,"internalType":"uint256","name":"u","type":"uint256"},{"indexed":false,"internalType":"uint256","name":"v","type":"uint256"}],"name":"WithTwoUintArgs","type":"event"},{"anonymous":false,"inputs":[{"indexed":false,"internalType":"uint256","name":"u","type":"uint256"}],"name":"WithUintArg","type":"event"},{"anonymous":false,"inputs":[{"indexed":false,"internalType":"uint256[2]","name":"a","type":"uint256[2]"}],"name":"WithUintArray","type":"event"},{"anonymous":false,"inputs":[],"name":"WithoutArgs","type":"event"},{"inputs":[],"name":"doNotEmit","outputs":[],"stateMutability":"nonpayable","type":"function"},{"inputs":[{"internalType":"address","name":"a","type":"address"}],"name":"emitAddress","outputs":[],"stateMutability":"nonpayable","type":"function"},{"inputs":[{"internalType":"bytes","name":"b","type":"bytes"}],"name":"emitBytes","outputs":[],"stateMutability":"nonpayable","type":"function"},{"inputs":[{"internalType":"bytes32","name":"b","type":"bytes32"}],"name":"emitBytes32","outputs":[],"stateMutability":"nonpayable","type":"function"},{"inputs":[{"internalType":"bytes32","name":"b","type":"bytes32"},{"internalType":"bytes32","name":"c","type":"bytes32"}],"name":"emitBytes32Array","outputs":[],"stateMutability":"nonpayable","type":"function"},{"inputs":[{"internalType":"bytes","name":"b","type":"bytes"}],"name":"emitIndexedBytes","outputs":[],"stateMutability":"nonpayable","type":"function"},{"inputs":[{"internalType":"bytes32","name":"b","type":"bytes32"}],"name":"emitIndexedBytes32","outputs":[],"stateMutability":"nonpayable","type":"function"},{"inputs":[{"internalType":"string","name":"s","type":"string"}],"name":"emitIndexedString","outputs":[],"stateMutability":"nonpayable","type":"function"},{"inputs":[{"internalType":"int256","name":"i","type":"int256"}],"name":"emitInt","outputs":[],"stateMutability":"nonpayable","type":"function"},{"inputs":[{"internalType":"uint256","name":"u","type":"uint256"}],"name":"emitNestedUintFromAnotherContract","outputs":[],"stateMutability":"nonpayable","type":"function"},{"inputs":[{"internalType":"uint256","name":"u","type":"uint256"}],"name":"emitNestedUintFromSameContract","outputs":[],"stateMutability":"nonpayable","type":"function"},{"inputs":[{"internalType":"string","name":"s","type":"string"}],"name":"emitString","outputs":[],"stateMutability":"nonpayable","type":"function"},{"inputs":[{"internalType":"uint256","name":"u","type":"uint256"},{"internalType":"uint256","name":"v","type":"uint256"}],"name":"emitStruct","outputs":[],"stateMutability":"nonpayable","type":"function"},{"inputs":[{"internalType":"uint256","name":"u","type":"uint256"},{"internalType":"uint256","name":"v","type":"uint256"}],"name":"emitTwoUints","outputs":[],"stateMutability":"nonpayable","type":"function"},{"inputs":[{"internalType":"uint256","name":"u","type":"uint256"},{"internalType":"uint256","name":"v","type":"uint256"},{"internalType":"string","name":"s","type":"string"},{"internalType":"string","name":"t","type":"string"}],"name":"emitTwoUintsAndTwoStrings","outputs":[],"stateMutability":"nonpayable","type":"function"},{"inputs":[{"internalType":"uint256","name":"u","type":"uint256"}],"name":"emitUint","outputs":[],"stateMutability":"nonpayable","type":"function"},{"inputs":[{"internalType":"uint256","name":"u","type":"uint256"},{"internalType":"string","name":"s","type":"string"}],"name":"emitUintAndString","outputs":[],"stateMutability":"nonpayable","type":"function"},{"inputs":[{"internalType":"uint256","name":"u","type":"uint256"},{"internalType":"uint256","name":"v","type":"uint256"}],"name":"emitUintArray","outputs":[],"stateMutability":"nonpayable","type":"function"},{"inputs":[{"internalType":"uint256","name":"u","type":"uint256"},{"internalType":"uint256","name":"v","type":"uint256"}],"name":"emitUintTwice","outputs":[],"stateMutability":"nonpayable","type":"function"},{"inputs":[],"name":"emitWithoutArgs","outputs":[],"stateMutability":"nonpayable","type":"function"}],"evm":{"bytecode":{"linkReferences":{},"object":"60806040523480156200001157600080fd5b506040516200140d3803806200140d833981810160405281019062000037919062000095565b806000806101000a81548173ffffffffffffffffffffffffffffffffffffffff021916908373ffffffffffffffffffffffffffffffffffffffff1602179055505062000123565b6000815190506200008f8162000109565b92915050565b600060208284031215620000a857600080fd5b6000620000b8848285016200007e565b91505092915050565b6000620000ce82620000e9565b9050919050565b6000620000e282620000c1565b9050919050565b600073ffffffffffffffffffffffffffffffffffffffff82169050919050565b6200011481620000d5565b81146200012057600080fd5b50565b6112da80620001336000396000f3fe608060405234801561001057600080fd5b506004361061012c5760003560e01c80638a618191116100ad578063c76f063511610071578063c76f0635146102c3578063cc07e605146102df578063d3931e57146102fb578063db6cdf6814610317578063ec5c3ede146103215761012c565b80638a6181911461024957806390b37ea214610265578063919402441461026f5780639f31a2231461028b578063c0cd80e6146102a75761012c565b806333311ef3116100f457806333311ef3146101bd57806338393646146101d9578063443690a0146101f5578063532b9cce14610211578063813a8cf51461022d5761012c565b8063048858e5146101315780630c0c941a1461014d57806317aba537146101695780632536f127146101855780632785f8d6146101a1575b600080fd5b61014b600480360381019061014691906109f0565b61033d565b005b61016760048036038101906101629190610b7d565b61036d565b005b610183600480360381019061017e9190610b7d565b6103df565b005b61019f600480360381019061019a9190610abf565b61042e565b005b6101bb60048036038101906101b69190610b29565b610468565b005b6101d760048036038101906101d291906109f0565b6104da565b005b6101f360048036038101906101ee9190610b7d565b610514565b005b61020f600480360381019061020a9190610abf565b610551565b005b61022b60048036038101906102269190610bb9565b610596565b005b61024760048036038101906102429190610b00565b61060e565b005b610263600480360381019061025e9190610a96565b61061a565b005b61026d610654565b005b61028960048036038101906102849190610b00565b610682565b005b6102a560048036038101906102a09190610b7d565b6106bc565b005b6102c160048036038101906102bc9190610a19565b61070b565b005b6102dd60048036038101906102d89190610a55565b61075a565b005b6102f960048036038101906102f49190610a55565b610794565b005b61031560048036038101906103109190610b00565b6107d9565b005b61031f610867565b005b61033b600480360381019061033691906109c7565b610869565b005b807fb421ad092cfce88844bfbfaa9654e824ba0ee5b6b0a220f822406b62c05364c060405160405180910390a250565b7f97535d4b4270d3f1a499c85ae918ba6798cbdcc83a26529331a25dcd2194cfce8260405161039c9190610fd2565b60405180910390a17f97535d4b4270d3f1a499c85ae918ba6798cbdcc83a26529331a25dcd2194cfce816040516103d39190610fd2565b60405180910390a15050565b7f73e687a2685d698f7acf934b4929a29ae783a4bcb640d71c5d6994d74e2380ca6040518060400160405280848152602001838152506040516104229190610eeb565b60405180910390a15050565b7f9b7ddcbde8dac280e036f87acafec72f9eee31a640c08087e8439139c7e5b52a8160405161045d9190610f5e565b60405180910390a150565b7f9b7ddcbde8dac280e036f87acafec72f9eee31a640c08087e8439139c7e5b52a816040516104979190610f5e565b60405180910390a17f97535d4b4270d3f1a499c85ae918ba6798cbdcc83a26529331a25dcd2194cfce826040516104ce9190610fd2565b60405180910390a15050565b7f425517d2678bbca3c0d9d8d9fdbec34c81194e7935ed48a6a19f97db93bcef6a816040516105099190610f06565b60405180910390a150565b7f8b268bb46a33a55bece084a8b6858719c9f2985c860fa06c155a341df0b73c0e8282604051610545929190610fed565b60405180910390a15050565b8060405161055f9190610e9e565b60405180910390207fd9ca28363e2d8739e0e9c4fea1d2df98d1bd7d9d915d00e5fccbf78c0fddcdb060405160405180910390a250565b7f8b268bb46a33a55bece084a8b6858719c9f2985c860fa06c155a341df0b73c0e84846040516105c7929190610fed565b60405180910390a17f1f1a2c748505fcd8f16a719fa88d517b1b41111c4f5e07bb28311cdc4d1515388282604051610600929190610f80565b60405180910390a150505050565b61061781610682565b50565b7f39feab747bb4f579008aea963d7ebac85ad410bb83ee663a42af01464654e93f816040516106499190610f43565b60405180910390a150565b7f917b7bf7ab24d61500cb699921a3a1cc22b8833da6484fea20f262b2610604af60405160405180910390a1565b7f97535d4b4270d3f1a499c85ae918ba6798cbdcc83a26529331a25dcd2194cfce816040516106b19190610fd2565b60405180910390a150565b7fd59ab87bf64b9d737998f3dc70c649d16b135f085029c1666ca0634beb75a7736040518060400160405280848152602001838152506040516106ff9190610fb7565b60405180910390a15050565b7f15100859f3ffe92910dc3f11ed3db4e9cf32ff657c05066e44be4e69b2b488bc60405180604001604052808481526020018381525060405161074e9190610ed0565b60405180910390a15050565b7f433470edcdd53b50238be4d8e048e2baa269af5be2a4e29515c138883c745aa8816040516107899190610f21565b60405180910390a150565b806040516107a29190610e87565b60405180910390207f160e4655df40987951accf7c731d5c504f77d20c139bd73032821b91a426dd9860405160405180910390a250565b60008054906101000a900473ffffffffffffffffffffffffffffffffffffffff1673ffffffffffffffffffffffffffffffffffffffff166391940244826040518263ffffffff1660e01b81526004016108329190610fd2565b600060405180830381600087803b15801561084c57600080fd5b505af1158015610860573d6000803e3d6000fd5b5050505050565b565b7f336bcd960d2e5a52cef6094ba33727f309dc2c675eebefc6d9b6b6d79abac877816040516108989190610eb5565b60405180910390a150565b60006108b66108b18461103b565b611016565b9050828152602081018484840111156108ce57600080fd5b6108d9848285611195565b509392505050565b60006108f46108ef8461106c565b611016565b90508281526020810184848401111561090c57600080fd5b610917848285611195565b509392505050565b60008135905061092e81611248565b92915050565b6000813590506109438161125f565b92915050565b600082601f83011261095a57600080fd5b813561096a8482602086016108a3565b91505092915050565b60008135905061098281611276565b92915050565b600082601f83011261099957600080fd5b81356109a98482602086016108e1565b91505092915050565b6000813590506109c18161128d565b92915050565b6000602082840312156109d957600080fd5b60006109e78482850161091f565b91505092915050565b600060208284031215610a0257600080fd5b6000610a1084828501610934565b91505092915050565b60008060408385031215610a2c57600080fd5b6000610a3a85828601610934565b9250506020610a4b85828601610934565b9150509250929050565b600060208284031215610a6757600080fd5b600082013567ffffffffffffffff811115610a8157600080fd5b610a8d84828501610949565b91505092915050565b600060208284031215610aa857600080fd5b6000610ab684828501610973565b91505092915050565b600060208284031215610ad157600080fd5b600082013567ffffffffffffffff811115610aeb57600080fd5b610af784828501610988565b91505092915050565b600060208284031215610b1257600080fd5b6000610b20848285016109b2565b91505092915050565b60008060408385031215610b3c57600080fd5b6000610b4a858286016109b2565b925050602083013567ffffffffffffffff811115610b6757600080fd5b610b7385828601610988565b9150509250929050565b60008060408385031215610b9057600080fd5b6000610b9e858286016109b2565b9250506020610baf858286016109b2565b9150509250929050565b60008060008060808587031215610bcf57600080fd5b6000610bdd878288016109b2565b9450506020610bee878288016109b2565b935050604085013567ffffffffffffffff811115610c0b57600080fd5b610c1787828801610988565b925050606085013567ffffffffffffffff811115610c3457600080fd5b610c4087828801610988565b91505092959194509250565b6000610c588383610d39565b60208301905092915050565b6000610c708383610e69565b60208301905092915050565b610c8581611145565b82525050565b610c94816110b1565b610c9e81846110f7565b9250610ca98261109d565b8060005b83811015610cda578151610cc18782610c4c565b9650610ccc836110dd565b925050600181019050610cad565b505050505050565b610ceb816110bc565b610cf58184611102565b9250610d00826110a7565b8060005b83811015610d31578151610d188782610c64565b9650610d23836110ea565b925050600181019050610d04565b505050505050565b610d4281611157565b82525050565b610d5181611157565b82525050565b6000610d62826110c7565b610d6c818561110d565b9350610d7c8185602086016111a4565b610d8581611237565b840191505092915050565b6000610d9b826110c7565b610da5818561111e565b9350610db58185602086016111a4565b80840191505092915050565b610dca81611161565b82525050565b6000610ddb826110d2565b610de58185611129565b9350610df58185602086016111a4565b610dfe81611237565b840191505092915050565b6000610e14826110d2565b610e1e818561113a565b9350610e2e8185602086016111a4565b80840191505092915050565b604082016000820151610e506000850182610e69565b506020820151610e636020850182610e69565b50505050565b610e728161118b565b82525050565b610e818161118b565b82525050565b6000610e938284610d90565b915081905092915050565b6000610eaa8284610e09565b915081905092915050565b6000602082019050610eca6000830184610c7c565b92915050565b6000604082019050610ee56000830184610c8b565b92915050565b6000604082019050610f006000830184610ce2565b92915050565b6000602082019050610f1b6000830184610d48565b92915050565b60006020820190508181036000830152610f3b8184610d57565b905092915050565b6000602082019050610f586000830184610dc1565b92915050565b60006020820190508181036000830152610f788184610dd0565b905092915050565b60006040820190508181036000830152610f9a8185610dd0565b90508181036020830152610fae8184610dd0565b90509392505050565b6000604082019050610fcc6000830184610e3a565b92915050565b6000602082019050610fe76000830184610e78565b92915050565b60006040820190506110026000830185610e78565b61100f6020830184610e78565b9392505050565b6000611020611031565b905061102c82826111d7565b919050565b6000604051905090565b600067ffffffffffffffff82111561105657611055611208565b5b61105f82611237565b9050602081019050919050565b600067ffffffffffffffff82111561108757611086611208565b5b61109082611237565b9050602081019050919050565b6000819050919050565b6000819050919050565b600060029050919050565b600060029050919050565b600081519050919050565b600081519050919050565b6000602082019050919050565b6000602082019050919050565b600081905092915050565b600081905092915050565b600082825260208201905092915050565b600081905092915050565b600082825260208201905092915050565b600081905092915050565b60006111508261116b565b9050919050565b6000819050919050565b6000819050919050565b600073ffffffffffffffffffffffffffffffffffffffff82169050919050565b6000819050919050565b82818337600083830152505050565b60005b838110156111c25780820151818401526020810190506111a7565b838111156111d1576000848401525b50505050565b6111e082611237565b810181811067ffffffffffffffff821117156111ff576111fe611208565b5b80604052505050565b7f4e487b7100000000000000000000000000000000000000000000000000000000600052604160045260246000fd5b6000601f19601f8301169050919050565b61125181611145565b811461125c57600080fd5b50565b61126881611157565b811461127357600080fd5b50565b61127f81611161565b811461128a57600080fd5b50565b6112968161118b565b81146112a157600080fd5b5056fea264697066735822122073a91a740c0de3883c5213c5981d98d2396a8b60b3cf2fb364d7e4cc826a841e64736f6c63430008040033","opcodes":"PUSH1 0x80 PUSH1 0x40 MSTORE CALLVALUE DUP1 ISZERO PUSH3 0x11 JUMPI PUSH1 0x0 DUP1 REVERT JUMPDEST POP PUSH1 0x40 MLOAD PUSH3 0x140D CODESIZE SUB DUP1 PUSH3 0x140D DUP4 CODECOPY DUP2 DUP2 ADD PUSH1 0x40 MSTORE DUP2 ADD SWAP1 PUSH3 0x37 SWAP2 SWAP1 PUSH3 0x95 JUMP JUMPDEST DUP1 PUSH1 0x0 DUP1 PUSH2 0x100 EXP DUP2 SLOAD DUP2 PUSH20 0xFFFFFFFFFFFFFFFFFFFFFFFFFFFFFFFFFFFFFFFF MUL NOT AND SWAP1 DUP4 PUSH20 0xFFFFFFFFFFFFFFFFFFFFFFFFFFFFFFFFFFFFFFFF AND MUL OR SWAP1 SSTORE POP POP PUSH3 0x123 JUMP JUMPDEST PUSH1 0x0 DUP2 MLOAD SWAP1 POP PUSH3 0x8F DUP2 PUSH3 0x109 JUMP JUMPDEST SWAP3 SWAP2 POP POP JUMP JUMPDEST PUSH1 0x0 PUSH1 0x20 DUP3 DUP5 SUB SLT ISZERO PUSH3 0xA8 JUMPI PUSH1 0x0 DUP1 REVERT JUMPDEST PUSH1 0x0 PUSH3 0xB8 DUP5 DUP3 DUP6 ADD PUSH3 0x7E JUMP JUMPDEST SWAP2 POP POP SWAP3 SWAP2 POP POP JUMP JUMPDEST PUSH1 0x0 PUSH3 0xCE DUP3 PUSH3 0xE9 JUMP JUMPDEST SWAP1 POP SWAP2 SWAP1 POP JUMP JUMPDEST PUSH1 0x0 PUSH3 0xE2 DUP3 PUSH3 0xC1 JUMP JUMPDEST SWAP1 POP SWAP2 SWAP1 POP JUMP JUMPDEST PUSH1 0x0 PUSH20 0xFFFFFFFFFFFFFFFFFFFFFFFFFFFFFFFFFFFFFFFF DUP3 AND SWAP1 POP SWAP2 SWAP1 POP JUMP JUMPDEST PUSH3 0x114 DUP2 PUSH3 0xD5 JUMP JUMPDEST DUP2 EQ PUSH3 0x120 JUMPI PUSH1 0x0 DUP1 REVERT JUMPDEST POP JUMP JUMPDEST PUSH2 0x12DA DUP1 PUSH3 0x133 PUSH1 0x0 CODECOPY PUSH1 0x0 RETURN INVALID PUSH1 0x80 PUSH1 0x40 MSTORE CALLVALUE DUP1 ISZERO PUSH2 0x10 JUMPI PUSH1 0x0 DUP1 REVERT JUMPDEST POP PUSH1 0x4 CALLDATASIZE LT PUSH2 0x12C JUMPI PUSH1 0x0 CALLDATALOAD PUSH1 0xE0 SHR DUP1 PUSH4 0x8A618191 GT PUSH2 0xAD JUMPI DUP1 PUSH4 0xC76F0635 GT PUSH2 0x71 JUMPI DUP1 PUSH4 0xC76F0635 EQ PUSH2 0x2C3 JUMPI DUP1 PUSH4 0xCC07E605 EQ PUSH2 0x2DF JUMPI DUP1 PUSH4 0xD3931E57 EQ PUSH2 0x2FB JUMPI DUP1 PUSH4 0xDB6CDF68 EQ PUSH2 0x317 JUMPI DUP1 PUSH4 0xEC5C3EDE EQ PUSH2 0x321 JUMPI PUSH2 0x12C JUMP JUMPDEST DUP1 PUSH4 0x8A618191 EQ PUSH2 0x249 JUMPI DUP1 PUSH4 0x90B37EA2 EQ PUSH2 0x265 JUMPI DUP1 PUSH4 0x91940244 EQ PUSH2 0x26F JUMPI DUP1 PUSH4 0x9F31A223 EQ PUSH2 0x28B JUMPI DUP1 PUSH4 0xC0CD80E6 EQ PUSH2 0x2A7 JUMPI PUSH2 0x12C JUMP JUMPDEST DUP1 PUSH4 0x33311EF3 GT PUSH2 0xF4 JUMPI DUP1 PUSH4 0x33311EF3 EQ PUSH2 0x1BD JUMPI DUP1 PUSH4 0x38393646 EQ PUSH2 0x1D9 JUMPI DUP1 PUSH4 0x443690A0 EQ PUSH2 0x1F5 JUMPI DUP1 PUSH4 0x532B9CCE EQ PUSH2 0x211 JUMPI DUP1 PUSH4 0x813A8CF5 EQ PUSH2 0x22D JUMPI PUSH2 0x12C JUMP JUMPDEST DUP1 PUSH4 0x48858E5 EQ PUSH2 0x131 JUMPI DUP1 PUSH4 0xC0C941A EQ PUSH2 0x14D JUMPI DUP1 PUSH4 0x17ABA537 EQ PUSH2 0x169 JUMPI DUP1 PUSH4 0x2536F127 EQ PUSH2 0x185 JUMPI DUP1 PUSH4 0x2785F8D6 EQ PUSH2 0x1A1 JUMPI JUMPDEST PUSH1 0x0 DUP1 REVERT JUMPDEST PUSH2 0x14B PUSH1 0x4 DUP1 CALLDATASIZE SUB DUP2 ADD SWAP1 PUSH2 0x146 SWAP2 SWAP1 PUSH2 0x9F0 JUMP JUMPDEST PUSH2 0x33D JUMP JUMPDEST STOP JUMPDEST PUSH2 0x167 PUSH1 0x4 DUP1 CALLDATASIZE SUB DUP2 ADD SWAP1 PUSH2 0x162 SWAP2 SWAP1 PUSH2 0xB7D JUMP JUMPDEST PUSH2 0x36D JUMP JUMPDEST STOP JUMPDEST PUSH2 0x183 PUSH1 0x4 DUP1 CALLDATASIZE SUB DUP2 ADD SWAP1 PUSH2 0x17E SWAP2 SWAP1 PUSH2 0xB7D JUMP JUMPDEST PUSH2 0x3DF JUMP JUMPDEST STOP JUMPDEST PUSH2 0x19F PUSH1 0x4 DUP1 CALLDATASIZE SUB DUP2 ADD SWAP1 PUSH2 0x19A SWAP2 SWAP1 PUSH2 0xABF JUMP JUMPDEST PUSH2 0x42E JUMP JUMPDEST STOP JUMPDEST PUSH2 0x1BB PUSH1 0x4 DUP1 CALLDATASIZE SUB DUP2 ADD SWAP1 PUSH2 0x1B6 SWAP2 SWAP1 PUSH2 0xB29 JUMP JUMPDEST PUSH2 0x468 JUMP JUMPDEST STOP JUMPDEST PUSH2 0x1D7 PUSH1 0x4 DUP1 CALLDATASIZE SUB DUP2 ADD SWAP1 PUSH2 0x1D2 SWAP2 SWAP1 PUSH2 0x9F0 JUMP JUMPDEST PUSH2 0x4DA JUMP JUMPDEST STOP JUMPDEST PUSH2 0x1F3 PUSH1 0x4 DUP1 CALLDATASIZE SUB DUP2 ADD SWAP1 PUSH2 0x1EE SWAP2 SWAP1 PUSH2 0xB7D JUMP JUMPDEST PUSH2 0x514 JUMP JUMPDEST STOP JUMPDEST PUSH2 0x20F PUSH1 0x4 DUP1 CALLDATASIZE SUB DUP2 ADD SWAP1 PUSH2 0x20A SWAP2 SWAP1 PUSH2 0xABF JUMP JUMPDEST PUSH2 0x551 JUMP JUMPDEST STOP JUMPDEST PUSH2 0x22B PUSH1 0x4 DUP1 CALLDATASIZE SUB DUP2 ADD SWAP1 PUSH2 0x226 SWAP2 SWAP1 PUSH2 0xBB9 JUMP JUMPDEST PUSH2 0x596 JUMP JUMPDEST STOP JUMPDEST PUSH2 0x247 PUSH1 0x4 DUP1 CALLDATASIZE SUB DUP2 ADD SWAP1 PUSH2 0x242 SWAP2 SWAP1 PUSH2 0xB00 JUMP JUMPDEST PUSH2 0x60E JUMP JUMPDEST STOP JUMPDEST PUSH2 0x263 PUSH1 0x4 DUP1 CALLDATASIZE SUB DUP2 ADD SWAP1 PUSH2 0x25E SWAP2 SWAP1 PUSH2 0xA96 JUMP JUMPDEST PUSH2 0x61A JUMP JUMPDEST STOP JUMPDEST PUSH2 0x26D PUSH2 0x654 JUMP JUMPDEST STOP JUMPDEST PUSH2 0x289 PUSH1 0x4 DUP1 CALLDATASIZE SUB DUP2 ADD SWAP1 PUSH2 0x284 SWAP2 SWAP1 PUSH2 0xB00 JUMP JUMPDEST PUSH2 0x682 JUMP JUMPDEST STOP JUMPDEST PUSH2 0x2A5 PUSH1 0x4 DUP1 CALLDATASIZE SUB DUP2 ADD SWAP1 PUSH2 0x2A0 SWAP2 SWAP1 PUSH2 0xB7D JUMP JUMPDEST PUSH2 0x6BC JUMP JUMPDEST STOP JUMPDEST PUSH2 0x2C1 PUSH1 0x4 DUP1 CALLDATASIZE SUB DUP2 ADD SWAP1 PUSH2 0x2BC SWAP2 SWAP1 PUSH2 0xA19 JUMP JUMPDEST PUSH2 0x70B JUMP JUMPDEST STOP JUMPDEST PUSH2 0x2DD PUSH1 0x4 DUP1 CALLDATASIZE SUB DUP2 ADD SWAP1 PUSH2 0x2D8 SWAP2 SWAP1 PUSH2 0xA55 JUMP JUMPDEST PUSH2 0x75A JUMP JUMPDEST STOP JUMPDEST PUSH2 0x2F9 PUSH1 0x4 DUP1 CALLDATASIZE SUB DUP2 ADD SWAP1 PUSH2 0x2F4 SWAP2 SWAP1 PUSH2 0xA55 JUMP JUMPDEST PUSH2 0x794 JUMP JUMPDEST STOP JUMPDEST PUSH2 0x315 PUSH1 0x4 DUP1 CALLDATASIZE SUB DUP2 ADD SWAP1 PUSH2 0x310 SWAP2 SWAP1 PUSH2 0xB00 JUMP JUMPDEST PUSH2 0x7D9 JUMP JUMPDEST STOP JUMPDEST PUSH2 0x31F PUSH2 0x867 JUMP JUMPDEST STOP JUMPDEST PUSH2 0x33B PUSH1 0x4 DUP1 CALLDATASIZE SUB DUP2 ADD SWAP1 PUSH2 0x336 SWAP2 SWAP1 PUSH2 0x9C7 JUMP JUMPDEST PUSH2 0x869 JUMP JUMPDEST STOP JUMPDEST DUP1 PUSH32 0xB421AD092CFCE88844BFBFAA9654E824BA0EE5B6B0A220F822406B62C05364C0 PUSH1 0x40 MLOAD PUSH1 0x40 MLOAD DUP1 SWAP2 SUB SWAP1 LOG2 POP JUMP JUMPDEST PUSH32 0x97535D4B4270D3F1A499C85AE918BA6798CBDCC83A26529331A25DCD2194CFCE DUP3 PUSH1 0x40 MLOAD PUSH2 0x39C SWAP2 SWAP1 PUSH2 0xFD2 JUMP JUMPDEST PUSH1 0x40 MLOAD DUP1 SWAP2 SUB SWAP1 LOG1 PUSH32 0x97535D4B4270D3F1A499C85AE918BA6798CBDCC83A26529331A25DCD2194CFCE DUP2 PUSH1 0x40 MLOAD PUSH2 0x3D3 SWAP2 SWAP1 PUSH2 0xFD2 JUMP JUMPDEST PUSH1 0x40 MLOAD DUP1 SWAP2 SUB SWAP1 LOG1 POP POP JUMP JUMPDEST PUSH32 0x73E687A2685D698F7ACF934B4929A29AE783A4BCB640D71C5D6994D74E2380CA PUSH1 0x40 MLOAD DUP1 PUSH1 0x40 ADD PUSH1 0x40 MSTORE DUP1 DUP5 DUP2 MSTORE PUSH1 0x20 ADD DUP4 DUP2 MSTORE POP PUSH1 0x40 MLOAD PUSH2 0x422 SWAP2 SWAP1 PUSH2 0xEEB JUMP JUMPDEST PUSH1 0x40 MLOAD DUP1 SWAP2 SUB SWAP1 LOG1 POP POP JUMP JUMPDEST PUSH32 0x9B7DDCBDE8DAC280E036F87ACAFEC72F9EEE31A640C08087E8439139C7E5B52A DUP2 PUSH1 0x40 MLOAD PUSH2 0x45D SWAP2 SWAP1 PUSH2 0xF5E JUMP JUMPDEST PUSH1 0x40 MLOAD DUP1 SWAP2 SUB SWAP1 LOG1 POP JUMP JUMPDEST PUSH32 0x9B7DDCBDE8DAC280E036F87ACAFEC72F9EEE31A640C08087E8439139C7E5B52A DUP2 PUSH1 0x40 MLOAD PUSH2 0x497 SWAP2 SWAP1 PUSH2 0xF5E JUMP JUMPDEST PUSH1 0x40 MLOAD DUP1 SWAP2 SUB SWAP1 LOG1 PUSH32 0x97535D4B4270D3F1A499C85AE918BA6798CBDCC83A26529331A25DCD2194CFCE DUP3 PUSH1 0x40 MLOAD PUSH2 0x4CE SWAP2 SWAP1 PUSH2 0xFD2 JUMP JUMPDEST PUSH1 0x40 MLOAD DUP1 SWAP2 SUB SWAP1 LOG1 POP POP JUMP JUMPDEST PUSH32 0x425517D2678BBCA3C0D9D8D9FDBEC34C81194E7935ED48A6A19F97DB93BCEF6A DUP2 PUSH1 0x40 MLOAD PUSH2 0x509 SWAP2 SWAP1 PUSH2 0xF06 JUMP JUMPDEST PUSH1 0x40 MLOAD DUP1 SWAP2 SUB SWAP1 LOG1 POP JUMP JUMPDEST PUSH32 0x8B268BB46A33A55BECE084A8B6858719C9F2985C860FA06C155A341DF0B73C0E DUP3 DUP3 PUSH1 0x40 MLOAD PUSH2 0x545 SWAP3 SWAP2 SWAP1 PUSH2 0xFED JUMP JUMPDEST PUSH1 0x40 MLOAD DUP1 SWAP2 SUB SWAP1 LOG1 POP POP JUMP JUMPDEST DUP1 PUSH1 0x40 MLOAD PUSH2 0x55F SWAP2 SWAP1 PUSH2 0xE9E JUMP JUMPDEST PUSH1 0x40 MLOAD DUP1 SWAP2 SUB SWAP1 KECCAK256 PUSH32 0xD9CA28363E2D8739E0E9C4FEA1D2DF98D1BD7D9D915D00E5FCCBF78C0FDDCDB0 PUSH1 0x40 MLOAD PUSH1 0x40 MLOAD DUP1 SWAP2 SUB SWAP1 LOG2 POP JUMP JUMPDEST PUSH32 0x8B268BB46A33A55BECE084A8B6858719C9F2985C860FA06C155A341DF0B73C0E DUP5 DUP5 PUSH1 0x40 MLOAD PUSH2 0x5C7 SWAP3 SWAP2 SWAP1 PUSH2 0xFED JUMP JUMPDEST PUSH1 0x40 MLOAD DUP1 SWAP2 SUB SWAP1 LOG1 PUSH32 0x1F1A2C748505FCD8F16A719FA88D517B1B41111C4F5E07BB28311CDC4D151538 DUP3 DUP3 PUSH1 0x40 MLOAD PUSH2 0x600 SWAP3 SWAP2 SWAP1 PUSH2 0xF80 JUMP JUMPDEST PUSH1 0x40 MLOAD DUP1 SWAP2 SUB SWAP1 LOG1 POP POP POP POP JUMP JUMPDEST PUSH2 0x617 DUP2 PUSH2 0x682 JUMP JUMPDEST POP JUMP JUMPDEST PUSH32 0x39FEAB747BB4F579008AEA963D7EBAC85AD410BB83EE663A42AF01464654E93F DUP2 PUSH1 0x40 MLOAD PUSH2 0x649 SWAP2 SWAP1 PUSH2 0xF43 JUMP JUMPDEST PUSH1 0x40 MLOAD DUP1 SWAP2 SUB SWAP1 LOG1 POP JUMP JUMPDEST PUSH32 0x917B7BF7AB24D61500CB699921A3A1CC22B8833DA6484FEA20F262B2610604AF PUSH1 0x40 MLOAD PUSH1 0x40 MLOAD DUP1 SWAP2 SUB SWAP1 LOG1 JUMP JUMPDEST PUSH32 0x97535D4B4270D3F1A499C85AE918BA6798CBDCC83A26529331A25DCD2194CFCE DUP2 PUSH1 0x40 MLOAD PUSH2 0x6B1 SWAP2 SWAP1 PUSH2 0xFD2 JUMP JUMPDEST PUSH1 0x40 MLOAD DUP1 SWAP2 SUB SWAP1 LOG1 POP JUMP JUMPDEST PUSH32 0xD59AB87BF64B9D737998F3DC70C649D16B135F085029C1666CA0634BEB75A773 PUSH1 0x40 MLOAD DUP1 PUSH1 0x40 ADD PUSH1 0x40 MSTORE DUP1 DUP5 DUP2 MSTORE PUSH1 0x20 ADD DUP4 DUP2 MSTORE POP PUSH1 0x40 MLOAD PUSH2 0x6FF SWAP2 SWAP1 PUSH2 0xFB7 JUMP JUMPDEST PUSH1 0x40 MLOAD DUP1 SWAP2 SUB SWAP1 LOG1 POP POP JUMP JUMPDEST PUSH32 0x15100859F3FFE92910DC3F11ED3DB4E9CF32FF657C05066E44BE4E69B2B488BC PUSH1 0x40 MLOAD DUP1 PUSH1 0x40 ADD PUSH1 0x40 MSTORE DUP1 DUP5 DUP2 MSTORE PUSH1 0x20 ADD DUP4 DUP2 MSTORE POP PUSH1 0x40 MLOAD PUSH2 0x74E SWAP2 SWAP1 PUSH2 0xED0 JUMP JUMPDEST PUSH1 0x40 MLOAD DUP1 SWAP2 SUB SWAP1 LOG1 POP POP JUMP JUMPDEST PUSH32 0x433470EDCDD53B50238BE4D8E048E2BAA269AF5BE2A4E29515C138883C745AA8 DUP2 PUSH1 0x40 MLOAD PUSH2 0x789 SWAP2 SWAP1 PUSH2 0xF21 JUMP JUMPDEST PUSH1 0x40 MLOAD DUP1 SWAP2 SUB SWAP1 LOG1 POP JUMP JUMPDEST DUP1 PUSH1 0x40 MLOAD PUSH2 0x7A2 SWAP2 SWAP1 PUSH2 0xE87 JUMP JUMPDEST PUSH1 0x40 MLOAD DUP1 SWAP2 SUB SWAP1 KECCAK256 PUSH32 0x160E4655DF40987951ACCF7C731D5C504F77D20C139BD73032821B91A426DD98 PUSH1 0x40 MLOAD PUSH1 0x40 MLOAD DUP1 SWAP2 SUB SWAP1 LOG2 POP JUMP JUMPDEST PUSH1 0x0 DUP1 SLOAD SWAP1 PUSH2 0x100 EXP SWAP1 DIV PUSH20 0xFFFFFFFFFFFFFFFFFFFFFFFFFFFFFFFFFFFFFFFF AND PUSH20 0xFFFFFFFFFFFFFFFFFFFFFFFFFFFFFFFFFFFFFFFF AND PUSH4 0x91940244 DUP3 PUSH1 0x40 MLOAD DUP3 PUSH4 0xFFFFFFFF AND PUSH1 0xE0 SHL DUP2 MSTORE PUSH1 0x4 ADD PUSH2 0x832 SWAP2 SWAP1 PUSH2 0xFD2 JUMP JUMPDEST PUSH1 0x0 PUSH1 0x40 MLOAD DUP1 DUP4 SUB DUP2 PUSH1 0x0 DUP8 DUP1 EXTCODESIZE ISZERO DUP1 ISZERO PUSH2 0x84C JUMPI PUSH1 0x0 DUP1 REVERT JUMPDEST POP GAS CALL ISZERO DUP1 ISZERO PUSH2 0x860 JUMPI RETURNDATASIZE PUSH1 0x0 DUP1 RETURNDATACOPY RETURNDATASIZE PUSH1 0x0 REVERT JUMPDEST POP POP POP POP POP JUMP JUMPDEST JUMP JUMPDEST PUSH32 0x336BCD960D2E5A52CEF6094BA33727F309DC2C675EEBEFC6D9B6B6D79ABAC877 DUP2 PUSH1 0x40 MLOAD PUSH2 0x898 SWAP2 SWAP1 PUSH2 0xEB5 JUMP JUMPDEST PUSH1 0x40 MLOAD DUP1 SWAP2 SUB SWAP1 LOG1 POP JUMP JUMPDEST PUSH1 0x0 PUSH2 0x8B6 PUSH2 0x8B1 DUP5 PUSH2 0x103B JUMP JUMPDEST PUSH2 0x1016 JUMP JUMPDEST SWAP1 POP DUP3 DUP2 MSTORE PUSH1 0x20 DUP2 ADD DUP5 DUP5 DUP5 ADD GT ISZERO PUSH2 0x8CE JUMPI PUSH1 0x0 DUP1 REVERT JUMPDEST PUSH2 0x8D9 DUP5 DUP3 DUP6 PUSH2 0x1195 JUMP JUMPDEST POP SWAP4 SWAP3 POP POP POP JUMP JUMPDEST PUSH1 0x0 PUSH2 0x8F4 PUSH2 0x8EF DUP5 PUSH2 0x106C JUMP JUMPDEST PUSH2 0x1016 JUMP JUMPDEST SWAP1 POP DUP3 DUP2 MSTORE PUSH1 0x20 DUP2 ADD DUP5 DUP5 DUP5 ADD GT ISZERO PUSH2 0x90C JUMPI PUSH1 0x0 DUP1 REVERT JUMPDEST PUSH2 0x917 DUP5 DUP3 DUP6 PUSH2 0x1195 JUMP JUMPDEST POP SWAP4 SWAP3 POP POP POP JUMP JUMPDEST PUSH1 0x0 DUP2 CALLDATALOAD SWAP1 POP PUSH2 0x92E DUP2 PUSH2 0x1248 JUMP JUMPDEST SWAP3 SWAP2 POP POP JUMP JUMPDEST PUSH1 0x0 DUP2 CALLDATALOAD SWAP1 POP PUSH2 0x943 DUP2 PUSH2 0x125F JUMP JUMPDEST SWAP3 SWAP2 POP POP JUMP JUMPDEST PUSH1 0x0 DUP3 PUSH1 0x1F DUP4 ADD SLT PUSH2 0x95A JUMPI PUSH1 0x0 DUP1 REVERT JUMPDEST DUP2 CALLDATALOAD PUSH2 0x96A DUP5 DUP3 PUSH1 0x20 DUP7 ADD PUSH2 0x8A3 JUMP JUMPDEST SWAP2 POP POP SWAP3 SWAP2 POP POP JUMP JUMPDEST PUSH1 0x0 DUP2 CALLDATALOAD SWAP1 POP PUSH2 0x982 DUP2 PUSH2 0x1276 JUMP JUMPDEST SWAP3 SWAP2 POP POP JUMP JUMPDEST PUSH1 0x0 DUP3 PUSH1 0x1F DUP4 ADD SLT PUSH2 0x999 JUMPI PUSH1 0x0 DUP1 REVERT JUMPDEST DUP2 CALLDATALOAD PUSH2 0x9A9 DUP5 DUP3 PUSH1 0x20 DUP7 ADD PUSH2 0x8E1 JUMP JUMPDEST SWAP2 POP POP SWAP3 SWAP2 POP POP JUMP JUMPDEST PUSH1 0x0 DUP2 CALLDATALOAD SWAP1 POP PUSH2 0x9C1 DUP2 PUSH2 0x128D JUMP JUMPDEST SWAP3 SWAP2 POP POP JUMP JUMPDEST PUSH1 0x0 PUSH1 0x20 DUP3 DUP5 SUB SLT ISZERO PUSH2 0x9D9 JUMPI PUSH1 0x0 DUP1 REVERT JUMPDEST PUSH1 0x0 PUSH2 0x9E7 DUP5 DUP3 DUP6 ADD PUSH2 0x91F JUMP JUMPDEST SWAP2 POP POP SWAP3 SWAP2 POP POP JUMP JUMPDEST PUSH1 0x0 PUSH1 0x20 DUP3 DUP5 SUB SLT ISZERO PUSH2 0xA02 JUMPI PUSH1 0x0 DUP1 REVERT JUMPDEST PUSH1 0x0 PUSH2 0xA10 DUP5 DUP3 DUP6 ADD PUSH2 0x934 JUMP JUMPDEST SWAP2 POP POP SWAP3 SWAP2 POP POP JUMP JUMPDEST PUSH1 0x0 DUP1 PUSH1 0x40 DUP4 DUP6 SUB SLT ISZERO PUSH2 0xA2C JUMPI PUSH1 0x0 DUP1 REVERT JUMPDEST PUSH1 0x0 PUSH2 0xA3A DUP6 DUP3 DUP7 ADD PUSH2 0x934 JUMP JUMPDEST SWAP3 POP POP PUSH1 0x20 PUSH2 0xA4B DUP6 DUP3 DUP7 ADD PUSH2 0x934 JUMP JUMPDEST SWAP2 POP POP SWAP3 POP SWAP3 SWAP1 POP JUMP JUMPDEST PUSH1 0x0 PUSH1 0x20 DUP3 DUP5 SUB SLT ISZERO PUSH2 0xA67 JUMPI PUSH1 0x0 DUP1 REVERT JUMPDEST PUSH1 0x0 DUP3 ADD CALLDATALOAD PUSH8 0xFFFFFFFFFFFFFFFF DUP2 GT ISZERO PUSH2 0xA81 JUMPI PUSH1 0x0 DUP1 REVERT JUMPDEST PUSH2 0xA8D DUP5 DUP3 DUP6 ADD PUSH2 0x949 JUMP JUMPDEST SWAP2 POP POP SWAP3 SWAP2 POP POP JUMP JUMPDEST PUSH1 0x0 PUSH1 0x20 DUP3 DUP5 SUB SLT ISZERO PUSH2 0xAA8 JUMPI PUSH1 0x0 DUP1 REVERT JUMPDEST PUSH1 0x0 PUSH2 0xAB6 DUP5 DUP3 DUP6 ADD PUSH2 0x973 JUMP JUMPDEST SWAP2 POP POP SWAP3 SWAP2 POP POP JUMP JUMPDEST PUSH1 0x0 PUSH1 0x20 DUP3 DUP5 SUB SLT ISZERO PUSH2 0xAD1 JUMPI PUSH1 0x0 DUP1 REVERT JUMPDEST PUSH1 0x0 DUP3 ADD CALLDATALOAD PUSH8 0xFFFFFFFFFFFFFFFF DUP2 GT ISZERO PUSH2 0xAEB JUMPI PUSH1 0x0 DUP1 REVERT JUMPDEST PUSH2 0xAF7 DUP5 DUP3 DUP6 ADD PUSH2 0x988 JUMP JUMPDEST SWAP2 POP POP SWAP3 SWAP2 POP POP JUMP JUMPDEST PUSH1 0x0 PUSH1 0x20 DUP3 DUP5 SUB SLT ISZERO PUSH2 0xB12 JUMPI PUSH1 0x0 DUP1 REVERT JUMPDEST PUSH1 0x0 PUSH2 0xB20 DUP5 DUP3 DUP6 ADD PUSH2 0x9B2 JUMP JUMPDEST SWAP2 POP POP SWAP3 SWAP2 POP POP JUMP JUMPDEST PUSH1 0x0 DUP1 PUSH1 0x40 DUP4 DUP6 SUB SLT ISZERO PUSH2 0xB3C JUMPI PUSH1 0x0 DUP1 REVERT JUMPDEST PUSH1 0x0 PUSH2 0xB4A DUP6 DUP3 DUP7 ADD PUSH2 0x9B2 JUMP JUMPDEST SWAP3 POP POP PUSH1 0x20 DUP4 ADD CALLDATALOAD PUSH8 0xFFFFFFFFFFFFFFFF DUP2 GT ISZERO PUSH2 0xB67 JUMPI PUSH1 0x0 DUP1 REVERT JUMPDEST PUSH2 0xB73 DUP6 DUP3 DUP7 ADD PUSH2 0x988 JUMP JUMPDEST SWAP2 POP POP SWAP3 POP SWAP3 SWAP1 POP JUMP JUMPDEST PUSH1 0x0 DUP1 PUSH1 0x40 DUP4 DUP6 SUB SLT ISZERO PUSH2 0xB90 JUMPI PUSH1 0x0 DUP1 REVERT JUMPDEST PUSH1 0x0 PUSH2 0xB9E DUP6 DUP3 DUP7 ADD PUSH2 0x9B2 JUMP JUMPDEST SWAP3 POP POP PUSH1 0x20 PUSH2 0xBAF DUP6 DUP3 DUP7 ADD PUSH2 0x9B2 JUMP JUMPDEST SWAP2 POP POP SWAP3 POP SWAP3 SWAP1 POP JUMP JUMPDEST PUSH1 0x0 DUP1 PUSH1 0x0 DUP1 PUSH1 0x80 DUP6 DUP8 SUB SLT ISZERO PUSH2 0xBCF JUMPI PUSH1 0x0 DUP1 REVERT JUMPDEST PUSH1 0x0 PUSH2 0xBDD DUP8 DUP3 DUP9 ADD PUSH2 0x9B2 JUMP JUMPDEST SWAP5 POP POP PUSH1 0x20 PUSH2 0xBEE DUP8 DUP3 DUP9 ADD PUSH2 0x9B2 JUMP JUMPDEST SWAP4 POP POP PUSH1 0x40 DUP6 ADD CALLDATALOAD PUSH8 0xFFFFFFFFFFFFFFFF DUP2 GT ISZERO PUSH2 0xC0B JUMPI PUSH1 0x0 DUP1 REVERT JUMPDEST PUSH2 0xC17 DUP8 DUP3 DUP9 ADD PUSH2 0x988 JUMP JUMPDEST SWAP3 POP POP PUSH1 0x60 DUP6 ADD CALLDATALOAD PUSH8 0xFFFFFFFFFFFFFFFF DUP2 GT ISZERO PUSH2 0xC34 JUMPI PUSH1 0x0 DUP1 REVERT JUMPDEST PUSH2 0xC40 DUP8 DUP3 DUP9 ADD PUSH2 0x988 JUMP JUMPDEST SWAP2 POP POP SWAP3 SWAP6 SWAP2 SWAP5 POP SWAP3 POP JUMP JUMPDEST PUSH1 0x0 PUSH2 0xC58 DUP4 DUP4 PUSH2 0xD39 JUMP JUMPDEST PUSH1 0x20 DUP4 ADD SWAP1 POP SWAP3 SWAP2 POP POP JUMP JUMPDEST PUSH1 0x0 PUSH2 0xC70 DUP4 DUP4 PUSH2 0xE69 JUMP JUMPDEST PUSH1 0x20 DUP4 ADD SWAP1 POP SWAP3 SWAP2 POP POP JUMP JUMPDEST PUSH2 0xC85 DUP2 PUSH2 0x1145 JUMP JUMPDEST DUP3 MSTORE POP POP JUMP JUMPDEST PUSH2 0xC94 DUP2 PUSH2 0x10B1 JUMP JUMPDEST PUSH2 0xC9E DUP2 DUP5 PUSH2 0x10F7 JUMP JUMPDEST SWAP3 POP PUSH2 0xCA9 DUP3 PUSH2 0x109D JUMP JUMPDEST DUP1 PUSH1 0x0 JUMPDEST DUP4 DUP2 LT ISZERO PUSH2 0xCDA JUMPI DUP2 MLOAD PUSH2 0xCC1 DUP8 DUP3 PUSH2 0xC4C JUMP JUMPDEST SWAP7 POP PUSH2 0xCCC DUP4 PUSH2 0x10DD JUMP JUMPDEST SWAP3 POP POP PUSH1 0x1 DUP2 ADD SWAP1 POP PUSH2 0xCAD JUMP JUMPDEST POP POP POP POP POP POP JUMP JUMPDEST PUSH2 0xCEB DUP2 PUSH2 0x10BC JUMP JUMPDEST PUSH2 0xCF5 DUP2 DUP5 PUSH2 0x1102 JUMP JUMPDEST SWAP3 POP PUSH2 0xD00 DUP3 PUSH2 0x10A7 JUMP JUMPDEST DUP1 PUSH1 0x0 JUMPDEST DUP4 DUP2 LT ISZERO PUSH2 0xD31 JUMPI DUP2 MLOAD PUSH2 0xD18 DUP8 DUP3 PUSH2 0xC64 JUMP JUMPDEST SWAP7 POP PUSH2 0xD23 DUP4 PUSH2 0x10EA JUMP JUMPDEST SWAP3 POP POP PUSH1 0x1 DUP2 ADD SWAP1 POP PUSH2 0xD04 JUMP JUMPDEST POP POP POP POP POP POP JUMP JUMPDEST PUSH2 0xD42 DUP2 PUSH2 0x1157 JUMP JUMPDEST DUP3 MSTORE POP POP JUMP JUMPDEST PUSH2 0xD51 DUP2 PUSH2 0x1157 JUMP JUMPDEST DUP3 MSTORE POP POP JUMP JUMPDEST PUSH1 0x0 PUSH2 0xD62 DUP3 PUSH2 0x10C7 JUMP JUMPDEST PUSH2 0xD6C DUP2 DUP6 PUSH2 0x110D JUMP JUMPDEST SWAP4 POP PUSH2 0xD7C DUP2 DUP6 PUSH1 0x20 DUP7 ADD PUSH2 0x11A4 JUMP JUMPDEST PUSH2 0xD85 DUP2 PUSH2 0x1237 JUMP JUMPDEST DUP5 ADD SWAP2 POP POP SWAP3 SWAP2 POP POP JUMP JUMPDEST PUSH1 0x0 PUSH2 0xD9B DUP3 PUSH2 0x10C7 JUMP JUMPDEST PUSH2 0xDA5 DUP2 DUP6 PUSH2 0x111E JUMP JUMPDEST SWAP4 POP PUSH2 0xDB5 DUP2 DUP6 PUSH1 0x20 DUP7 ADD PUSH2 0x11A4 JUMP JUMPDEST DUP1 DUP5 ADD SWAP2 POP POP SWAP3 SWAP2 POP POP JUMP JUMPDEST PUSH2 0xDCA DUP2 PUSH2 0x1161 JUMP JUMPDEST DUP3 MSTORE POP POP JUMP JUMPDEST PUSH1 0x0 PUSH2 0xDDB DUP3 PUSH2 0x10D2 JUMP JUMPDEST PUSH2 0xDE5 DUP2 DUP6 PUSH2 0x1129 JUMP JUMPDEST SWAP4 POP PUSH2 0xDF5 DUP2 DUP6 PUSH1 0x20 DUP7 ADD PUSH2 0x11A4 JUMP JUMPDEST PUSH2 0xDFE DUP2 PUSH2 0x1237 JUMP JUMPDEST DUP5 ADD SWAP2 POP POP SWAP3 SWAP2 POP POP JUMP JUMPDEST PUSH1 0x0 PUSH2 0xE14 DUP3 PUSH2 0x10D2 JUMP JUMPDEST PUSH2 0xE1E DUP2 DUP6 PUSH2 0x113A JUMP JUMPDEST SWAP4 POP PUSH2 0xE2E DUP2 DUP6 PUSH1 0x20 DUP7 ADD PUSH2 0x11A4 JUMP JUMPDEST DUP1 DUP5 ADD SWAP2 POP POP SWAP3 SWAP2 POP POP JUMP JUMPDEST PUSH1 0x40 DUP3 ADD PUSH1 0x0 DUP3 ADD MLOAD PUSH2 0xE50 PUSH1 0x0 DUP6 ADD DUP3 PUSH2 0xE69 JUMP JUMPDEST POP PUSH1 0x20 DUP3 ADD MLOAD PUSH2 0xE63 PUSH1 0x20 DUP6 ADD DUP3 PUSH2 0xE69 JUMP JUMPDEST POP POP POP POP JUMP JUMPDEST PUSH2 0xE72 DUP2 PUSH2 0x118B JUMP JUMPDEST DUP3 MSTORE POP POP JUMP JUMPDEST PUSH2 0xE81 DUP2 PUSH2 0x118B JUMP JUMPDEST DUP3 MSTORE POP POP JUMP JUMPDEST PUSH1 0x0 PUSH2 0xE93 DUP3 DUP5 PUSH2 0xD90 JUMP JUMPDEST SWAP2 POP DUP2 SWAP1 POP SWAP3 SWAP2 POP POP JUMP JUMPDEST PUSH1 0x0 PUSH2 0xEAA DUP3 DUP5 PUSH2 0xE09 JUMP JUMPDEST SWAP2 POP DUP2 SWAP1 POP SWAP3 SWAP2 POP POP JUMP JUMPDEST PUSH1 0x0 PUSH1 0x20 DUP3 ADD SWAP1 POP PUSH2 0xECA PUSH1 0x0 DUP4 ADD DUP5 PUSH2 0xC7C JUMP JUMPDEST SWAP3 SWAP2 POP POP JUMP JUMPDEST PUSH1 0x0 PUSH1 0x40 DUP3 ADD SWAP1 POP PUSH2 0xEE5 PUSH1 0x0 DUP4 ADD DUP5 PUSH2 0xC8B JUMP JUMPDEST SWAP3 SWAP2 POP POP JUMP JUMPDEST PUSH1 0x0 PUSH1 0x40 DUP3 ADD SWAP1 POP PUSH2 0xF00 PUSH1 0x0 DUP4 ADD DUP5 PUSH2 0xCE2 JUMP JUMPDEST SWAP3 SWAP2 POP POP JUMP JUMPDEST PUSH1 0x0 PUSH1 0x20 DUP3 ADD SWAP1 POP PUSH2 0xF1B PUSH1 0x0 DUP4 ADD DUP5 PUSH2 0xD48 JUMP JUMPDEST SWAP3 SWAP2 POP POP JUMP JUMPDEST PUSH1 0x0 PUSH1 0x20 DUP3 ADD SWAP1 POP DUP2 DUP2 SUB PUSH1 0x0 DUP4 ADD MSTORE PUSH2 0xF3B DUP2 DUP5 PUSH2 0xD57 JUMP JUMPDEST SWAP1 POP SWAP3 SWAP2 POP POP JUMP JUMPDEST PUSH1 0x0 PUSH1 0x20 DUP3 ADD SWAP1 POP PUSH2 0xF58 PUSH1 0x0 DUP4 ADD DUP5 PUSH2 0xDC1 JUMP JUMPDEST SWAP3 SWAP2 POP POP JUMP JUMPDEST PUSH1 0x0 PUSH1 0x20 DUP3 ADD SWAP1 POP DUP2 DUP2 SUB PUSH1 0x0 DUP4 ADD MSTORE PUSH2 0xF78 DUP2 DUP5 PUSH2 0xDD0 JUMP JUMPDEST SWAP1 POP SWAP3 SWAP2 POP POP JUMP JUMPDEST PUSH1 0x0 PUSH1 0x40 DUP3 ADD SWAP1 POP DUP2 DUP2 SUB PUSH1 0x0 DUP4 ADD MSTORE PUSH2 0xF9A DUP2 DUP6 PUSH2 0xDD0 JUMP JUMPDEST SWAP1 POP DUP2 DUP2 SUB PUSH1 0x20 DUP4 ADD MSTORE PUSH2 0xFAE DUP2 DUP5 PUSH2 0xDD0 JUMP JUMPDEST SWAP1 POP SWAP4 SWAP3 POP POP POP JUMP JUMPDEST PUSH1 0x0 PUSH1 0x40 DUP3 ADD SWAP1 POP PUSH2 0xFCC PUSH1 0x0 DUP4 ADD DUP5 PUSH2 0xE3A JUMP JUMPDEST SWAP3 SWAP2 POP POP JUMP JUMPDEST PUSH1 0x0 PUSH1 0x20 DUP3 ADD SWAP1 POP PUSH2 0xFE7 PUSH1 0x0 DUP4 ADD DUP5 PUSH2 0xE78 JUMP JUMPDEST SWAP3 SWAP2 POP POP JUMP JUMPDEST PUSH1 0x0 PUSH1 0x40 DUP3 ADD SWAP1 POP PUSH2 0x1002 PUSH1 0x0 DUP4 ADD DUP6 PUSH2 0xE78 JUMP JUMPDEST PUSH2 0x100F PUSH1 0x20 DUP4 ADD DUP5 PUSH2 0xE78 JUMP JUMPDEST SWAP4 SWAP3 POP POP POP JUMP JUMPDEST PUSH1 0x0 PUSH2 0x1020 PUSH2 0x1031 JUMP JUMPDEST SWAP1 POP PUSH2 0x102C DUP3 DUP3 PUSH2 0x11D7 JUMP JUMPDEST SWAP2 SWAP1 POP JUMP JUMPDEST PUSH1 0x0 PUSH1 0x40 MLOAD SWAP1 POP SWAP1 JUMP JUMPDEST PUSH1 0x0 PUSH8 0xFFFFFFFFFFFFFFFF DUP3 GT ISZERO PUSH2 0x1056 JUMPI PUSH2 0x1055 PUSH2 0x1208 JUMP JUMPDEST JUMPDEST PUSH2 0x105F DUP3 PUSH2 0x1237 JUMP JUMPDEST SWAP1 POP PUSH1 0x20 DUP2 ADD SWAP1 POP SWAP2 SWAP1 POP JUMP JUMPDEST PUSH1 0x0 PUSH8 0xFFFFFFFFFFFFFFFF DUP3 GT ISZERO PUSH2 0x1087 JUMPI PUSH2 0x1086 PUSH2 0x1208 JUMP JUMPDEST JUMPDEST PUSH2 0x1090 DUP3 PUSH2 0x1237 JUMP JUMPDEST SWAP1 POP PUSH1 0x20 DUP2 ADD SWAP1 POP SWAP2 SWAP1 POP JUMP JUMPDEST PUSH1 0x0 DUP2 SWAP1 POP SWAP2 SWAP1 POP JUMP JUMPDEST PUSH1 0x0 DUP2 SWAP1 POP SWAP2 SWAP1 POP JUMP JUMPDEST PUSH1 0x0 PUSH1 0x2 SWAP1 POP SWAP2 SWAP1 POP JUMP JUMPDEST PUSH1 0x0 PUSH1 0x2 SWAP1 POP SWAP2 SWAP1 POP JUMP JUMPDEST PUSH1 0x0 DUP2 MLOAD SWAP1 POP SWAP2 SWAP1 POP JUMP JUMPDEST PUSH1 0x0 DUP2 MLOAD SWAP1 POP SWAP2 SWAP1 POP JUMP JUMPDEST PUSH1 0x0 PUSH1 0x20 DUP3 ADD SWAP1 POP SWAP2 SWAP1 POP JUMP JUMPDEST PUSH1 0x0 PUSH1 0x20 DUP3 ADD SWAP1 POP SWAP2 SWAP1 POP JUMP JUMPDEST PUSH1 0x0 DUP2 SWAP1 POP SWAP3 SWAP2 POP POP JUMP JUMPDEST PUSH1 0x0 DUP2 SWAP1 POP SWAP3 SWAP2 POP POP JUMP JUMPDEST PUSH1 0x0 DUP3 DUP3 MSTORE PUSH1 0x20 DUP3 ADD SWAP1 POP SWAP3 SWAP2 POP POP JUMP JUMPDEST PUSH1 0x0 DUP2 SWAP1 POP SWAP3 SWAP2 POP POP JUMP JUMPDEST PUSH1 0x0 DUP3 DUP3 MSTORE PUSH1 0x20 DUP3 ADD SWAP1 POP SWAP3 SWAP2 POP POP JUMP JUMPDEST PUSH1 0x0 DUP2 SWAP1 POP SWAP3 SWAP2 POP POP JUMP JUMPDEST PUSH1 0x0 PUSH2 0x1150 DUP3 PUSH2 0x116B JUMP JUMPDEST SWAP1 POP SWAP2 SWAP1 POP JUMP JUMPDEST PUSH1 0x0 DUP2 SWAP1 POP SWAP2 SWAP1 POP JUMP JUMPDEST PUSH1 0x0 DUP2 SWAP1 POP SWAP2 SWAP1 POP JUMP JUMPDEST PUSH1 0x0 PUSH20 0xFFFFFFFFFFFFFFFFFFFFFFFFFFFFFFFFFFFFFFFF DUP3 AND SWAP1 POP SWAP2 SWAP1 POP JUMP JUMPDEST PUSH1 0x0 DUP2 SWAP1 POP SWAP2 SWAP1 POP JUMP JUMPDEST DUP3 DUP2 DUP4 CALLDATACOPY PUSH1 0x0 DUP4 DUP4 ADD MSTORE POP POP POP JUMP JUMPDEST PUSH1 0x0 JUMPDEST DUP4 DUP2 LT ISZERO PUSH2 0x11C2 JUMPI DUP1 DUP3 ADD MLOAD DUP2 DUP5 ADD MSTORE PUSH1 0x20 DUP2 ADD SWAP1 POP PUSH2 0x11A7 JUMP JUMPDEST DUP4 DUP2 GT ISZERO PUSH2 0x11D1 JUMPI PUSH1 0x0 DUP5 DUP5 ADD MSTORE JUMPDEST POP POP POP POP JUMP JUMPDEST PUSH2 0x11E0 DUP3 PUSH2 0x1237 JUMP JUMPDEST DUP2 ADD DUP2 DUP2 LT PUSH8 0xFFFFFFFFFFFFFFFF DUP3 GT OR ISZERO PUSH2 0x11FF JUMPI PUSH2 0x11FE PUSH2 0x1208 JUMP JUMPDEST JUMPDEST DUP1 PUSH1 0x40 MSTORE POP POP POP JUMP JUMPDEST PUSH32 0x4E487B7100000000000000000000000000000000000000000000000000000000 PUSH1 0x0 MSTORE PUSH1 0x41 PUSH1 0x4 MSTORE PUSH1 0x24 PUSH1 0x0 REVERT JUMPDEST PUSH1 0x0 PUSH1 0x1F NOT PUSH1 0x1F DUP4 ADD AND SWAP1 POP SWAP2 SWAP1 POP JUMP JUMPDEST PUSH2 0x1251 DUP2 PUSH2 0x1145 JUMP JUMPDEST DUP2 EQ PUSH2 0x125C JUMPI PUSH1 0x0 DUP1 REVERT JUMPDEST POP JUMP JUMPDEST PUSH2 0x1268 DUP2 PUSH2 0x1157 JUMP JUMPDEST DUP2 EQ PUSH2 0x1273 JUMPI PUSH1 0x0 DUP1 REVERT JUMPDEST POP JUMP JUMPDEST PUSH2 0x127F DUP2 PUSH2 0x1161 JUMP JUMPDEST DUP2 EQ PUSH2 0x128A JUMPI PUSH1 0x0 DUP1 REVERT JUMPDEST POP JUMP JUMPDEST PUSH2 0x1296 DUP2 PUSH2 0x118B JUMP JUMPDEST DUP2 EQ PUSH2 0x12A1 JUMPI PUSH1 0x0 DUP1 REVERT JUMPDEST POP JUMP INVALID LOG2 PUSH5 0x6970667358 0x22 SLT KECCAK256 PUSH20 0xA91A740C0DE3883C5213C5981D98D2396A8B60B3 0xCF 0x2F 0xB3 PUSH5 0xD7E4CC826A DUP5 0x1E PUSH5 0x736F6C6343 STOP ADDMOD DIV STOP CALLER "},"methodIdentifiers":{"doNotEmit()":"db6cdf68","emitAddress(address)":"ec5c3ede","emitBytes(bytes)":"c76f0635","emitBytes32(bytes32)":"33311ef3","emitBytes32Array(bytes32,bytes32)":"c0cd80e6","emitIndexedBytes(bytes)":"cc07e605","emitIndexedBytes32(bytes32)":"048858e5","emitIndexedString(string)":"443690a0","emitInt(int256)":"8a618191","emitNestedUintFromAnotherContract(uint256)":"d3931e57","emitNestedUintFromSameContract(uint256)":"813a8cf5","emitString(string)":"2536f127","emitStruct(uint256,uint256)":"9f31a223","emitTwoUints(uint256,uint256)":"38393646","emitTwoUintsAndTwoStrings(uint256,uint256,string,string)":"532b9cce","emitUint(uint256)":"91940244","emitUintAndString(uint256,string)":"2785f8d6","emitUintArray(uint256,uint256)":"17aba537","emitUintTwice(uint256,uint256)":"0c0c941a","emitWithoutArgs()":"90b37ea2"}}}}}