{"contracts/Events.sol":{"AnotherContract":{"abi":[{"anonymous":false,"inputs":[{"indexed":false,"internalType":"uint256","name":"u","type":"uint256"}],"name":"WithUintArg","type":"event"},{"inputs":[{"internalType":"uint256","name":"u","type":"uint256"}],"name":"emitUint","outputs":[],"stateMutability":"nonpayable","type":"function"}],"evm":{"bytecode":{"linkReferences":{},"object":"608060405234801561001057600080fd5b50610130806100206000396000f3fe6080604052348015600f57600080fd5b506004361060285760003560e01c80639194024414602d575b600080fd5b60436004803603810190603f91906090565b6045565b005b7f97535d4b4270d3f1a499c85ae918ba6798cbdcc83a26529331a25dcd2194cfce816040516072919060c3565b60405180910390a150565b600081359050608a8160e6565b92915050565b60006020828403121560a157600080fd5b600060ad84828501607d565b91505092915050565b60bd8160dc565b82525050565b600060208201905060d6600083018460b6565b92915050565b6000819050919050565b60ed8160dc565b811460f757600080fd5b5056fea264697066735822122083cb9b1ec00d6d1ec78d28771d3bf4778c5ba00b0532a2448d42cbab653355a064736f6c63430008040033","opcodes":"PUSH1 0x80 PUSH1 0x40 MSTORE CALLVALUE DUP1 ISZERO PUSH2 0x10 JUMPI PUSH1 0x0 DUP1 REVERT JUMPDEST POP PUSH2 0x130 DUP1 PUSH2 0x20 PUSH1 0x0 CODECOPY PUSH1 0x0 RETURN INVALID PUSH1 0x80 PUSH1 0x40 MSTORE CALLVALUE DUP1 ISZERO PUSH1 0xF JUMPI PUSH1 0x0 DUP1 REVERT JUMPDEST POP PUSH1 0x4 CALLDATASIZE LT PUSH1 0x28 JUMPI PUSH1 0x0 CALLDATALOAD PUSH1 0xE0 SHR DUP1 PUSH4 0x91940244 EQ PUSH1 0x2D JUMPI JUMPDEST PUSH1 0x0 DUP1 REVERT JUMPDEST PUSH1 0x43 PUSH1 0x4 DUP1 CALLDATASIZE SUB DUP2 ADD SWAP1 PUSH1 0x3F SWAP2 SWAP1 PUSH1 0x90 JUMP JUMPDEST PUSH1 0x45 JUMP JUMPDEST STOP JUMPDEST PUSH32 0x97535D4B4270D3F1A499C85AE918BA6798CBDCC83A26529331A25DCD2194CFCE DUP2 PUSH1 0x40 MLOAD PUSH1 0x72 SWAP2 SWAP1 PUSH1 0xC3 JUMP JUMPDEST PUSH1 0x40 MLOAD DUP1 SWAP2 SUB SWAP1 LOG1 POP JUMP JUMPDEST PUSH1 0x0 DUP2 CALLDATALOAD SWAP1 POP PUSH1 0x8A DUP2 PUSH1 0xE6 JUMP JUMPDEST SWAP3 SWAP2 POP POP JUMP JUMPDEST PUSH1 0x0 PUSH1 0x20 DUP3 DUP5 SUB SLT ISZERO PUSH1 0xA1 JUMPI PUSH1 0x0 DUP1 REVERT JUMPDEST PUSH1 0x0 PUSH1 0xAD DUP5 DUP3 DUP6 ADD PUSH1 0x7D JUMP JUMPDEST SWAP2 POP POP SWAP3 SWAP2 POP POP JUMP JUMPDEST PUSH1 0xBD DUP2 PUSH1 0xDC JUMP JUMPDEST DUP3 MSTORE POP POP JUMP JUMPDEST PUSH1 0x0 PUSH1 0x20 DUP3 ADD SWAP1 POP PUSH1 0xD6 PUSH1 0x0 DUP4 ADD DUP5 PUSH1 0xB6 JUMP JUMPDEST SWAP3 SWAP2 POP POP JUMP JUMPDEST PUSH1 0x0 DUP2 SWAP1 POP SWAP2 SWAP1 POP JUMP JUMPDEST PUSH1 0xED DUP2 PUSH1 0xDC JUMP JUMPDEST DUP2 EQ PUSH1 0xF7 JUMPI PUSH1 0x0 DUP1 REVERT JUMPDEST POP JUMP INVALID LOG2 PUSH5 0x6970667358 0x22 SLT KECCAK256 DUP4 0xCB SWAP12 0x1E 0xC0 0xD PUSH14 0x1EC78D28771D3BF4778C5BA00B05 ORIGIN LOG2 DIFFICULTY DUP14 TIMESTAMP 0xCB 0xAB PUSH6 0x3355A064736F PUSH13 0x63430008040033000000000000 "},"methodIdentifiers":{"emitUint(uint256)":"91940244"}}}}}