{"contracts/Events.sol":{"OverrideEventContract":{"abi":[{"anonymous":false,"inputs":[{"indexed":false,"internalType":"uint256","name":"u","type":"uint256"}],"name":"simpleEvent","type":"event"},{"anonymous":false,"inputs":[],"name":"simpleEvent","type":"event"},{"inputs":[{"internalType":"uint256","name":"u","type":"uint256"}],"name":"emitSimpleEventWithUintArg","outputs":[],"stateMutability":"nonpayable","type":"function"},{"inputs":[],"name":"emitSimpleEventWithoutArg","outputs":[],"stateMutability":"nonpayable","type":"function"}],"evm":{"bytecode":{"linkReferences":{},"object":"608060405234801561001057600080fd5b50610188806100206000396000f3fe608060405234801561001057600080fd5b50600436106100365760003560e01c80632ce136d91461003b5780638e1c72bb14610057575b600080fd5b610055600480360381019061005091906100de565b610061565b005b61005f61009b565b005b7fb2dc4835200bc382210c109031e47d05b37c9244807898f5910a43f961e6719a816040516100909190610116565b60405180910390a150565b7f8922a6ca0f59f137d8e739a3dca968247fca890d147a5006a57da5bc782f6ae960405160405180910390a1565b6000813590506100d88161013b565b92915050565b6000602082840312156100f057600080fd5b60006100fe848285016100c9565b91505092915050565b61011081610131565b82525050565b600060208201905061012b6000830184610107565b92915050565b6000819050919050565b61014481610131565b811461014f57600080fd5b5056fea264697066735822122016232a4f6ea73657adfebd142c8d15f5593e419f600cb1983aba440defd27a5064736f6c63430008040033","opcodes":"PUSH1 0x80 PUSH1 0x40 MSTORE CALLVALUE DUP1 ISZERO PUSH2 0x10 JUMPI PUSH1 0x0 DUP1 REVERT JUMPDEST POP PUSH2 0x188 DUP1 PUSH2 0x20 PUSH1 0x0 CODECOPY PUSH1 0x0 RETURN INVALID PUSH1 0x80 PUSH1 0x40 MSTORE CALLVALUE DUP1 ISZERO PUSH2 0x10 JUMPI PUSH1 0x0 DUP1 REVERT JUMPDEST POP PUSH1 0x4 CALLDATASIZE LT PUSH2 0x36 JUMPI PUSH1 0x0 CALLDATALOAD PUSH1 0xE0 SHR DUP1 PUSH4 0x2CE136D9 EQ PUSH2 0x3B JUMPI DUP1 PUSH4 0x8E1C72BB EQ PUSH2 0x57 JUMPI JUMPDEST PUSH1 0x0 DUP1 REVERT JUMPDEST PUSH2 0x55 PUSH1 0x4 DUP1 CALLDATASIZE SUB DUP2 ADD SWAP1 PUSH2 0x50 SWAP2 SWAP1 PUSH2 0xDE JUMP JUMPDEST PUSH2 0x61 JUMP JUMPDEST STOP JUMPDEST PUSH2 0x5F PUSH2 0x9B JUMP JUMPDEST STOP JUMPDEST PUSH32 0xB2DC4835200BC382210C109031E47D05B37C9244807898F5910A43F961E6719A DUP2 PUSH1 0x40 MLOAD PUSH2 0x90 SWAP2 SWAP1 PUSH2 0x116 JUMP JUMPDEST PUSH1 0x40 MLOAD DUP1 SWAP2 SUB SWAP1 LOG1 POP JUMP JUMPDEST PUSH32 0x8922A6CA0F59F137D8E739A3DCA968247FCA890D147A5006A57DA5BC782F6AE9 PUSH1 0x40 MLOAD PUSH1 0x40 MLOAD DUP1 SWAP2 SUB SWAP1 LOG1 JUMP JUMPDEST PUSH1 0x0 DUP2 CALLDATALOAD SWAP1 POP PUSH2 0xD8 DUP2 PUSH2 0x13B JUMP JUMPDEST SWAP3 SWAP2 POP POP JUMP JUMPDEST PUSH1 0x0 PUSH1 0x20 DUP3 DUP5 SUB SLT ISZERO PUSH2 0xF0 JUMPI PUSH1 0x0 DUP1 REVERT JUMPDEST PUSH1 0x0 PUSH2 0xFE DUP5 DUP3 DUP6 ADD PUSH2 0xC9 JUMP JUMPDEST SWAP2 POP POP SWAP3 SWAP2 POP POP JUMP JUMPDEST PUSH2 0x110 DUP2 PUSH2 0x131 JUMP JUMPDEST DUP3 MSTORE POP POP JUMP JUMPDEST PUSH1 0x0 PUSH1 0x20 DUP3 ADD SWAP1 POP PUSH2 0x12B PUSH1 0x0 DUP4 ADD DUP5 PUSH2 0x107 JUMP JUMPDEST SWAP3 SWAP2 POP POP JUMP JUMPDEST PUSH1 0x0 DUP2 SWAP1 POP SWAP2 SWAP1 POP JUMP JUMPDEST PUSH2 0x144 DUP2 PUSH2 0x131 JUMP JUMPDEST DUP2 EQ PUSH2 0x14F JUMPI PUSH1 0x0 DUP1 REVERT JUMPDEST POP JUMP INVALID LOG2 PUSH5 0x6970667358 0x22 SLT KECCAK256 AND 0x23 0x2A 0x4F PUSH15 0xA73657ADFEBD142C8D15F5593E419F PUSH1 0xC 0xB1 SWAP9 GASPRICE 0xBA DIFFICULTY 0xD 0xEF 0xD2 PUSH27 0x5064736F6C63430008040033000000000000000000000000000000 "},"methodIdentifiers":{"emitSimpleEventWithUintArg(uint256)":"2ce136d9","emitSimpleEventWithoutArg()":"8e1c72bb"}}}}}