{
  "_format": "hh-sol-artifact-1",
  "contractName": "TestB",
  "sourceName": "contracts/TestB.sol",
  "abi": [
    {
      "inputs": [
        {
          "internalType": "uint256",
          "name": "a",
          "type": "uint256"
        },
        {
          "internalType": "uint256",
          "name": "b",
          "type": "uint256"
        }
      ],
      "name": "sum",
      "outputs": [
        {
          "internalType": "uint256",
          "name": "",
          "type": "uint256"
        }
      ],
      "stateMutability": "pure",
      "type": "function"
    }
  ],
  "bytecode": "0x6102ad610053600b82828239805160001a607314610046577f4e487b7100000000000000000000000000000000000000000000000000000000600052600060045260246000fd5b30600052607381538281f3fe73000000000000000000000000000000000000000030146080604052600436106100355760003560e01c8063cad0899b1461003a575b600080fd5b610054600480360381019061004f91906101a2565b61006a565b60405161006191906101f1565b60405180910390f35b600073__$a77b74ebd34224ac3c3a582e4bc24622f4$__63cad0899b8473__$3fa06892d414312f70326060dfc06e0087$__63cad0899b87876040518363ffffffff1660e01b81526004016100c092919061020c565b602060405180830381865af41580156100dd573d6000803e3d6000fd5b505050506040513d601f19601f82011682018060405250810190610101919061024a565b6040518363ffffffff1660e01b815260040161011e92919061020c565b602060405180830381865af415801561013b573d6000803e3d6000fd5b505050506040513d601f19601f8201168201806040525081019061015f919061024a565b905092915050565b600080fd5b6000819050919050565b61017f8161016c565b811461018a57600080fd5b50565b60008135905061019c81610176565b92915050565b600080604083850312156101b9576101b8610167565b5b60006101c78582860161018d565b92505060206101d88582860161018d565b9150509250929050565b6101eb8161016c565b82525050565b600060208201905061020660008301846101e2565b92915050565b600060408201905061022160008301856101e2565b61022e60208301846101e2565b9392505050565b60008151905061024481610176565b92915050565b6000602082840312156102605761025f610167565b5b600061026e84828501610235565b9150509291505056fea264697066735822122056e067cbff0f6f4b44115fa7c682e899221992ed439b30cd21e26a9ad4faac2664736f6c63430008130033",
  "linkReferences": {
    "contracts/TestC.sol": {
      "TestC": [
        {
          "length": 20,
          "start": 193
        }
      ]
    },
    "contracts/TestD.sol": {
      "TestD": [
        {
          "length": 20,
          "start": 220
        }
      ]
    }
  },
  "deployedLinkReferences": {
    "contracts/TestC.sol": {
      "TestC": [
        {
          "length": 20,
          "start": 110
        }
      ]
    },
    "contracts/TestD.sol": {
      "TestD": [
        {
          "length": 20,
          "start": 137
        }
      ]
    }
  }
}