{
  "_format": "hh-sol-artifact-1",
  "contractName": "AnotherMatchersContract",
  "sourceName": "contracts/Matchers.sol",
  "abi": [
    {
      "inputs": [],
      "name": "YetAnotherCustomError",
      "type": "error"
    },
    {
      "inputs": [],
      "name": "revertWithYetAnotherCustomError",
      "outputs": [],
      "stateMutability": "nonpayable",
      "type": "function"
    },
    {
      "inputs": [],
      "name": "revertWithYetAnotherCustomErrorView",
      "outputs": [],
      "stateMutability": "pure",
      "type": "function"
    }
  ],
  "bytecode": "0x608060405234801561001057600080fd5b50610182806100206000396000f3fe608060405234801561001057600080fd5b50600436106100365760003560e01c806340d83b241461003b5780634b2bd7e914610045575b600080fd5b61004361004f565b005b61004d610081565b005b6040517fff05e87500000000000000000000000000000000000000000000000000000000815260040160405180910390fd5b600080815480929190610093906100d4565b91905055506040517fff05e87500000000000000000000000000000000000000000000000000000000815260040160405180910390fd5b6000819050919050565b60006100df826100ca565b91507fffffffffffffffffffffffffffffffffffffffffffffffffffffffffffffffff8214156101125761011161011d565b5b600182019050919050565b7f4e487b7100000000000000000000000000000000000000000000000000000000600052601160045260246000fdfea2646970667358221220188b4117d3c1f35f2fcbff7fbf51ee28f08c8abd18e3796ccd1d2fbc8c862e3f64736f6c63430008040033",
  "linkReferences": {},
  "deployedLinkReferences": {}
}