{
  "_format": "hh-sol-artifact-1",
  "contractName": "Matchers",
  "sourceName": "contracts/Matchers.sol",
  "abi": [
    {
      "inputs": [],
      "stateMutability": "nonpayable",
      "type": "constructor"
    },
    {
      "inputs": [],
      "name": "AnotherCustomError",
      "type": "error"
    },
    {
      "inputs": [
        {
          "internalType": "int256",
          "name": "",
          "type": "int256"
        }
      ],
      "name": "CustomErrorWithInt",
      "type": "error"
    },
    {
      "inputs": [
        {
          "components": [
            {
              "internalType": "uint256",
              "name": "a",
              "type": "uint256"
            },
            {
              "internalType": "uint256",
              "name": "b",
              "type": "uint256"
            }
          ],
          "internalType": "struct Matchers.Pair",
          "name": "",
          "type": "tuple"
        }
      ],
      "name": "CustomErrorWithPair",
      "type": "error"
    },
    {
      "inputs": [
        {
          "internalType": "uint256",
          "name": "nameToForceEthersToUseAnArrayLikeWithNamedProperties",
          "type": "uint256"
        }
      ],
      "name": "CustomErrorWithUint",
      "type": "error"
    },
    {
      "inputs": [
        {
          "internalType": "uint256",
          "name": "",
          "type": "uint256"
        },
        {
          "internalType": "string",
          "name": "",
          "type": "string"
        }
      ],
      "name": "CustomErrorWithUintAndString",
      "type": "error"
    },
    {
      "inputs": [],
      "name": "SomeCustomError",
      "type": "error"
    },
    {
      "anonymous": false,
      "inputs": [],
      "name": "SomeEvent",
      "type": "event"
    },
    {
      "inputs": [],
      "name": "panicAssert",
      "outputs": [],
      "stateMutability": "nonpayable",
      "type": "function"
    },
    {
      "inputs": [],
      "name": "panicAssertView",
      "outputs": [],
      "stateMutability": "pure",
      "type": "function"
    },
    {
      "inputs": [],
      "name": "revertWithAnotherContractCustomError",
      "outputs": [],
      "stateMutability": "nonpayable",
      "type": "function"
    },
    {
      "inputs": [],
      "name": "revertWithAnotherContractCustomErrorView",
      "outputs": [],
      "stateMutability": "view",
      "type": "function"
    },
    {
      "inputs": [],
      "name": "revertWithAnotherCustomError",
      "outputs": [],
      "stateMutability": "nonpayable",
      "type": "function"
    },
    {
      "inputs": [],
      "name": "revertWithAnotherCustomErrorView",
      "outputs": [],
      "stateMutability": "pure",
      "type": "function"
    },
    {
      "inputs": [
        {
          "internalType": "int256",
          "name": "i",
          "type": "int256"
        }
      ],
      "name": "revertWithCustomErrorWithInt",
      "outputs": [],
      "stateMutability": "nonpayable",
      "type": "function"
    },
    {
      "inputs": [
        {
          "internalType": "int256",
          "name": "i",
          "type": "int256"
        }
      ],
      "name": "revertWithCustomErrorWithIntView",
      "outputs": [],
      "stateMutability": "pure",
      "type": "function"
    },
    {
      "inputs": [
        {
          "internalType": "uint256",
          "name": "a",
          "type": "uint256"
        },
        {
          "internalType": "uint256",
          "name": "b",
          "type": "uint256"
        }
      ],
      "name": "revertWithCustomErrorWithPair",
      "outputs": [],
      "stateMutability": "nonpayable",
      "type": "function"
    },
    {
      "inputs": [
        {
          "internalType": "uint256",
          "name": "a",
          "type": "uint256"
        },
        {
          "internalType": "uint256",
          "name": "b",
          "type": "uint256"
        }
      ],
      "name": "revertWithCustomErrorWithPairView",
      "outputs": [],
      "stateMutability": "pure",
      "type": "function"
    },
    {
      "inputs": [
        {
          "internalType": "uint256",
          "name": "n",
          "type": "uint256"
        }
      ],
      "name": "revertWithCustomErrorWithUint",
      "outputs": [],
      "stateMutability": "nonpayable",
      "type": "function"
    },
    {
      "inputs": [
        {
          "internalType": "uint256",
          "name": "n",
          "type": "uint256"
        },
        {
          "internalType": "string",
          "name": "s",
          "type": "string"
        }
      ],
      "name": "revertWithCustomErrorWithUintAndString",
      "outputs": [],
      "stateMutability": "nonpayable",
      "type": "function"
    },
    {
      "inputs": [
        {
          "internalType": "uint256",
          "name": "n",
          "type": "uint256"
        },
        {
          "internalType": "string",
          "name": "s",
          "type": "string"
        }
      ],
      "name": "revertWithCustomErrorWithUintAndStringView",
      "outputs": [],
      "stateMutability": "pure",
      "type": "function"
    },
    {
      "inputs": [
        {
          "internalType": "uint256",
          "name": "n",
          "type": "uint256"
        }
      ],
      "name": "revertWithCustomErrorWithUintView",
      "outputs": [],
      "stateMutability": "pure",
      "type": "function"
    },
    {
      "inputs": [],
      "name": "revertWithSomeCustomError",
      "outputs": [],
      "stateMutability": "nonpayable",
      "type": "function"
    },
    {
      "inputs": [],
      "name": "revertWithSomeCustomErrorView",
      "outputs": [],
      "stateMutability": "pure",
      "type": "function"
    },
    {
      "inputs": [
        {
          "internalType": "string",
          "name": "reason",
          "type": "string"
        }
      ],
      "name": "revertsWith",
      "outputs": [],
      "stateMutability": "nonpayable",
      "type": "function"
    },
    {
      "inputs": [
        {
          "internalType": "string",
          "name": "reason",
          "type": "string"
        }
      ],
      "name": "revertsWithView",
      "outputs": [],
      "stateMutability": "pure",
      "type": "function"
    },
    {
      "inputs": [],
      "name": "revertsWithoutReason",
      "outputs": [],
      "stateMutability": "nonpayable",
      "type": "function"
    },
    {
      "inputs": [],
      "name": "revertsWithoutReasonView",
      "outputs": [],
      "stateMutability": "pure",
      "type": "function"
    },
    {
      "inputs": [],
      "name": "succeeds",
      "outputs": [],
      "stateMutability": "nonpayable",
      "type": "function"
    },
    {
      "inputs": [],
      "name": "succeedsView",
      "outputs": [
        {
          "internalType": "uint256",
          "name": "",
          "type": "uint256"
        }
      ],
      "stateMutability": "view",
      "type": "function"
    }
  ],
  "bytecode": "0x608060405234801561001057600080fd5b5060405161001d9061007f565b604051809103906000f080158015610039573d6000803e3d6000fd5b50600160006101000a81548173ffffffffffffffffffffffffffffffffffffffff021916908373ffffffffffffffffffffffffffffffffffffffff16021790555061008c565b6101a280610e8a83390190565b610def8061009b6000396000f3fe608060405234801561001057600080fd5b50600436106101425760003560e01c806373d2ea85116100b8578063aac014e01161007c578063aac014e01461028b578063b6bbe06114610295578063bad92aa91461029f578063e0a03812146102a9578063fe276a34146102c5578063ffb4746b146102e157610142565b806373d2ea851461022357806374afd4521461023f578063772f243a146102495780637c3cb0af146102535780638f9330301461026f57610142565b80634b5bbf6a1161010a5780634b5bbf6a146101c157806358a1d1ed146101cb5780635b94e31e146101d5578063622051f1146101df5780636f1fdc31146101e95780636fc588d21461020557610142565b80631b4f3f3d146101475780631f542cf3146101515780633ba4178b1461016d578063467e3d371461018957806347c56769146101a5575b600080fd5b61014f6102eb565b005b61016b60048036038101906101669190610a66565b61030f565b005b61018760048036038101906101829190610a12565b610360565b005b6101a3600480360381019061019e91906109a8565b61039f565b005b6101bf60048036038101906101ba919061097f565b6103e7565b005b6101c9610424565b005b6101d361046d565b005b6101dd61047a565b005b6101e76104b1565b005b61020360048036038101906101fe91906109a8565b610533565b005b61020d610592565b60405161021a9190610b8f565b60405180910390f35b61023d600480360381019061023891906109e9565b61059b565b005b6102476105ef565b005b610251610608565b005b61026d600480360381019061026891906109e9565b6106a3565b005b6102896004803603810190610284919061097f565b6106e0565b005b610293610734565b005b61029d610766565b005b6102a76107b4565b005b6102c360048036038101906102be9190610a66565b6107fd565b005b6102df60048036038101906102da9190610a12565b610865565b005b6102e96108bb565b005b6000808154809291906102fd90610cd3565b9190505550600061030d57600080fd5b565b6040518060400160405280838152602001828152506040517fdecab0e70000000000000000000000000000000000000000000000000000000081526004016103579190610b74565b60405180910390fd5b81816040517fa92ee8e3000000000000000000000000000000000000000000000000000000008152600401610396929190610baa565b60405180910390fd5b600081906103e3576040517f08c379a00000000000000000000000000000000000000000000000000000000081526004016103da9190610b52565b60405180910390fd5b5050565b806040517fcdd7a0cc00000000000000000000000000000000000000000000000000000000815260040161041b9190610b37565b60405180910390fd5b60008081548092919061043690610cd3565b91905055506040517fd2c097a600000000000000000000000000000000000000000000000000000000815260040160405180910390fd5b600061047857600080fd5b565b60006104af577f4e487b7100000000000000000000000000000000000000000000000000000000600052600160045260246000fd5b565b600160009054906101000a900473ffffffffffffffffffffffffffffffffffffffff1673ffffffffffffffffffffffffffffffffffffffff166340d83b246040518163ffffffff1660e01b815260040160006040518083038186803b15801561051957600080fd5b505afa15801561052d573d6000803e3d6000fd5b50505050565b60008081548092919061054590610cd3565b91905055506000819061058e576040517f08c379a00000000000000000000000000000000000000000000000000000000081526004016105859190610b52565b60405180910390fd5b5050565b60008054905090565b6000808154809291906105ad90610cd3565b9190505550806040517f01f4d5d20000000000000000000000000000000000000000000000000000000081526004016105e69190610b8f565b60405180910390fd5b60008081548092919061060190610cd3565b9190505550565b60008081548092919061061a90610cd3565b9190505550600160009054906101000a900473ffffffffffffffffffffffffffffffffffffffff1673ffffffffffffffffffffffffffffffffffffffff16634b2bd7e96040518163ffffffff1660e01b8152600401600060405180830381600087803b15801561068957600080fd5b505af115801561069d573d6000803e3d6000fd5b50505050565b806040517f01f4d5d20000000000000000000000000000000000000000000000000000000081526004016106d79190610b8f565b60405180910390fd5b6000808154809291906106f290610cd3565b9190505550806040517fcdd7a0cc00000000000000000000000000000000000000000000000000000000815260040161072b9190610b37565b60405180910390fd5b6040517fd2c097a600000000000000000000000000000000000000000000000000000000815260040160405180910390fd5b60008081548092919061077890610cd3565b919050555060006107b2577f4e487b7100000000000000000000000000000000000000000000000000000000600052600160045260246000fd5b565b6000808154809291906107c690610cd3565b91905055506040517f0bd3d39c00000000000000000000000000000000000000000000000000000000815260040160405180910390fd5b60008081548092919061080f90610cd3565b91905055506040518060400160405280838152602001828152506040517fdecab0e700000000000000000000000000000000000000000000000000000000815260040161085c9190610b74565b60405180910390fd5b60008081548092919061087790610cd3565b919050555081816040517fa92ee8e30000000000000000000000000000000000000000000000000000000081526004016108b2929190610baa565b60405180910390fd5b6040517f0bd3d39c00000000000000000000000000000000000000000000000000000000815260040160405180910390fd5b60006109006108fb84610bff565b610bda565b90508281526020810184848401111561091857600080fd5b610923848285610c60565b509392505050565b60008135905061093a81610d8b565b92915050565b600082601f83011261095157600080fd5b81356109618482602086016108ed565b91505092915050565b60008135905061097981610da2565b92915050565b60006020828403121561099157600080fd5b600061099f8482850161092b565b91505092915050565b6000602082840312156109ba57600080fd5b600082013567ffffffffffffffff8111156109d457600080fd5b6109e084828501610940565b91505092915050565b6000602082840312156109fb57600080fd5b6000610a098482850161096a565b91505092915050565b60008060408385031215610a2557600080fd5b6000610a338582860161096a565b925050602083013567ffffffffffffffff811115610a5057600080fd5b610a5c85828601610940565b9150509250929050565b60008060408385031215610a7957600080fd5b6000610a878582860161096a565b9250506020610a988582860161096a565b9150509250929050565b610aab81610c4c565b82525050565b6000610abc82610c30565b610ac68185610c3b565b9350610ad6818560208601610c6f565b610adf81610d7a565b840191505092915050565b604082016000820151610b006000850182610b19565b506020820151610b136020850182610b19565b50505050565b610b2281610c56565b82525050565b610b3181610c56565b82525050565b6000602082019050610b4c6000830184610aa2565b92915050565b60006020820190508181036000830152610b6c8184610ab1565b905092915050565b6000604082019050610b896000830184610aea565b92915050565b6000602082019050610ba46000830184610b28565b92915050565b6000604082019050610bbf6000830185610b28565b8181036020830152610bd18184610ab1565b90509392505050565b6000610be4610bf5565b9050610bf08282610ca2565b919050565b6000604051905090565b600067ffffffffffffffff821115610c1a57610c19610d4b565b5b610c2382610d7a565b9050602081019050919050565b600081519050919050565b600082825260208201905092915050565b6000819050919050565b6000819050919050565b82818337600083830152505050565b60005b83811015610c8d578082015181840152602081019050610c72565b83811115610c9c576000848401525b50505050565b610cab82610d7a565b810181811067ffffffffffffffff82111715610cca57610cc9610d4b565b5b80604052505050565b6000610cde82610c56565b91507fffffffffffffffffffffffffffffffffffffffffffffffffffffffffffffffff821415610d1157610d10610d1c565b5b600182019050919050565b7f4e487b7100000000000000000000000000000000000000000000000000000000600052601160045260246000fd5b7f4e487b7100000000000000000000000000000000000000000000000000000000600052604160045260246000fd5b6000601f19601f8301169050919050565b610d9481610c4c565b8114610d9f57600080fd5b50565b610dab81610c56565b8114610db657600080fd5b5056fea264697066735822122025e4c9eca28af81eeb16cfbb3832355e24c64c7eae221a5034159a671d61281464736f6c63430008040033608060405234801561001057600080fd5b50610182806100206000396000f3fe608060405234801561001057600080fd5b50600436106100365760003560e01c806340d83b241461003b5780634b2bd7e914610045575b600080fd5b61004361004f565b005b61004d610081565b005b6040517fff05e87500000000000000000000000000000000000000000000000000000000815260040160405180910390fd5b600080815480929190610093906100d4565b91905055506040517fff05e87500000000000000000000000000000000000000000000000000000000815260040160405180910390fd5b6000819050919050565b60006100df826100ca565b91507fffffffffffffffffffffffffffffffffffffffffffffffffffffffffffffffff8214156101125761011161011d565b5b600182019050919050565b7f4e487b7100000000000000000000000000000000000000000000000000000000600052601160045260246000fdfea2646970667358221220188b4117d3c1f35f2fcbff7fbf51ee28f08c8abd18e3796ccd1d2fbc8c862e3f64736f6c63430008040033",
  "linkReferences": {},
  "deployedLinkReferences": {}
}