{
  "_format": "hh-sol-artifact-1",
  "contractName": "AnotherContract",
  "sourceName": "contracts/Events.sol",
  "abi": [
    {
      "anonymous": false,
      "inputs": [
        {
          "indexed": false,
          "internalType": "uint256",
          "name": "u",
          "type": "uint256"
        }
      ],
      "name": "WithUintArg",
      "type": "event"
    },
    {
      "inputs": [
        {
          "internalType": "uint256",
          "name": "u",
          "type": "uint256"
        }
      ],
      "name": "emitUint",
      "outputs": [],
      "stateMutability": "nonpayable",
      "type": "function"
    }
  ],
  "bytecode": "0x608060405234801561001057600080fd5b50610130806100206000396000f3fe6080604052348015600f57600080fd5b506004361060285760003560e01c80639194024414602d575b600080fd5b60436004803603810190603f91906090565b6045565b005b7f97535d4b4270d3f1a499c85ae918ba6798cbdcc83a26529331a25dcd2194cfce816040516072919060c3565b60405180910390a150565b600081359050608a8160e6565b92915050565b60006020828403121560a157600080fd5b600060ad84828501607d565b91505092915050565b60bd8160dc565b82525050565b600060208201905060d6600083018460b6565b92915050565b6000819050919050565b60ed8160dc565b811460f757600080fd5b5056fea264697066735822122083cb9b1ec00d6d1ec78d28771d3bf4778c5ba00b0532a2448d42cbab653355a064736f6c63430008040033",
  "linkReferences": {},
  "deployedLinkReferences": {}
}