{
  "_format": "hh-sol-artifact-1",
  "contractName": "Events",
  "sourceName": "contracts/Events.sol",
  "abi": [
    {
      "inputs": [
        {
          "internalType": "contract AnotherContract",
          "name": "c",
          "type": "address"
        }
      ],
      "stateMutability": "nonpayable",
      "type": "constructor"
    },
    {
      "anonymous": false,
      "inputs": [
        {
          "indexed": false,
          "internalType": "address",
          "name": "a",
          "type": "address"
        }
      ],
      "name": "WithAddressArg",
      "type": "event"
    },
    {
      "anonymous": false,
      "inputs": [
        {
          "indexed": false,
          "internalType": "bytes32",
          "name": "b",
          "type": "bytes32"
        }
      ],
      "name": "WithBytes32Arg",
      "type": "event"
    },
    {
      "anonymous": false,
      "inputs": [
        {
          "indexed": false,
          "internalType": "bytes32[2]",
          "name": "a",
          "type": "bytes32[2]"
        }
      ],
      "name": "WithBytes32Array",
      "type": "event"
    },
    {
      "anonymous": false,
      "inputs": [
        {
          "indexed": false,
          "internalType": "bytes",
          "name": "b",
          "type": "bytes"
        }
      ],
      "name": "WithBytesArg",
      "type": "event"
    },
    {
      "anonymous": false,
      "inputs": [
        {
          "indexed": true,
          "internalType": "bytes32",
          "name": "b",
          "type": "bytes32"
        }
      ],
      "name": "WithIndexedBytes32Arg",
      "type": "event"
    },
    {
      "anonymous": false,
      "inputs": [
        {
          "indexed": true,
          "internalType": "bytes",
          "name": "b",
          "type": "bytes"
        }
      ],
      "name": "WithIndexedBytesArg",
      "type": "event"
    },
    {
      "anonymous": false,
      "inputs": [
        {
          "indexed": true,
          "internalType": "string",
          "name": "s",
          "type": "string"
        }
      ],
      "name": "WithIndexedStringArg",
      "type": "event"
    },
    {
      "anonymous": false,
      "inputs": [
        {
          "indexed": false,
          "internalType": "int256",
          "name": "i",
          "type": "int256"
        }
      ],
      "name": "WithIntArg",
      "type": "event"
    },
    {
      "anonymous": false,
      "inputs": [
        {
          "indexed": false,
          "internalType": "string",
          "name": "s",
          "type": "string"
        }
      ],
      "name": "WithStringArg",
      "type": "event"
    },
    {
      "anonymous": false,
      "inputs": [
        {
          "components": [
            {
              "internalType": "uint256",
              "name": "u",
              "type": "uint256"
            },
            {
              "internalType": "uint256",
              "name": "v",
              "type": "uint256"
            }
          ],
          "indexed": false,
          "internalType": "struct Events.Struct",
          "name": "s",
          "type": "tuple"
        }
      ],
      "name": "WithStructArg",
      "type": "event"
    },
    {
      "anonymous": false,
      "inputs": [
        {
          "indexed": false,
          "internalType": "string",
          "name": "s",
          "type": "string"
        },
        {
          "indexed": false,
          "internalType": "string",
          "name": "t",
          "type": "string"
        }
      ],
      "name": "WithTwoStringArgs",
      "type": "event"
    },
    {
      "anonymous": false,
      "inputs": [
        {
          "indexed": false,
          "internalType": "uint256",
          "name": "u",
          "type": "uint256"
        },
        {
          "indexed": false,
          "internalType": "uint256",
          "name": "v",
          "type": "uint256"
        }
      ],
      "name": "WithTwoUintArgs",
      "type": "event"
    },
    {
      "anonymous": false,
      "inputs": [
        {
          "indexed": false,
          "internalType": "uint256",
          "name": "u",
          "type": "uint256"
        }
      ],
      "name": "WithUintArg",
      "type": "event"
    },
    {
      "anonymous": false,
      "inputs": [
        {
          "indexed": false,
          "internalType": "uint256[2]",
          "name": "a",
          "type": "uint256[2]"
        }
      ],
      "name": "WithUintArray",
      "type": "event"
    },
    {
      "anonymous": false,
      "inputs": [],
      "name": "WithoutArgs",
      "type": "event"
    },
    {
      "inputs": [],
      "name": "doNotEmit",
      "outputs": [],
      "stateMutability": "nonpayable",
      "type": "function"
    },
    {
      "inputs": [
        {
          "internalType": "address",
          "name": "a",
          "type": "address"
        }
      ],
      "name": "emitAddress",
      "outputs": [],
      "stateMutability": "nonpayable",
      "type": "function"
    },
    {
      "inputs": [
        {
          "internalType": "bytes",
          "name": "b",
          "type": "bytes"
        }
      ],
      "name": "emitBytes",
      "outputs": [],
      "stateMutability": "nonpayable",
      "type": "function"
    },
    {
      "inputs": [
        {
          "internalType": "bytes32",
          "name": "b",
          "type": "bytes32"
        }
      ],
      "name": "emitBytes32",
      "outputs": [],
      "stateMutability": "nonpayable",
      "type": "function"
    },
    {
      "inputs": [
        {
          "internalType": "bytes32",
          "name": "b",
          "type": "bytes32"
        },
        {
          "internalType": "bytes32",
          "name": "c",
          "type": "bytes32"
        }
      ],
      "name": "emitBytes32Array",
      "outputs": [],
      "stateMutability": "nonpayable",
      "type": "function"
    },
    {
      "inputs": [
        {
          "internalType": "bytes",
          "name": "b",
          "type": "bytes"
        }
      ],
      "name": "emitIndexedBytes",
      "outputs": [],
      "stateMutability": "nonpayable",
      "type": "function"
    },
    {
      "inputs": [
        {
          "internalType": "bytes32",
          "name": "b",
          "type": "bytes32"
        }
      ],
      "name": "emitIndexedBytes32",
      "outputs": [],
      "stateMutability": "nonpayable",
      "type": "function"
    },
    {
      "inputs": [
        {
          "internalType": "string",
          "name": "s",
          "type": "string"
        }
      ],
      "name": "emitIndexedString",
      "outputs": [],
      "stateMutability": "nonpayable",
      "type": "function"
    },
    {
      "inputs": [
        {
          "internalType": "int256",
          "name": "i",
          "type": "int256"
        }
      ],
      "name": "emitInt",
      "outputs": [],
      "stateMutability": "nonpayable",
      "type": "function"
    },
    {
      "inputs": [
        {
          "internalType": "uint256",
          "name": "u",
          "type": "uint256"
        }
      ],
      "name": "emitNestedUintFromAnotherContract",
      "outputs": [],
      "stateMutability": "nonpayable",
      "type": "function"
    },
    {
      "inputs": [
        {
          "internalType": "uint256",
          "name": "u",
          "type": "uint256"
        }
      ],
      "name": "emitNestedUintFromSameContract",
      "outputs": [],
      "stateMutability": "nonpayable",
      "type": "function"
    },
    {
      "inputs": [
        {
          "internalType": "string",
          "name": "s",
          "type": "string"
        }
      ],
      "name": "emitString",
      "outputs": [],
      "stateMutability": "nonpayable",
      "type": "function"
    },
    {
      "inputs": [
        {
          "internalType": "uint256",
          "name": "u",
          "type": "uint256"
        },
        {
          "internalType": "uint256",
          "name": "v",
          "type": "uint256"
        }
      ],
      "name": "emitStruct",
      "outputs": [],
      "stateMutability": "nonpayable",
      "type": "function"
    },
    {
      "inputs": [
        {
          "internalType": "uint256",
          "name": "u",
          "type": "uint256"
        },
        {
          "internalType": "uint256",
          "name": "v",
          "type": "uint256"
        }
      ],
      "name": "emitTwoUints",
      "outputs": [],
      "stateMutability": "nonpayable",
      "type": "function"
    },
    {
      "inputs": [
        {
          "internalType": "uint256",
          "name": "u",
          "type": "uint256"
        },
        {
          "internalType": "uint256",
          "name": "v",
          "type": "uint256"
        },
        {
          "internalType": "string",
          "name": "s",
          "type": "string"
        },
        {
          "internalType": "string",
          "name": "t",
          "type": "string"
        }
      ],
      "name": "emitTwoUintsAndTwoStrings",
      "outputs": [],
      "stateMutability": "nonpayable",
      "type": "function"
    },
    {
      "inputs": [
        {
          "internalType": "uint256",
          "name": "u",
          "type": "uint256"
        }
      ],
      "name": "emitUint",
      "outputs": [],
      "stateMutability": "nonpayable",
      "type": "function"
    },
    {
      "inputs": [
        {
          "internalType": "uint256",
          "name": "u",
          "type": "uint256"
        },
        {
          "internalType": "string",
          "name": "s",
          "type": "string"
        }
      ],
      "name": "emitUintAndString",
      "outputs": [],
      "stateMutability": "nonpayable",
      "type": "function"
    },
    {
      "inputs": [
        {
          "internalType": "uint256",
          "name": "u",
          "type": "uint256"
        },
        {
          "internalType": "uint256",
          "name": "v",
          "type": "uint256"
        }
      ],
      "name": "emitUintArray",
      "outputs": [],
      "stateMutability": "nonpayable",
      "type": "function"
    },
    {
      "inputs": [
        {
          "internalType": "uint256",
          "name": "u",
          "type": "uint256"
        },
        {
          "internalType": "uint256",
          "name": "v",
          "type": "uint256"
        }
      ],
      "name": "emitUintTwice",
      "outputs": [],
      "stateMutability": "nonpayable",
      "type": "function"
    },
    {
      "inputs": [],
      "name": "emitWithoutArgs",
      "outputs": [],
      "stateMutability": "nonpayable",
      "type": "function"
    }
  ],
  "bytecode": "0x60806040523480156200001157600080fd5b506040516200140d3803806200140d833981810160405281019062000037919062000095565b806000806101000a81548173ffffffffffffffffffffffffffffffffffffffff021916908373ffffffffffffffffffffffffffffffffffffffff1602179055505062000123565b6000815190506200008f8162000109565b92915050565b600060208284031215620000a857600080fd5b6000620000b8848285016200007e565b91505092915050565b6000620000ce82620000e9565b9050919050565b6000620000e282620000c1565b9050919050565b600073ffffffffffffffffffffffffffffffffffffffff82169050919050565b6200011481620000d5565b81146200012057600080fd5b50565b6112da80620001336000396000f3fe608060405234801561001057600080fd5b506004361061012c5760003560e01c80638a618191116100ad578063c76f063511610071578063c76f0635146102c3578063cc07e605146102df578063d3931e57146102fb578063db6cdf6814610317578063ec5c3ede146103215761012c565b80638a6181911461024957806390b37ea214610265578063919402441461026f5780639f31a2231461028b578063c0cd80e6146102a75761012c565b806333311ef3116100f457806333311ef3146101bd57806338393646146101d9578063443690a0146101f5578063532b9cce14610211578063813a8cf51461022d5761012c565b8063048858e5146101315780630c0c941a1461014d57806317aba537146101695780632536f127146101855780632785f8d6146101a1575b600080fd5b61014b600480360381019061014691906109f0565b61033d565b005b61016760048036038101906101629190610b7d565b61036d565b005b610183600480360381019061017e9190610b7d565b6103df565b005b61019f600480360381019061019a9190610abf565b61042e565b005b6101bb60048036038101906101b69190610b29565b610468565b005b6101d760048036038101906101d291906109f0565b6104da565b005b6101f360048036038101906101ee9190610b7d565b610514565b005b61020f600480360381019061020a9190610abf565b610551565b005b61022b60048036038101906102269190610bb9565b610596565b005b61024760048036038101906102429190610b00565b61060e565b005b610263600480360381019061025e9190610a96565b61061a565b005b61026d610654565b005b61028960048036038101906102849190610b00565b610682565b005b6102a560048036038101906102a09190610b7d565b6106bc565b005b6102c160048036038101906102bc9190610a19565b61070b565b005b6102dd60048036038101906102d89190610a55565b61075a565b005b6102f960048036038101906102f49190610a55565b610794565b005b61031560048036038101906103109190610b00565b6107d9565b005b61031f610867565b005b61033b600480360381019061033691906109c7565b610869565b005b807fb421ad092cfce88844bfbfaa9654e824ba0ee5b6b0a220f822406b62c05364c060405160405180910390a250565b7f97535d4b4270d3f1a499c85ae918ba6798cbdcc83a26529331a25dcd2194cfce8260405161039c9190610fd2565b60405180910390a17f97535d4b4270d3f1a499c85ae918ba6798cbdcc83a26529331a25dcd2194cfce816040516103d39190610fd2565b60405180910390a15050565b7f73e687a2685d698f7acf934b4929a29ae783a4bcb640d71c5d6994d74e2380ca6040518060400160405280848152602001838152506040516104229190610eeb565b60405180910390a15050565b7f9b7ddcbde8dac280e036f87acafec72f9eee31a640c08087e8439139c7e5b52a8160405161045d9190610f5e565b60405180910390a150565b7f9b7ddcbde8dac280e036f87acafec72f9eee31a640c08087e8439139c7e5b52a816040516104979190610f5e565b60405180910390a17f97535d4b4270d3f1a499c85ae918ba6798cbdcc83a26529331a25dcd2194cfce826040516104ce9190610fd2565b60405180910390a15050565b7f425517d2678bbca3c0d9d8d9fdbec34c81194e7935ed48a6a19f97db93bcef6a816040516105099190610f06565b60405180910390a150565b7f8b268bb46a33a55bece084a8b6858719c9f2985c860fa06c155a341df0b73c0e8282604051610545929190610fed565b60405180910390a15050565b8060405161055f9190610e9e565b60405180910390207fd9ca28363e2d8739e0e9c4fea1d2df98d1bd7d9d915d00e5fccbf78c0fddcdb060405160405180910390a250565b7f8b268bb46a33a55bece084a8b6858719c9f2985c860fa06c155a341df0b73c0e84846040516105c7929190610fed565b60405180910390a17f1f1a2c748505fcd8f16a719fa88d517b1b41111c4f5e07bb28311cdc4d1515388282604051610600929190610f80565b60405180910390a150505050565b61061781610682565b50565b7f39feab747bb4f579008aea963d7ebac85ad410bb83ee663a42af01464654e93f816040516106499190610f43565b60405180910390a150565b7f917b7bf7ab24d61500cb699921a3a1cc22b8833da6484fea20f262b2610604af60405160405180910390a1565b7f97535d4b4270d3f1a499c85ae918ba6798cbdcc83a26529331a25dcd2194cfce816040516106b19190610fd2565b60405180910390a150565b7fd59ab87bf64b9d737998f3dc70c649d16b135f085029c1666ca0634beb75a7736040518060400160405280848152602001838152506040516106ff9190610fb7565b60405180910390a15050565b7f15100859f3ffe92910dc3f11ed3db4e9cf32ff657c05066e44be4e69b2b488bc60405180604001604052808481526020018381525060405161074e9190610ed0565b60405180910390a15050565b7f433470edcdd53b50238be4d8e048e2baa269af5be2a4e29515c138883c745aa8816040516107899190610f21565b60405180910390a150565b806040516107a29190610e87565b60405180910390207f160e4655df40987951accf7c731d5c504f77d20c139bd73032821b91a426dd9860405160405180910390a250565b60008054906101000a900473ffffffffffffffffffffffffffffffffffffffff1673ffffffffffffffffffffffffffffffffffffffff166391940244826040518263ffffffff1660e01b81526004016108329190610fd2565b600060405180830381600087803b15801561084c57600080fd5b505af1158015610860573d6000803e3d6000fd5b5050505050565b565b7f336bcd960d2e5a52cef6094ba33727f309dc2c675eebefc6d9b6b6d79abac877816040516108989190610eb5565b60405180910390a150565b60006108b66108b18461103b565b611016565b9050828152602081018484840111156108ce57600080fd5b6108d9848285611195565b509392505050565b60006108f46108ef8461106c565b611016565b90508281526020810184848401111561090c57600080fd5b610917848285611195565b509392505050565b60008135905061092e81611248565b92915050565b6000813590506109438161125f565b92915050565b600082601f83011261095a57600080fd5b813561096a8482602086016108a3565b91505092915050565b60008135905061098281611276565b92915050565b600082601f83011261099957600080fd5b81356109a98482602086016108e1565b91505092915050565b6000813590506109c18161128d565b92915050565b6000602082840312156109d957600080fd5b60006109e78482850161091f565b91505092915050565b600060208284031215610a0257600080fd5b6000610a1084828501610934565b91505092915050565b60008060408385031215610a2c57600080fd5b6000610a3a85828601610934565b9250506020610a4b85828601610934565b9150509250929050565b600060208284031215610a6757600080fd5b600082013567ffffffffffffffff811115610a8157600080fd5b610a8d84828501610949565b91505092915050565b600060208284031215610aa857600080fd5b6000610ab684828501610973565b91505092915050565b600060208284031215610ad157600080fd5b600082013567ffffffffffffffff811115610aeb57600080fd5b610af784828501610988565b91505092915050565b600060208284031215610b1257600080fd5b6000610b20848285016109b2565b91505092915050565b60008060408385031215610b3c57600080fd5b6000610b4a858286016109b2565b925050602083013567ffffffffffffffff811115610b6757600080fd5b610b7385828601610988565b9150509250929050565b60008060408385031215610b9057600080fd5b6000610b9e858286016109b2565b9250506020610baf858286016109b2565b9150509250929050565b60008060008060808587031215610bcf57600080fd5b6000610bdd878288016109b2565b9450506020610bee878288016109b2565b935050604085013567ffffffffffffffff811115610c0b57600080fd5b610c1787828801610988565b925050606085013567ffffffffffffffff811115610c3457600080fd5b610c4087828801610988565b91505092959194509250565b6000610c588383610d39565b60208301905092915050565b6000610c708383610e69565b60208301905092915050565b610c8581611145565b82525050565b610c94816110b1565b610c9e81846110f7565b9250610ca98261109d565b8060005b83811015610cda578151610cc18782610c4c565b9650610ccc836110dd565b925050600181019050610cad565b505050505050565b610ceb816110bc565b610cf58184611102565b9250610d00826110a7565b8060005b83811015610d31578151610d188782610c64565b9650610d23836110ea565b925050600181019050610d04565b505050505050565b610d4281611157565b82525050565b610d5181611157565b82525050565b6000610d62826110c7565b610d6c818561110d565b9350610d7c8185602086016111a4565b610d8581611237565b840191505092915050565b6000610d9b826110c7565b610da5818561111e565b9350610db58185602086016111a4565b80840191505092915050565b610dca81611161565b82525050565b6000610ddb826110d2565b610de58185611129565b9350610df58185602086016111a4565b610dfe81611237565b840191505092915050565b6000610e14826110d2565b610e1e818561113a565b9350610e2e8185602086016111a4565b80840191505092915050565b604082016000820151610e506000850182610e69565b506020820151610e636020850182610e69565b50505050565b610e728161118b565b82525050565b610e818161118b565b82525050565b6000610e938284610d90565b915081905092915050565b6000610eaa8284610e09565b915081905092915050565b6000602082019050610eca6000830184610c7c565b92915050565b6000604082019050610ee56000830184610c8b565b92915050565b6000604082019050610f006000830184610ce2565b92915050565b6000602082019050610f1b6000830184610d48565b92915050565b60006020820190508181036000830152610f3b8184610d57565b905092915050565b6000602082019050610f586000830184610dc1565b92915050565b60006020820190508181036000830152610f788184610dd0565b905092915050565b60006040820190508181036000830152610f9a8185610dd0565b90508181036020830152610fae8184610dd0565b90509392505050565b6000604082019050610fcc6000830184610e3a565b92915050565b6000602082019050610fe76000830184610e78565b92915050565b60006040820190506110026000830185610e78565b61100f6020830184610e78565b9392505050565b6000611020611031565b905061102c82826111d7565b919050565b6000604051905090565b600067ffffffffffffffff82111561105657611055611208565b5b61105f82611237565b9050602081019050919050565b600067ffffffffffffffff82111561108757611086611208565b5b61109082611237565b9050602081019050919050565b6000819050919050565b6000819050919050565b600060029050919050565b600060029050919050565b600081519050919050565b600081519050919050565b6000602082019050919050565b6000602082019050919050565b600081905092915050565b600081905092915050565b600082825260208201905092915050565b600081905092915050565b600082825260208201905092915050565b600081905092915050565b60006111508261116b565b9050919050565b6000819050919050565b6000819050919050565b600073ffffffffffffffffffffffffffffffffffffffff82169050919050565b6000819050919050565b82818337600083830152505050565b60005b838110156111c25780820151818401526020810190506111a7565b838111156111d1576000848401525b50505050565b6111e082611237565b810181811067ffffffffffffffff821117156111ff576111fe611208565b5b80604052505050565b7f4e487b7100000000000000000000000000000000000000000000000000000000600052604160045260246000fd5b6000601f19601f8301169050919050565b61125181611145565b811461125c57600080fd5b50565b61126881611157565b811461127357600080fd5b50565b61127f81611161565b811461128a57600080fd5b50565b6112968161118b565b81146112a157600080fd5b5056fea264697066735822122073a91a740c0de3883c5213c5981d98d2396a8b60b3cf2fb364d7e4cc826a841e64736f6c63430008040033",
  "linkReferences": {},
  "deployedLinkReferences": {}
}