{
  "_format": "hh-sol-artifact-1",
  "contractName": "OverrideEventContract",
  "sourceName": "contracts/Events.sol",
  "abi": [
    {
      "anonymous": false,
      "inputs": [
        {
          "indexed": false,
          "internalType": "uint256",
          "name": "u",
          "type": "uint256"
        }
      ],
      "name": "simpleEvent",
      "type": "event"
    },
    {
      "anonymous": false,
      "inputs": [],
      "name": "simpleEvent",
      "type": "event"
    },
    {
      "inputs": [
        {
          "internalType": "uint256",
          "name": "u",
          "type": "uint256"
        }
      ],
      "name": "emitSimpleEventWithUintArg",
      "outputs": [],
      "stateMutability": "nonpayable",
      "type": "function"
    },
    {
      "inputs": [],
      "name": "emitSimpleEventWithoutArg",
      "outputs": [],
      "stateMutability": "nonpayable",
      "type": "function"
    }
  ],
  "bytecode": "0x608060405234801561001057600080fd5b50610188806100206000396000f3fe608060405234801561001057600080fd5b50600436106100365760003560e01c80632ce136d91461003b5780638e1c72bb14610057575b600080fd5b610055600480360381019061005091906100de565b610061565b005b61005f61009b565b005b7fb2dc4835200bc382210c109031e47d05b37c9244807898f5910a43f961e6719a816040516100909190610116565b60405180910390a150565b7f8922a6ca0f59f137d8e739a3dca968247fca890d147a5006a57da5bc782f6ae960405160405180910390a1565b6000813590506100d88161013b565b92915050565b6000602082840312156100f057600080fd5b60006100fe848285016100c9565b91505092915050565b61011081610131565b82525050565b600060208201905061012b6000830184610107565b92915050565b6000819050919050565b61014481610131565b811461014f57600080fd5b5056fea264697066735822122016232a4f6ea73657adfebd142c8d15f5593e419f600cb1983aba440defd27a5064736f6c63430008040033",
  "linkReferences": {},
  "deployedLinkReferences": {}
}