{
  "_format": "hh-sol-artifact-1",
  "contractName": "TokenWithoutNameNorSymbol",
  "sourceName": "contracts/Token.sol",
  "abi": [
    {
      "inputs": [],
      "stateMutability": "nonpayable",
      "type": "constructor"
    },
    {
      "inputs": [
        {
          "internalType": "address",
          "name": "owner",
          "type": "address"
        },
        {
          "internalType": "address",
          "name": "spender",
          "type": "address"
        }
      ],
      "name": "allowance",
      "outputs": [
        {
          "internalType": "uint256",
          "name": "remaining",
          "type": "uint256"
        }
      ],
      "stateMutability": "view",
      "type": "function"
    },
    {
      "inputs": [
        {
          "internalType": "address",
          "name": "spender",
          "type": "address"
        },
        {
          "internalType": "uint256",
          "name": "value",
          "type": "uint256"
        }
      ],
      "name": "approve",
      "outputs": [
        {
          "internalType": "bool",
          "name": "success",
          "type": "bool"
        }
      ],
      "stateMutability": "nonpayable",
      "type": "function"
    },
    {
      "inputs": [
        {
          "internalType": "address",
          "name": "",
          "type": "address"
        }
      ],
      "name": "balanceOf",
      "outputs": [
        {
          "internalType": "uint256",
          "name": "",
          "type": "uint256"
        }
      ],
      "stateMutability": "view",
      "type": "function"
    },
    {
      "inputs": [],
      "name": "decimals",
      "outputs": [
        {
          "internalType": "uint256",
          "name": "",
          "type": "uint256"
        }
      ],
      "stateMutability": "view",
      "type": "function"
    },
    {
      "inputs": [],
      "name": "totalSupply",
      "outputs": [
        {
          "internalType": "uint256",
          "name": "",
          "type": "uint256"
        }
      ],
      "stateMutability": "view",
      "type": "function"
    },
    {
      "inputs": [
        {
          "internalType": "address",
          "name": "to",
          "type": "address"
        },
        {
          "internalType": "uint256",
          "name": "value",
          "type": "uint256"
        }
      ],
      "name": "transfer",
      "outputs": [
        {
          "internalType": "bool",
          "name": "",
          "type": "bool"
        }
      ],
      "stateMutability": "nonpayable",
      "type": "function"
    },
    {
      "inputs": [
        {
          "internalType": "address",
          "name": "from",
          "type": "address"
        },
        {
          "internalType": "address",
          "name": "to",
          "type": "address"
        },
        {
          "internalType": "uint256",
          "name": "value",
          "type": "uint256"
        }
      ],
      "name": "transferFrom",
      "outputs": [
        {
          "internalType": "bool",
          "name": "",
          "type": "bool"
        }
      ],
      "stateMutability": "nonpayable",
      "type": "function"
    }
  ],
  "bytecode": "0x6080604052600160005534801561001557600080fd5b50633b9aca00600181905550600154600260003373ffffffffffffffffffffffffffffffffffffffff1673ffffffffffffffffffffffffffffffffffffffff16815260200190815260200160002081905550610934806100766000396000f3fe608060405234801561001057600080fd5b506004361061007d5760003560e01c8063313ce5671161005b578063313ce5671461010057806370a082311461011e578063a9059cbb1461014e578063dd62ed3e1461017e5761007d565b8063095ea7b31461008257806318160ddd146100b257806323b872dd146100d0575b600080fd5b61009c60048036038101906100979190610656565b6101ae565b6040516100a991906106f6565b60405180910390f35b6100ba61023b565b6040516100c79190610751565b60405180910390f35b6100ea60048036038101906100e59190610607565b610241565b6040516100f791906106f6565b60405180910390f35b6101086103d9565b6040516101159190610751565b60405180910390f35b610138600480360381019061013391906105a2565b6103df565b6040516101459190610751565b60405180910390f35b61016860048036038101906101639190610656565b6103f7565b60405161017591906106f6565b60405180910390f35b610198600480360381019061019391906105cb565b6104f1565b6040516101a59190610751565b60405180910390f35b600081600360003373ffffffffffffffffffffffffffffffffffffffff1673ffffffffffffffffffffffffffffffffffffffff16815260200190815260200160002060008573ffffffffffffffffffffffffffffffffffffffff1673ffffffffffffffffffffffffffffffffffffffff168152602001908152602001600020819055506001905092915050565b60015481565b60008161024e85336104f1565b101561028f576040517f08c379a000000000000000000000000000000000000000000000000000000000815260040161028690610711565b60405180910390fd5b81600360008673ffffffffffffffffffffffffffffffffffffffff1673ffffffffffffffffffffffffffffffffffffffff16815260200190815260200160002060003373ffffffffffffffffffffffffffffffffffffffff1673ffffffffffffffffffffffffffffffffffffffff168152602001908152602001600020600082825461031b91906107d3565b9250508190555081600260008673ffffffffffffffffffffffffffffffffffffffff1673ffffffffffffffffffffffffffffffffffffffff168152602001908152602001600020600082825461037191906107d3565b9250508190555081600260008573ffffffffffffffffffffffffffffffffffffffff1673ffffffffffffffffffffffffffffffffffffffff16815260200190815260200160002060008282546103c7919061077d565b92505081905550600190509392505050565b60005481565b60026020528060005260406000206000915090505481565b600080821161043b576040517f08c379a000000000000000000000000000000000000000000000000000000000815260040161043290610731565b60405180910390fd5b81600260003373ffffffffffffffffffffffffffffffffffffffff1673ffffffffffffffffffffffffffffffffffffffff168152602001908152602001600020600082825461048a91906107d3565b9250508190555081600260008573ffffffffffffffffffffffffffffffffffffffff1673ffffffffffffffffffffffffffffffffffffffff16815260200190815260200160002060008282546104e0919061077d565b925050819055506001905092915050565b6000600360008473ffffffffffffffffffffffffffffffffffffffff1673ffffffffffffffffffffffffffffffffffffffff16815260200190815260200160002060008373ffffffffffffffffffffffffffffffffffffffff1673ffffffffffffffffffffffffffffffffffffffff16815260200190815260200160002054905092915050565b600081359050610587816108d0565b92915050565b60008135905061059c816108e7565b92915050565b6000602082840312156105b457600080fd5b60006105c284828501610578565b91505092915050565b600080604083850312156105de57600080fd5b60006105ec85828601610578565b92505060206105fd85828601610578565b9150509250929050565b60008060006060848603121561061c57600080fd5b600061062a86828701610578565b935050602061063b86828701610578565b925050604061064c8682870161058d565b9150509250925092565b6000806040838503121561066957600080fd5b600061067785828601610578565b92505060206106888582860161058d565b9150509250929050565b61069b81610819565b82525050565b60006106ae60168361076c565b91506106b98261087e565b602082019050919050565b60006106d160198361076c565b91506106dc826108a7565b602082019050919050565b6106f081610845565b82525050565b600060208201905061070b6000830184610692565b92915050565b6000602082019050818103600083015261072a816106a1565b9050919050565b6000602082019050818103600083015261074a816106c4565b9050919050565b600060208201905061076660008301846106e7565b92915050565b600082825260208201905092915050565b600061078882610845565b915061079383610845565b9250827fffffffffffffffffffffffffffffffffffffffffffffffffffffffffffffffff038211156107c8576107c761084f565b5b828201905092915050565b60006107de82610845565b91506107e983610845565b9250828210156107fc576107fb61084f565b5b828203905092915050565b600061081282610825565b9050919050565b60008115159050919050565b600073ffffffffffffffffffffffffffffffffffffffff82169050919050565b6000819050919050565b7f4e487b7100000000000000000000000000000000000000000000000000000000600052601160045260246000fd5b7f496e73756666696369656e7420616c6c6f77616e636500000000000000000000600082015250565b7f5472616e736665727265642076616c7565206973207a65726f00000000000000600082015250565b6108d981610807565b81146108e457600080fd5b50565b6108f081610845565b81146108fb57600080fd5b5056fea2646970667358221220a8a6918adf2af132e4e49a96a108a2d9c62cfb74de3e267b6c8af323b87f6ec964736f6c63430008040033",
  "linkReferences": {},
  "deployedLinkReferences": {}
}