{
  "_format": "hh-sol-artifact-1",
  "contractName": "TokenWithOnlyName",
  "sourceName": "contracts/Token.sol",
  "abi": [
    {
      "inputs": [
        {
          "internalType": "address",
          "name": "owner",
          "type": "address"
        },
        {
          "internalType": "address",
          "name": "spender",
          "type": "address"
        }
      ],
      "name": "allowance",
      "outputs": [
        {
          "internalType": "uint256",
          "name": "remaining",
          "type": "uint256"
        }
      ],
      "stateMutability": "view",
      "type": "function"
    },
    {
      "inputs": [
        {
          "internalType": "address",
          "name": "spender",
          "type": "address"
        },
        {
          "internalType": "uint256",
          "name": "value",
          "type": "uint256"
        }
      ],
      "name": "approve",
      "outputs": [
        {
          "internalType": "bool",
          "name": "success",
          "type": "bool"
        }
      ],
      "stateMutability": "nonpayable",
      "type": "function"
    },
    {
      "inputs": [
        {
          "internalType": "address",
          "name": "",
          "type": "address"
        }
      ],
      "name": "balanceOf",
      "outputs": [
        {
          "internalType": "uint256",
          "name": "",
          "type": "uint256"
        }
      ],
      "stateMutability": "view",
      "type": "function"
    },
    {
      "inputs": [],
      "name": "decimals",
      "outputs": [
        {
          "internalType": "uint256",
          "name": "",
          "type": "uint256"
        }
      ],
      "stateMutability": "view",
      "type": "function"
    },
    {
      "inputs": [],
      "name": "name",
      "outputs": [
        {
          "internalType": "string",
          "name": "",
          "type": "string"
        }
      ],
      "stateMutability": "view",
      "type": "function"
    },
    {
      "inputs": [],
      "name": "totalSupply",
      "outputs": [
        {
          "internalType": "uint256",
          "name": "",
          "type": "uint256"
        }
      ],
      "stateMutability": "view",
      "type": "function"
    },
    {
      "inputs": [
        {
          "internalType": "address",
          "name": "to",
          "type": "address"
        },
        {
          "internalType": "uint256",
          "name": "value",
          "type": "uint256"
        }
      ],
      "name": "transfer",
      "outputs": [
        {
          "internalType": "bool",
          "name": "",
          "type": "bool"
        }
      ],
      "stateMutability": "nonpayable",
      "type": "function"
    },
    {
      "inputs": [
        {
          "internalType": "address",
          "name": "from",
          "type": "address"
        },
        {
          "internalType": "address",
          "name": "to",
          "type": "address"
        },
        {
          "internalType": "uint256",
          "name": "value",
          "type": "uint256"
        }
      ],
      "name": "transferFrom",
      "outputs": [
        {
          "internalType": "bool",
          "name": "",
          "type": "bool"
        }
      ],
      "stateMutability": "nonpayable",
      "type": "function"
    }
  ],
  "bytecode": "0x608060405260016000556040518060400160405280600981526020017f4d6f636b546f6b656e0000000000000000000000000000000000000000000000815250600490805190602001906100549291906100b8565b5034801561006157600080fd5b50633b9aca00600181905550600154600260003373ffffffffffffffffffffffffffffffffffffffff1673ffffffffffffffffffffffffffffffffffffffff168152602001908152602001600020819055506101bc565b8280546100c49061015b565b90600052602060002090601f0160209004810192826100e6576000855561012d565b82601f106100ff57805160ff191683800117855561012d565b8280016001018555821561012d579182015b8281111561012c578251825591602001919060010190610111565b5b50905061013a919061013e565b5090565b5b8082111561015757600081600090555060010161013f565b5090565b6000600282049050600182168061017357607f821691505b602082108114156101875761018661018d565b5b50919050565b7f4e487b7100000000000000000000000000000000000000000000000000000000600052602260045260246000fd5b610af6806101cb6000396000f3fe608060405234801561001057600080fd5b50600436106100885760003560e01c8063313ce5671161005b578063313ce5671461012957806370a0823114610147578063a9059cbb14610177578063dd62ed3e146101a757610088565b806306fdde031461008d578063095ea7b3146100ab57806318160ddd146100db57806323b872dd146100f9575b600080fd5b6100956101d7565b6040516100a29190610801565b60405180910390f35b6100c560048036038101906100c0919061070d565b610265565b6040516100d291906107e6565b60405180910390f35b6100e36102f2565b6040516100f09190610863565b60405180910390f35b610113600480360381019061010e91906106be565b6102f8565b60405161012091906107e6565b60405180910390f35b610131610490565b60405161013e9190610863565b60405180910390f35b610161600480360381019061015c9190610659565b610496565b60405161016e9190610863565b60405180910390f35b610191600480360381019061018c919061070d565b6104ae565b60405161019e91906107e6565b60405180910390f35b6101c160048036038101906101bc9190610682565b6105a8565b6040516101ce9190610863565b60405180910390f35b600480546101e49061099f565b80601f01602080910402602001604051908101604052809291908181526020018280546102109061099f565b801561025d5780601f106102325761010080835404028352916020019161025d565b820191906000526020600020905b81548152906001019060200180831161024057829003601f168201915b505050505081565b600081600360003373ffffffffffffffffffffffffffffffffffffffff1673ffffffffffffffffffffffffffffffffffffffff16815260200190815260200160002060008573ffffffffffffffffffffffffffffffffffffffff1673ffffffffffffffffffffffffffffffffffffffff168152602001908152602001600020819055506001905092915050565b60015481565b60008161030585336105a8565b1015610346576040517f08c379a000000000000000000000000000000000000000000000000000000000815260040161033d90610823565b60405180910390fd5b81600360008673ffffffffffffffffffffffffffffffffffffffff1673ffffffffffffffffffffffffffffffffffffffff16815260200190815260200160002060003373ffffffffffffffffffffffffffffffffffffffff1673ffffffffffffffffffffffffffffffffffffffff16815260200190815260200160002060008282546103d291906108f0565b9250508190555081600260008673ffffffffffffffffffffffffffffffffffffffff1673ffffffffffffffffffffffffffffffffffffffff168152602001908152602001600020600082825461042891906108f0565b9250508190555081600260008573ffffffffffffffffffffffffffffffffffffffff1673ffffffffffffffffffffffffffffffffffffffff168152602001908152602001600020600082825461047e919061089a565b92505081905550600190509392505050565b60005481565b60026020528060005260406000206000915090505481565b60008082116104f2576040517f08c379a00000000000000000000000000000000000000000000000000000000081526004016104e990610843565b60405180910390fd5b81600260003373ffffffffffffffffffffffffffffffffffffffff1673ffffffffffffffffffffffffffffffffffffffff168152602001908152602001600020600082825461054191906108f0565b9250508190555081600260008573ffffffffffffffffffffffffffffffffffffffff1673ffffffffffffffffffffffffffffffffffffffff1681526020019081526020016000206000828254610597919061089a565b925050819055506001905092915050565b6000600360008473ffffffffffffffffffffffffffffffffffffffff1673ffffffffffffffffffffffffffffffffffffffff16815260200190815260200160002060008373ffffffffffffffffffffffffffffffffffffffff1673ffffffffffffffffffffffffffffffffffffffff16815260200190815260200160002054905092915050565b60008135905061063e81610a92565b92915050565b60008135905061065381610aa9565b92915050565b60006020828403121561066b57600080fd5b60006106798482850161062f565b91505092915050565b6000806040838503121561069557600080fd5b60006106a38582860161062f565b92505060206106b48582860161062f565b9150509250929050565b6000806000606084860312156106d357600080fd5b60006106e18682870161062f565b93505060206106f28682870161062f565b925050604061070386828701610644565b9150509250925092565b6000806040838503121561072057600080fd5b600061072e8582860161062f565b925050602061073f85828601610644565b9150509250929050565b61075281610936565b82525050565b60006107638261087e565b61076d8185610889565b935061077d81856020860161096c565b61078681610a2f565b840191505092915050565b600061079e601683610889565b91506107a982610a40565b602082019050919050565b60006107c1601983610889565b91506107cc82610a69565b602082019050919050565b6107e081610962565b82525050565b60006020820190506107fb6000830184610749565b92915050565b6000602082019050818103600083015261081b8184610758565b905092915050565b6000602082019050818103600083015261083c81610791565b9050919050565b6000602082019050818103600083015261085c816107b4565b9050919050565b600060208201905061087860008301846107d7565b92915050565b600081519050919050565b600082825260208201905092915050565b60006108a582610962565b91506108b083610962565b9250827fffffffffffffffffffffffffffffffffffffffffffffffffffffffffffffffff038211156108e5576108e46109d1565b5b828201905092915050565b60006108fb82610962565b915061090683610962565b925082821015610919576109186109d1565b5b828203905092915050565b600061092f82610942565b9050919050565b60008115159050919050565b600073ffffffffffffffffffffffffffffffffffffffff82169050919050565b6000819050919050565b60005b8381101561098a57808201518184015260208101905061096f565b83811115610999576000848401525b50505050565b600060028204905060018216806109b757607f821691505b602082108114156109cb576109ca610a00565b5b50919050565b7f4e487b7100000000000000000000000000000000000000000000000000000000600052601160045260246000fd5b7f4e487b7100000000000000000000000000000000000000000000000000000000600052602260045260246000fd5b6000601f19601f8301169050919050565b7f496e73756666696369656e7420616c6c6f77616e636500000000000000000000600082015250565b7f5472616e736665727265642076616c7565206973207a65726f00000000000000600082015250565b610a9b81610924565b8114610aa657600080fd5b50565b610ab281610962565b8114610abd57600080fd5b5056fea2646970667358221220a6fcd04aa893368d0e3e9a004a848844c520623183d6b2111fbc6f837204d0fa64736f6c63430008040033",
  "linkReferences": {},
  "deployedLinkReferences": {}
}