{
  "_format": "hh-sol-artifact-1",
  "contractName": "UUUUU",
  "sourceName": "contracts/Lib.sol",
  "abi": [
    {
      "anonymous": false,
      "inputs": [
        {
          "indexed": false,
          "internalType": "uint256",
          "name": "bf",
          "type": "uint256"
        }
      ],
      "name": "yu",
      "type": "event"
    },
    {
      "inputs": [],
      "name": "cn",
      "outputs": [
        {
          "internalType": "uint256",
          "name": "",
          "type": "uint256"
        }
      ],
      "stateMutability": "pure",
      "type": "function"
    }
  ],
  "bytecode": "0x61023a610053600b82828239805160001a607314610046577f4e487b7100000000000000000000000000000000000000000000000000000000600052600060045260246000fd5b30600052607381538281f3fe73000000000000000000000000000000000000000030146080604052600436106100405760003560e01c8063856c67f414610045578063a3a79ad71461006e575b600080fd5b81801561005157600080fd5b5061006c60048036038101906100679190610120565b61008c565b005b6100766100d8565b604051610083919061015c565b60405180910390f35b7fbbd59f58682e05b023d29551eca4f8ef7fb7413f5dc80469ddef4d332586fd256100b56100d8565b826100c091906101a6565b6040516100cd91906101e9565b60405180910390a150565b6000641cbe86ba4d905090565b600080fd5b6000819050919050565b6100fd816100ea565b811461010857600080fd5b50565b60008135905061011a816100f4565b92915050565b600060208284031215610136576101356100e5565b5b60006101448482850161010b565b91505092915050565b610156816100ea565b82525050565b6000602082019050610171600083018461014d565b92915050565b7f4e487b7100000000000000000000000000000000000000000000000000000000600052601160045260246000fd5b60006101b1826100ea565b91506101bc836100ea565b92508282019050808211156101d4576101d3610177565b5b92915050565b6101e3816100ea565b82525050565b60006020820190506101fe60008301846101da565b9291505056fea2646970667358221220c15d1d30c7e4fcaa2bcd8092153ba13d28b770b6e90531af7317221cc4a474dd64736f6c63430008130033",
  "linkReferences": {},
  "deployedLinkReferences": {}
}