{
  "_format": "hh-sol-artifact-1",
  "contractName": "TestC",
  "sourceName": "contracts/TestC.sol",
  "abi": [
    {
      "inputs": [
        {
          "internalType": "uint256",
          "name": "a",
          "type": "uint256"
        },
        {
          "internalType": "uint256",
          "name": "b",
          "type": "uint256"
        }
      ],
      "name": "sum",
      "outputs": [
        {
          "internalType": "uint256",
          "name": "",
          "type": "uint256"
        }
      ],
      "stateMutability": "pure",
      "type": "function"
    }
  ],
  "bytecode": "0x610234610053600b82828239805160001a607314610046577f4e487b7100000000000000000000000000000000000000000000000000000000600052600060045260246000fd5b30600052607381538281f3fe73000000000000000000000000000000000000000030146080604052600436106100355760003560e01c8063cad0899b1461003a575b600080fd5b610054600480360381019061004f9190610129565b61006a565b6040516100619190610178565b60405180910390f35b600073__$3fa06892d414312f70326060dfc06e0087$__63cad0899b84846040518363ffffffff1660e01b81526004016100a5929190610193565b602060405180830381865af41580156100c2573d6000803e3d6000fd5b505050506040513d601f19601f820116820180604052508101906100e691906101d1565b905092915050565b600080fd5b6000819050919050565b610106816100f3565b811461011157600080fd5b50565b600081359050610123816100fd565b92915050565b600080604083850312156101405761013f6100ee565b5b600061014e85828601610114565b925050602061015f85828601610114565b9150509250929050565b610172816100f3565b82525050565b600060208201905061018d6000830184610169565b92915050565b60006040820190506101a86000830185610169565b6101b56020830184610169565b9392505050565b6000815190506101cb816100fd565b92915050565b6000602082840312156101e7576101e66100ee565b5b60006101f5848285016101bc565b9150509291505056fea264697066735822122024415ac821281eba4a04ac4443e09eab95a2381de7e62a3a62fe726c54e8a3d764736f6c63430008130033",
  "linkReferences": {
    "contracts/TestD.sol": {
      "TestD": [
        {
          "length": 20,
          "start": 193
        }
      ]
    }
  },
  "deployedLinkReferences": {
    "contracts/TestD.sol": {
      "TestD": [
        {
          "length": 20,
          "start": 110
        }
      ]
    }
  }
}