{
  "_format": "hh-sol-artifact-1",
  "contractName": "TestA",
  "sourceName": "contracts/TestA.sol",
  "abi": [
    {
      "inputs": [
        {
          "internalType": "uint256",
          "name": "_a",
          "type": "uint256"
        },
        {
          "internalType": "uint256",
          "name": "_b",
          "type": "uint256"
        }
      ],
      "stateMutability": "nonpayable",
      "type": "constructor"
    },
    {
      "inputs": [],
      "name": "sum",
      "outputs": [
        {
          "internalType": "uint256",
          "name": "",
          "type": "uint256"
        }
      ],
      "stateMutability": "view",
      "type": "function"
    }
  ],
  "bytecode": "0x608060405234801561001057600080fd5b5060405161025c38038061025c833981810160405281019061003291906100f6565b8173__$9fa3a4b36eea03935ac7879fed7cda438e$__63cad0899b9091836040518363ffffffff1660e01b815260040161006d929190610145565b602060405180830381865af415801561008a573d6000803e3d6000fd5b505050506040513d601f19601f820116820180604052508101906100ae919061016e565b600081905550505061019b565b600080fd5b6000819050919050565b6100d3816100c0565b81146100de57600080fd5b50565b6000815190506100f0816100ca565b92915050565b6000806040838503121561010d5761010c6100bb565b5b600061011b858286016100e1565b925050602061012c858286016100e1565b9150509250929050565b61013f816100c0565b82525050565b600060408201905061015a6000830185610136565b6101676020830184610136565b9392505050565b600060208284031215610184576101836100bb565b5b6000610192848285016100e1565b91505092915050565b60b3806101a96000396000f3fe6080604052348015600f57600080fd5b506004361060285760003560e01c8063853255cc14602d575b600080fd5b60336047565b604051603e91906064565b60405180910390f35b60005481565b6000819050919050565b605e81604d565b82525050565b6000602082019050607760008301846057565b9291505056fea2646970667358221220ed8950fa3d7184d2692eb6136b1815845d0f7c330e78b5948e12f2e35fd9b24564736f6c63430008130033",
  "linkReferences": {
    "contracts/TestB.sol": {
      "TestB": [
        {
          "length": 20,
          "start": 53
        }
      ]
    }
  },
  "deployedLinkReferences": {}
}