{
  "_format": "hh3-artifact-1",
  "contractName": "AnotherContract",
  "sourceName": "contracts/Events.sol",
  "abi": [
    {
      "anonymous": false,
      "inputs": [
        {
          "indexed": false,
          "internalType": "uint256",
          "name": "u",
          "type": "uint256"
        }
      ],
      "name": "WithUintArg",
      "type": "event"
    },
    {
      "inputs": [
        {
          "internalType": "uint256",
          "name": "u",
          "type": "uint256"
        }
      ],
      "name": "emitUint",
      "outputs": [],
      "stateMutability": "nonpayable",
      "type": "function"
    }
  ],
  "bytecode": "0x608060405234801561000f575f80fd5b506101438061001d5f395ff3fe608060405234801561000f575f80fd5b5060043610610029575f3560e01c8063919402441461002d575b5f80fd5b610047600480360381019061004291906100ba565b610049565b005b7f97535d4b4270d3f1a499c85ae918ba6798cbdcc83a26529331a25dcd2194cfce8160405161007891906100f4565b60405180910390a150565b5f80fd5b5f819050919050565b61009981610087565b81146100a3575f80fd5b50565b5f813590506100b481610090565b92915050565b5f602082840312156100cf576100ce610083565b5b5f6100dc848285016100a6565b91505092915050565b6100ee81610087565b82525050565b5f6020820190506101075f8301846100e5565b9291505056fea26469706673582212200442a230d0eea55686234b60676fd278bdbb66c226caca315b441cac4a975e1564736f6c63430008180033",
  "linkReferences": {},
  "deployedLinkReferences": {},
  "immutableReferences": {},
  "inputSourceName": "contracts/Events.sol",
  "buildInfoId": "d0df67cbe544e518db8297d4bee7cb4d850c81b2"
}