{
  "_format": "hh3-artifact-1",
  "contractName": "Events",
  "sourceName": "contracts/Events.sol",
  "abi": [
    {
      "inputs": [],
      "stateMutability": "nonpayable",
      "type": "constructor"
    },
    {
      "anonymous": false,
      "inputs": [
        {
          "indexed": false,
          "internalType": "address",
          "name": "a",
          "type": "address"
        }
      ],
      "name": "WithAddressArg",
      "type": "event"
    },
    {
      "anonymous": false,
      "inputs": [
        {
          "indexed": false,
          "internalType": "bytes32",
          "name": "b",
          "type": "bytes32"
        }
      ],
      "name": "WithBytes32Arg",
      "type": "event"
    },
    {
      "anonymous": false,
      "inputs": [
        {
          "indexed": false,
          "internalType": "bytes32[2]",
          "name": "a",
          "type": "bytes32[2]"
        }
      ],
      "name": "WithBytes32Array",
      "type": "event"
    },
    {
      "anonymous": false,
      "inputs": [
        {
          "indexed": false,
          "internalType": "bytes",
          "name": "b",
          "type": "bytes"
        }
      ],
      "name": "WithBytesArg",
      "type": "event"
    },
    {
      "anonymous": false,
      "inputs": [
        {
          "indexed": true,
          "internalType": "bytes32",
          "name": "b",
          "type": "bytes32"
        }
      ],
      "name": "WithIndexedBytes32Arg",
      "type": "event"
    },
    {
      "anonymous": false,
      "inputs": [
        {
          "indexed": true,
          "internalType": "bytes",
          "name": "b",
          "type": "bytes"
        }
      ],
      "name": "WithIndexedBytesArg",
      "type": "event"
    },
    {
      "anonymous": false,
      "inputs": [
        {
          "indexed": true,
          "internalType": "string",
          "name": "s",
          "type": "string"
        }
      ],
      "name": "WithIndexedStringArg",
      "type": "event"
    },
    {
      "anonymous": false,
      "inputs": [
        {
          "indexed": false,
          "internalType": "int256",
          "name": "i",
          "type": "int256"
        }
      ],
      "name": "WithIntArg",
      "type": "event"
    },
    {
      "anonymous": false,
      "inputs": [
        {
          "indexed": false,
          "internalType": "string",
          "name": "s",
          "type": "string"
        }
      ],
      "name": "WithStringArg",
      "type": "event"
    },
    {
      "anonymous": false,
      "inputs": [
        {
          "components": [
            {
              "internalType": "uint256",
              "name": "u",
              "type": "uint256"
            },
            {
              "internalType": "uint256",
              "name": "v",
              "type": "uint256"
            }
          ],
          "indexed": false,
          "internalType": "struct Events.Struct",
          "name": "s",
          "type": "tuple"
        }
      ],
      "name": "WithStructArg",
      "type": "event"
    },
    {
      "anonymous": false,
      "inputs": [
        {
          "indexed": false,
          "internalType": "string",
          "name": "s",
          "type": "string"
        },
        {
          "indexed": false,
          "internalType": "string",
          "name": "t",
          "type": "string"
        }
      ],
      "name": "WithTwoStringArgs",
      "type": "event"
    },
    {
      "anonymous": false,
      "inputs": [
        {
          "indexed": false,
          "internalType": "uint256",
          "name": "u",
          "type": "uint256"
        },
        {
          "indexed": false,
          "internalType": "uint256",
          "name": "v",
          "type": "uint256"
        }
      ],
      "name": "WithTwoUintArgs",
      "type": "event"
    },
    {
      "anonymous": false,
      "inputs": [
        {
          "indexed": false,
          "internalType": "uint256",
          "name": "u",
          "type": "uint256"
        }
      ],
      "name": "WithUintArg",
      "type": "event"
    },
    {
      "anonymous": false,
      "inputs": [
        {
          "indexed": false,
          "internalType": "uint256[2]",
          "name": "a",
          "type": "uint256[2]"
        }
      ],
      "name": "WithUintArray",
      "type": "event"
    },
    {
      "anonymous": false,
      "inputs": [],
      "name": "WithoutArgs",
      "type": "event"
    },
    {
      "inputs": [],
      "name": "doNotEmit",
      "outputs": [],
      "stateMutability": "nonpayable",
      "type": "function"
    },
    {
      "inputs": [
        {
          "internalType": "address",
          "name": "a",
          "type": "address"
        }
      ],
      "name": "emitAddress",
      "outputs": [],
      "stateMutability": "nonpayable",
      "type": "function"
    },
    {
      "inputs": [
        {
          "internalType": "bytes",
          "name": "b",
          "type": "bytes"
        }
      ],
      "name": "emitBytes",
      "outputs": [],
      "stateMutability": "nonpayable",
      "type": "function"
    },
    {
      "inputs": [
        {
          "internalType": "bytes32",
          "name": "b",
          "type": "bytes32"
        }
      ],
      "name": "emitBytes32",
      "outputs": [],
      "stateMutability": "nonpayable",
      "type": "function"
    },
    {
      "inputs": [
        {
          "internalType": "bytes32",
          "name": "b",
          "type": "bytes32"
        },
        {
          "internalType": "bytes32",
          "name": "c",
          "type": "bytes32"
        }
      ],
      "name": "emitBytes32Array",
      "outputs": [],
      "stateMutability": "nonpayable",
      "type": "function"
    },
    {
      "inputs": [
        {
          "internalType": "bytes",
          "name": "b",
          "type": "bytes"
        }
      ],
      "name": "emitIndexedBytes",
      "outputs": [],
      "stateMutability": "nonpayable",
      "type": "function"
    },
    {
      "inputs": [
        {
          "internalType": "bytes32",
          "name": "b",
          "type": "bytes32"
        }
      ],
      "name": "emitIndexedBytes32",
      "outputs": [],
      "stateMutability": "nonpayable",
      "type": "function"
    },
    {
      "inputs": [
        {
          "internalType": "string",
          "name": "s",
          "type": "string"
        }
      ],
      "name": "emitIndexedString",
      "outputs": [],
      "stateMutability": "nonpayable",
      "type": "function"
    },
    {
      "inputs": [
        {
          "internalType": "int256",
          "name": "i",
          "type": "int256"
        }
      ],
      "name": "emitInt",
      "outputs": [],
      "stateMutability": "nonpayable",
      "type": "function"
    },
    {
      "inputs": [
        {
          "internalType": "uint256",
          "name": "u",
          "type": "uint256"
        }
      ],
      "name": "emitNestedUintFromSameContract",
      "outputs": [],
      "stateMutability": "nonpayable",
      "type": "function"
    },
    {
      "inputs": [
        {
          "internalType": "string",
          "name": "s",
          "type": "string"
        }
      ],
      "name": "emitString",
      "outputs": [],
      "stateMutability": "nonpayable",
      "type": "function"
    },
    {
      "inputs": [
        {
          "internalType": "uint256",
          "name": "u",
          "type": "uint256"
        },
        {
          "internalType": "uint256",
          "name": "v",
          "type": "uint256"
        }
      ],
      "name": "emitStruct",
      "outputs": [],
      "stateMutability": "nonpayable",
      "type": "function"
    },
    {
      "inputs": [
        {
          "internalType": "uint256",
          "name": "u",
          "type": "uint256"
        },
        {
          "internalType": "uint256",
          "name": "v",
          "type": "uint256"
        }
      ],
      "name": "emitTwoUints",
      "outputs": [],
      "stateMutability": "nonpayable",
      "type": "function"
    },
    {
      "inputs": [
        {
          "internalType": "uint256",
          "name": "u",
          "type": "uint256"
        },
        {
          "internalType": "uint256",
          "name": "v",
          "type": "uint256"
        },
        {
          "internalType": "string",
          "name": "s",
          "type": "string"
        },
        {
          "internalType": "string",
          "name": "t",
          "type": "string"
        }
      ],
      "name": "emitTwoUintsAndTwoStrings",
      "outputs": [],
      "stateMutability": "nonpayable",
      "type": "function"
    },
    {
      "inputs": [
        {
          "internalType": "uint256",
          "name": "u",
          "type": "uint256"
        }
      ],
      "name": "emitUint",
      "outputs": [],
      "stateMutability": "nonpayable",
      "type": "function"
    },
    {
      "inputs": [
        {
          "internalType": "uint256",
          "name": "u",
          "type": "uint256"
        },
        {
          "internalType": "string",
          "name": "s",
          "type": "string"
        }
      ],
      "name": "emitUintAndString",
      "outputs": [],
      "stateMutability": "nonpayable",
      "type": "function"
    },
    {
      "inputs": [
        {
          "internalType": "uint256",
          "name": "u",
          "type": "uint256"
        },
        {
          "internalType": "uint256",
          "name": "v",
          "type": "uint256"
        }
      ],
      "name": "emitUintArray",
      "outputs": [],
      "stateMutability": "nonpayable",
      "type": "function"
    },
    {
      "inputs": [
        {
          "internalType": "uint256",
          "name": "u",
          "type": "uint256"
        },
        {
          "internalType": "uint256",
          "name": "v",
          "type": "uint256"
        }
      ],
      "name": "emitUintTwice",
      "outputs": [],
      "stateMutability": "nonpayable",
      "type": "function"
    },
    {
      "inputs": [],
      "name": "emitWithoutArgs",
      "outputs": [],
      "stateMutability": "nonpayable",
      "type": "function"
    }
  ],
  "bytecode": "0x608060405234801561000f575f80fd5b506112158061001d5f395ff3fe608060405234801561000f575f80fd5b506004361061011f575f3560e01c8063813a8cf5116100ab578063c0cd80e61161006f578063c0cd80e614610299578063c76f0635146102b5578063cc07e605146102d1578063db6cdf68146102ed578063ec5c3ede146102f75761011f565b8063813a8cf51461021f5780638a6181911461023b57806390b37ea21461025757806391940244146102615780639f31a2231461027d5761011f565b80632785f8d6116100f25780632785f8d61461019357806333311ef3146101af57806338393646146101cb578063443690a0146101e7578063532b9cce146102035761011f565b8063048858e5146101235780630c0c941a1461013f57806317aba5371461015b5780632536f12714610177575b5f80fd5b61013d6004803603810190610138919061082f565b610313565b005b6101596004803603810190610154919061088d565b610343565b005b6101756004803603810190610170919061088d565b6103b5565b005b610191600480360381019061018c9190610a07565b610404565b005b6101ad60048036038101906101a89190610a4e565b61043e565b005b6101c960048036038101906101c4919061082f565b6104b0565b005b6101e560048036038101906101e0919061088d565b6104ea565b005b61020160048036038101906101fc9190610a07565b610527565b005b61021d60048036038101906102189190610aa8565b61056c565b005b61023960048036038101906102349190610b44565b6105e4565b005b61025560048036038101906102509190610ba2565b6105f0565b005b61025f61062a565b005b61027b60048036038101906102769190610b44565b610658565b005b6102976004803603810190610292919061088d565b610692565b005b6102b360048036038101906102ae9190610bcd565b6106e1565b005b6102cf60048036038101906102ca9190610ca9565b610730565b005b6102eb60048036038101906102e69190610ca9565b61076a565b005b6102f56107af565b005b610311600480360381019061030c9190610d4a565b6107b1565b005b807fb421ad092cfce88844bfbfaa9654e824ba0ee5b6b0a220f822406b62c05364c060405160405180910390a250565b7f97535d4b4270d3f1a499c85ae918ba6798cbdcc83a26529331a25dcd2194cfce826040516103729190610d84565b60405180910390a17f97535d4b4270d3f1a499c85ae918ba6798cbdcc83a26529331a25dcd2194cfce816040516103a99190610d84565b60405180910390a15050565b7f73e687a2685d698f7acf934b4929a29ae783a4bcb640d71c5d6994d74e2380ca6040518060400160405280848152602001838152506040516103f89190610e42565b60405180910390a15050565b7f9b7ddcbde8dac280e036f87acafec72f9eee31a640c08087e8439139c7e5b52a816040516104339190610ed5565b60405180910390a150565b7f9b7ddcbde8dac280e036f87acafec72f9eee31a640c08087e8439139c7e5b52a8160405161046d9190610ed5565b60405180910390a17f97535d4b4270d3f1a499c85ae918ba6798cbdcc83a26529331a25dcd2194cfce826040516104a49190610d84565b60405180910390a15050565b7f425517d2678bbca3c0d9d8d9fdbec34c81194e7935ed48a6a19f97db93bcef6a816040516104df9190610f04565b60405180910390a150565b7f8b268bb46a33a55bece084a8b6858719c9f2985c860fa06c155a341df0b73c0e828260405161051b929190610f1d565b60405180910390a15050565b806040516105359190610f7e565b60405180910390207fd9ca28363e2d8739e0e9c4fea1d2df98d1bd7d9d915d00e5fccbf78c0fddcdb060405160405180910390a250565b7f8b268bb46a33a55bece084a8b6858719c9f2985c860fa06c155a341df0b73c0e848460405161059d929190610f1d565b60405180910390a17f1f1a2c748505fcd8f16a719fa88d517b1b41111c4f5e07bb28311cdc4d15153882826040516105d6929190610f94565b60405180910390a150505050565b6105ed81610658565b50565b7f39feab747bb4f579008aea963d7ebac85ad410bb83ee663a42af01464654e93f8160405161061f9190610fd8565b60405180910390a150565b7f917b7bf7ab24d61500cb699921a3a1cc22b8833da6484fea20f262b2610604af60405160405180910390a1565b7f97535d4b4270d3f1a499c85ae918ba6798cbdcc83a26529331a25dcd2194cfce816040516106879190610d84565b60405180910390a150565b7fd59ab87bf64b9d737998f3dc70c649d16b135f085029c1666ca0634beb75a7736040518060400160405280848152602001838152506040516106d5919061101e565b60405180910390a15050565b7f15100859f3ffe92910dc3f11ed3db4e9cf32ff657c05066e44be4e69b2b488bc60405180604001604052808481526020018381525060405161072491906110dc565b60405180910390a15050565b7f433470edcdd53b50238be4d8e048e2baa269af5be2a4e29515c138883c745aa88160405161075f9190611147565b60405180910390a150565b8060405161077891906111a1565b60405180910390207f160e4655df40987951accf7c731d5c504f77d20c139bd73032821b91a426dd9860405160405180910390a250565b565b7f336bcd960d2e5a52cef6094ba33727f309dc2c675eebefc6d9b6b6d79abac877816040516107e091906111c6565b60405180910390a150565b5f604051905090565b5f80fd5b5f80fd5b5f819050919050565b61080e816107fc565b8114610818575f80fd5b50565b5f8135905061082981610805565b92915050565b5f60208284031215610844576108436107f4565b5b5f6108518482850161081b565b91505092915050565b5f819050919050565b61086c8161085a565b8114610876575f80fd5b50565b5f8135905061088781610863565b92915050565b5f80604083850312156108a3576108a26107f4565b5b5f6108b085828601610879565b92505060206108c185828601610879565b9150509250929050565b5f80fd5b5f80fd5b5f601f19601f8301169050919050565b7f4e487b71000000000000000000000000000000000000000000000000000000005f52604160045260245ffd5b610919826108d3565b810181811067ffffffffffffffff82111715610938576109376108e3565b5b80604052505050565b5f61094a6107eb565b90506109568282610910565b919050565b5f67ffffffffffffffff821115610975576109746108e3565b5b61097e826108d3565b9050602081019050919050565b828183375f83830152505050565b5f6109ab6109a68461095b565b610941565b9050828152602081018484840111156109c7576109c66108cf565b5b6109d284828561098b565b509392505050565b5f82601f8301126109ee576109ed6108cb565b5b81356109fe848260208601610999565b91505092915050565b5f60208284031215610a1c57610a1b6107f4565b5b5f82013567ffffffffffffffff811115610a3957610a386107f8565b5b610a45848285016109da565b91505092915050565b5f8060408385031215610a6457610a636107f4565b5b5f610a7185828601610879565b925050602083013567ffffffffffffffff811115610a9257610a916107f8565b5b610a9e858286016109da565b9150509250929050565b5f805f8060808587031215610ac057610abf6107f4565b5b5f610acd87828801610879565b9450506020610ade87828801610879565b935050604085013567ffffffffffffffff811115610aff57610afe6107f8565b5b610b0b878288016109da565b925050606085013567ffffffffffffffff811115610b2c57610b2b6107f8565b5b610b38878288016109da565b91505092959194509250565b5f60208284031215610b5957610b586107f4565b5b5f610b6684828501610879565b91505092915050565b5f819050919050565b610b8181610b6f565b8114610b8b575f80fd5b50565b5f81359050610b9c81610b78565b92915050565b5f60208284031215610bb757610bb66107f4565b5b5f610bc484828501610b8e565b91505092915050565b5f8060408385031215610be357610be26107f4565b5b5f610bf08582860161081b565b9250506020610c018582860161081b565b9150509250929050565b5f67ffffffffffffffff821115610c2557610c246108e3565b5b610c2e826108d3565b9050602081019050919050565b5f610c4d610c4884610c0b565b610941565b905082815260208101848484011115610c6957610c686108cf565b5b610c7484828561098b565b509392505050565b5f82601f830112610c9057610c8f6108cb565b5b8135610ca0848260208601610c3b565b91505092915050565b5f60208284031215610cbe57610cbd6107f4565b5b5f82013567ffffffffffffffff811115610cdb57610cda6107f8565b5b610ce784828501610c7c565b91505092915050565b5f73ffffffffffffffffffffffffffffffffffffffff82169050919050565b5f610d1982610cf0565b9050919050565b610d2981610d0f565b8114610d33575f80fd5b50565b5f81359050610d4481610d20565b92915050565b5f60208284031215610d5f57610d5e6107f4565b5b5f610d6c84828501610d36565b91505092915050565b610d7e8161085a565b82525050565b5f602082019050610d975f830184610d75565b92915050565b5f60029050919050565b5f81905092915050565b5f819050919050565b610dc38161085a565b82525050565b5f610dd48383610dba565b60208301905092915050565b5f602082019050919050565b610df581610d9d565b610dff8184610da7565b9250610e0a82610db1565b805f5b83811015610e3a578151610e218782610dc9565b9650610e2c83610de0565b925050600181019050610e0d565b505050505050565b5f604082019050610e555f830184610dec565b92915050565b5f81519050919050565b5f82825260208201905092915050565b5f5b83811015610e92578082015181840152602081019050610e77565b5f8484015250505050565b5f610ea782610e5b565b610eb18185610e65565b9350610ec1818560208601610e75565b610eca816108d3565b840191505092915050565b5f6020820190508181035f830152610eed8184610e9d565b905092915050565b610efe816107fc565b82525050565b5f602082019050610f175f830184610ef5565b92915050565b5f604082019050610f305f830185610d75565b610f3d6020830184610d75565b9392505050565b5f81905092915050565b5f610f5882610e5b565b610f628185610f44565b9350610f72818560208601610e75565b80840191505092915050565b5f610f898284610f4e565b915081905092915050565b5f6040820190508181035f830152610fac8185610e9d565b90508181036020830152610fc08184610e9d565b90509392505050565b610fd281610b6f565b82525050565b5f602082019050610feb5f830184610fc9565b92915050565b604082015f8201516110055f850182610dba565b5060208201516110186020850182610dba565b50505050565b5f6040820190506110315f830184610ff1565b92915050565b5f60029050919050565b5f81905092915050565b5f819050919050565b61105d816107fc565b82525050565b5f61106e8383611054565b60208301905092915050565b5f602082019050919050565b61108f81611037565b6110998184611041565b92506110a48261104b565b805f5b838110156110d45781516110bb8782611063565b96506110c68361107a565b9250506001810190506110a7565b505050505050565b5f6040820190506110ef5f830184611086565b92915050565b5f81519050919050565b5f82825260208201905092915050565b5f611119826110f5565b61112381856110ff565b9350611133818560208601610e75565b61113c816108d3565b840191505092915050565b5f6020820190508181035f83015261115f818461110f565b905092915050565b5f81905092915050565b5f61117b826110f5565b6111858185611167565b9350611195818560208601610e75565b80840191505092915050565b5f6111ac8284611171565b915081905092915050565b6111c081610d0f565b82525050565b5f6020820190506111d95f8301846111b7565b9291505056fea2646970667358221220930fd51bd4672692921427651810a83f7091418a8e01d6ba13056ab49b5622f764736f6c63430008180033",
  "linkReferences": {},
  "deployedLinkReferences": {},
  "immutableReferences": {},
  "inputSourceName": "contracts/Events.sol",
  "buildInfoId": "d0df67cbe544e518db8297d4bee7cb4d850c81b2"
}