{
  "_format": "hh3-artifact-1",
  "contractName": "OverrideEventContract",
  "sourceName": "contracts/Events.sol",
  "abi": [
    {
      "anonymous": false,
      "inputs": [
        {
          "indexed": false,
          "internalType": "uint256",
          "name": "u",
          "type": "uint256"
        }
      ],
      "name": "simpleEvent",
      "type": "event"
    },
    {
      "anonymous": false,
      "inputs": [],
      "name": "simpleEvent",
      "type": "event"
    },
    {
      "inputs": [
        {
          "internalType": "uint256",
          "name": "u",
          "type": "uint256"
        }
      ],
      "name": "emitSimpleEventWithUintArg",
      "outputs": [],
      "stateMutability": "nonpayable",
      "type": "function"
    },
    {
      "inputs": [],
      "name": "emitSimpleEventWithoutArg",
      "outputs": [],
      "stateMutability": "nonpayable",
      "type": "function"
    }
  ],
  "bytecode": "0x608060405234801561000f575f80fd5b506101868061001d5f395ff3fe608060405234801561000f575f80fd5b5060043610610034575f3560e01c80632ce136d9146100385780638e1c72bb14610054575b5f80fd5b610052600480360381019061004d91906100fd565b61005e565b005b61005c610098565b005b7fb2dc4835200bc382210c109031e47d05b37c9244807898f5910a43f961e6719a8160405161008d9190610137565b60405180910390a150565b7f8922a6ca0f59f137d8e739a3dca968247fca890d147a5006a57da5bc782f6ae960405160405180910390a1565b5f80fd5b5f819050919050565b6100dc816100ca565b81146100e6575f80fd5b50565b5f813590506100f7816100d3565b92915050565b5f60208284031215610112576101116100c6565b5b5f61011f848285016100e9565b91505092915050565b610131816100ca565b82525050565b5f60208201905061014a5f830184610128565b9291505056fea2646970667358221220d50e25dd9f3ec0d6a3ae225d7d2f92dfc97566db8e7d0bcc75218fcbd269f3ca64736f6c63430008180033",
  "linkReferences": {},
  "deployedLinkReferences": {},
  "immutableReferences": {},
  "inputSourceName": "contracts/Events.sol",
  "buildInfoId": "d0df67cbe544e518db8297d4bee7cb4d850c81b2"
}