{
  "_format": "hh-sol-artifact-1",
  "contractName": "ChangeEtherBalance",
  "sourceName": "contracts/ChangeEtherBalance.sol",
  "abi": [
    {
      "inputs": [],
      "name": "returnHalf",
      "outputs": [],
      "stateMutability": "payable",
      "type": "function"
    },
    {
      "inputs": [
        {
          "internalType": "address",
          "name": "addr",
          "type": "address"
        }
      ],
      "name": "transferTo",
      "outputs": [],
      "stateMutability": "payable",
      "type": "function"
    },
    {
      "stateMutability": "payable",
      "type": "receive"
    }
  ],
  "bytecode": "0x608060405234801561001057600080fd5b50610225806100206000396000f3fe60806040526004361061002d5760003560e01c8063a03fa7e314610039578063b019946e1461005557610034565b3661003457005b600080fd5b610053600480360381019061004e9190610113565b61005f565b005b61005d6100a9565b005b8073ffffffffffffffffffffffffffffffffffffffff166108fc349081150290604051600060405180830381858888f193505050501580156100a5573d6000803e3d6000fd5b5050565b3373ffffffffffffffffffffffffffffffffffffffff166108fc6002346100d0919061013c565b9081150290604051600060405180830381858888f193505050501580156100fb573d6000803e3d6000fd5b50565b60008135905061010d816101d8565b92915050565b60006020828403121561012557600080fd5b6000610133848285016100fe565b91505092915050565b60006101478261019f565b91506101528361019f565b925082610162576101616101a9565b5b828204905092915050565b60006101788261017f565b9050919050565b600073ffffffffffffffffffffffffffffffffffffffff82169050919050565b6000819050919050565b7f4e487b7100000000000000000000000000000000000000000000000000000000600052601260045260246000fd5b6101e18161016d565b81146101ec57600080fd5b5056fea26469706673582212208e553461507bae731d37afa0d5a2a7dae74de7a6eab682733425a78884ed60b364736f6c63430008040033",
  "linkReferences": {},
  "deployedLinkReferences": {}
}