{
  "_format": "hh3-artifact-1",
  "contractName": "B",
  "sourceName": "contracts/B.sol",
  "abi": [
    {
      "inputs": [],
      "name": "id",
      "outputs": [
        {
          "internalType": "uint256",
          "name": "",
          "type": "uint256"
        }
      ],
      "stateMutability": "view",
      "type": "function"
    }
  ],
  "bytecode": "0x60806040526101c8600055348015601557600080fd5b5060b38060236000396000f3fe6080604052348015600f57600080fd5b506004361060285760003560e01c8063af640d0f14602d575b600080fd5b60336047565b604051603e91906064565b60405180910390f35b60005481565b6000819050919050565b605e81604d565b82525050565b6000602082019050607760008301846057565b9291505056fea2646970667358221220ff7f4efb301f1943f5cc347949cb56f6ebaccdc20bc2ce799e5028db87f9976a64736f6c634300081c0033",
  "linkReferences": {},
  "deployedLinkReferences": {},
  "inputSourceName": "contracts/B.sol",
  "immutableReferences": {},
  "buildInfoId": "65860e589a9467319db576328b26eea6"
}