{
  "_format": "hh3-artifact-1",
  "contractName": "A",
  "sourceName": "contracts/A.sol",
  "abi": [
    {
      "inputs": [],
      "name": "id",
      "outputs": [
        {
          "internalType": "uint256",
          "name": "",
          "type": "uint256"
        }
      ],
      "stateMutability": "view",
      "type": "function"
    }
  ],
  "bytecode": "0x6080604052607b600055348015601457600080fd5b5060b38060226000396000f3fe6080604052348015600f57600080fd5b506004361060285760003560e01c8063af640d0f14602d575b600080fd5b60336047565b604051603e91906064565b60405180910390f35b60005481565b6000819050919050565b605e81604d565b82525050565b6000602082019050607760008301846057565b9291505056fea2646970667358221220188551a12a9abe774b2894339dee84a297a4adb3ba7b271ce539e5a6ebf3683d64736f6c634300081c0033",
  "linkReferences": {},
  "deployedLinkReferences": {},
  "inputSourceName": "contracts/A.sol",
  "immutableReferences": {},
  "buildInfoId": "solc-0_8_28-65860e589a9467319db576328b26eea6"
}